:100000000C945C000C9479000C9479000C947900A9
:100010000C9479000C9479000C9479000C9479007C
:100020000C9479000C9479000C9479000C9479006C
:100030000C9479000C9479000C9479000C9479005C
:100040000C94AB000C9479000C9479000C9479001A
:100050000C9479000C9479000C9479000C9479003C
:100060000C9479000C947900000000070002010054
:100070000003040600000000000000000102040864
:100080001020408001020408102001020408102002
:10009000040404040404040402020202020203032E
:1000A0000303030300000000250028002B000000CC
:1000B0000000240027002A0011241FBECFEFD8E043
:1000C000DEBFCDBF11E0A0E0B1E0E6E4F4E002C0A5
:1000D00005900D92A230B107D9F721E0A2E0B1E07E
:1000E00001C01D92AB30B207E1F70E9411020C94DF
:1000F0001E020C940000CF93DF9361E082E10E9426
:10010000A201C0E0D1E061E088810E94A20161E02B
:1001100082E10E94DB0160E08881DF91CF910C9445
:10012000DB01CF93DF93C0E0D1E061E088810E94E2
:10013000DB016AE070E080E090E00E94180160E07E
:1001400088810E94DB016AE070E080E090E0DF914E
:10015000CF910C9418011F920F920FB60F92112499
:100160002F933F938F939F93AF93BF9380910301FE
:1001700090910401A0910501B09106013091020116
:1001800023E0230F2D3720F40196A11DB11D05C0DA
:1001900026E8230F0296A11DB11D20930201809332
:1001A000030190930401A0930501B093060180918F
:1001B000070190910801A0910901B0910A010196EF
:1001C000A11DB11D8093070190930801A09309011F
:1001D000B0930A01BF91AF919F918F913F912F9161
:1001E0000F900FBE0F901F9018953FB7F894809115
:1001F000070190910801A0910901B0910A0126B56B
:10020000A89B05C02F3F19F00196A11DB11D3FBF4E
:100210006627782F892F9A2F620F711D811D911DDE
:1002200042E0660F771F881F991F4A95D1F70895FE
:10023000CF92DF92EF92FF92CF93DF936B017C011D
:100240000E94F500EB01C114D104E104F10479F03E
:100250000E94F5006C1B7D0B683E7340A0F381E0AB
:10026000C81AD108E108F108C851DC4FECCFDF9182
:10027000CF91FF90EF90DF90CF900895789484B560
:10028000826084BD84B5816084BD85B5826085BD92
:1002900085B5816085BDEEE6F0E080818160808378
:1002A000E1E8F0E01082808182608083808181605B
:1002B0008083E0E8F0E0808181608083E1EBF0E022
:1002C000808184608083E0EBF0E0808181608083C6
:1002D000EAE7F0E0808184608083808182608083AF
:1002E0008081816080838081806880831092C100DA
:1002F0000895833081F028F4813099F08230A1F0A4
:1003000008958630A9F08730B9F08430D1F4809117
:1003100080008F7D03C0809180008F778093800064
:10032000089584B58F7702C084B58F7D84BD08950C
:100330008091B0008F7703C08091B0008F7D809353
:10034000B0000895CF93DF9390E0FC01E458FF4F95
:100350002491FC01E057FF4F8491882349F190E0FC
:10036000880F991FFC01E255FF4FA591B4918C5560
:100370009F4FFC01C591D4919FB7611108C0F894BB
:100380008C91209582238C93888182230AC06230CD
:1003900051F4F8948C91322F309583238C9388817B
:1003A000822B888304C0F8948C91822B8C939FBFFE
:1003B000DF91CF9108950F931F93CF93DF931F92F7
:1003C000CDB7DEB7282F30E0F901E859FF4F84910F
:1003D000F901E458FF4F1491F901E057FF4F0491E0
:1003E0000023C9F0882321F069830E947901698183
:1003F000E02FF0E0EE0FFF1FEC55FF4FA591B491F9
:100400009FB7F8948C91611103C01095812301C0AE
:10041000812B8C939FBF0F90DF91CF911F910F91F4
:1004200008950E943E010E947B00C0E0D0E00E943F
:1004300091002097E1F30E940000F9CFF8940C940A
:060440002102F894FFCF39
:020446001300A1
:00000001FF
