:100000000C9464000C948C000C948C000C948C0068
:100010000C948C000C948C000C948C000C94631643
:100020000C948C000C948C000C948C000C948C0020
:100030000C948C000C948C000C948C000C948C0010
:100040000C94250F0C948C000C947A130C94BD1313
:100050000C948C000C948C000C948C000C948C00F0
:100060000C948C000C948C0000000007000201002E
:100070000003040600000000000000000102040864
:100080001020408001020408102001020408102002
:10009000040404040404040402020202020203032E
:1000A00003030303000000002300260029000000D2
:1000B0000000250028002B0000000000240027007D
:1000C0002A007D0E7914190F11241FBECFEFD8E03E
:1000D000DEBFCDBF13E0A0E0B1E0E0EEF3E302C08D
:1000E00005900D92A833B107D9F728E0A8E3B3E053
:1000F00001C01D92AB37B207E1F710E0C6ECD0E0CB
:1001000004C02297FE010E94D019C23CD107C9F752
:100110000E94DB120C94AE170C940000FC01DB0172
:1001200082818C93838111968C931197848112968E
:100130008C931297858113968C93139786811496CE
:100140008C931497878115968C93159780851696B6
:100150008C931697818517968C9388E090E008958C
:10016000FC01DB014C9150E060E070E0428353837E
:100170006483758311968C911197582B4283538316
:100180006483758312968C911297682B42835383F4
:100190006483758313968C911397782B42835383D2
:1001A0006483758314964C91149750E060E070E07E
:1001B000468357836087718715968C911597582BC6
:1001C000468357836087718716968C911697682BA4
:1001D000468357836087718717968C91782B468367
:1001E00057836087718788E090E0089583E191E00C
:1001F000089581E291E008956F927F928F929F928D
:10020000AF92BF92CF92DF92EF92FF920F931F9324
:10021000CF93DF93FC01DB018C9190E09383828389
:1002200011962C911197922B9383828312964D9164
:100230005D916D917C9115975D0186E0A80EB11CD2
:100240008A019B010A5F1F4F2F4F3F4F6501CA1A5A
:10025000DB0AE12CF12CC016D106E206F30640F4CD
:10026000E501F9905E01CE010297EC01F882EECF34
:10027000ED01C40FD51F1D82CD01059695838483A2
:10028000ED01C40FD51FCE80DF80E884F984465F7E
:100290005F4F3D01640E751E8A01222717FD2095D0
:1002A000322F0C0D1D1D2E1D3F1D43018A1A9B0A66
:1002B000A12CB12C80169106A206B30640F4E301EE
:1002C00069913E01CE010297EC016883EECFC40E26
:1002D000D51E9D012C0D3D1DC9010197EC01188211
:1002E000415051094A0F5B1F57834683E90108813A
:1002F00019812A813B81D4E0CD0ED11C3D016C0CCB
:100300007D1CA601662757FD6095762F400F511F73
:10031000621F731F43018A1A9B0AA12CB12C8416F9
:100320009506A606B70640F4E301F9903E01CE011A
:100330000297EC01F882EECF0C0D1D1D9D01200FE0
:10034000311FC9010197EC011882D1E0CD1AD10803
:10035000CA0EDB1ED186C086D90111968C911197E9
:1003600012964C91129750E060E070E0BA01552768
:100370004427582B8C91482B13968C91782B4287CD
:10038000538764877587C8010496DF91CF911F91C9
:100390000F91FF90EF90DF90CF90BF90AF909F9024
:1003A0008F907F906F90089582E491E008958BE59F
:1003B00091E00895AF92BF92CF92DF92EF92FF92B9
:1003C0001F93CF93DF939C01FB018081D90112968B
:1003D0008C9381819281A381B4815B01C5E0AC0ED5
:1003E000B11CAC01BD014B5F5F4F6F4F7F4F65018B
:1003F000CE1ADF0AE12CF12CC416D506E606F70664
:1004000050F4E501D9905E017E01D2E0ED1AF108C9
:10041000E701D882ECCFEF01C80FD91F1C823496B8
:10042000E901FC83EB830596DF91CF911F91FF904B
:10043000EF90DF90CF90BF90AF9008958CE791E060
:1004400008958FE891E008958EEA92E0089580EB98
:1004500091E00895FC018281FB01808381E090E0BE
:100460000895FB012081FC01228381E090E0089542
:1004700081ED91E008958FED91E00895CF92DF92A4
:10048000EF92FF920F931F93CF93DF938C01EB01B9
:10049000888190E0A0E0B0E0F80182839383A48398
:1004A000B5832981922B82839383A483B5832A8188
:1004B000A22B82839383A483B5832B81B22B828367
:1004C0009383A483B5838C8190E0A0E0B0E0868321
:1004D0009783A087B1872D81922B86839783A087EE
:1004E000B1872E81A22B86839783A087B1872F8126
:1004F000B22B86839783A087B187488550E060E060
:1005000070E042875387648775878985582B4287B7
:100510005387648775878A85682B428753876487EA
:1005200075878B85782B42875387648775878C8581
:100530009D85AE85BF859E01205F3F4FAC01BD010B
:10054000405F5F4F6F4F7F4F6901CC1ADD0AE12C8E
:10055000F12CC416D506E606F70650F4F901D19041
:100560009F017F01F2E0EF1AF108F701D082ECCF92
:100570009E01280F391FF90117862F96F801D7879A
:10058000C6874096DF91CF911F910F91FF90EF901A
:10059000DF90CF90089580E092E0089580E192E0AE
:1005A00008950F931F93CF93DF93EC018B01029675
:1005B0000E943E02F801E80FF91F20812A8B228158
:1005C000438150E060E070E0BA0155274427522B88
:1005D0002181422B2481722B4B8B5C8B6D8B7E8B0C
:1005E0002681478150E060E070E0BA01552744273A
:1005F000522B2581422B2085722B4F8B588F698F70
:100600007A8F2285438550E060E070E0BA0155277B
:100610004427522B2185422B2485722B4B8F5C8FD4
:100620006D8F7E8F2685478550E060E070E0BA01CF
:1006300055274427522B2585422B2089722B4F8F1B
:1006400058A369A37AA34196DF91CF911F910F918F
:10065000089581E392E0089583E492E008958E5432
:100660009D4FFC0180810895AF92BF92CF92DF929F
:10067000EF92FF920F931F93CF93DF93EC017B01D7
:100680008A81DB018C938B8111968C93EC81FD81A7
:10069000DF010D900020E9F7CD0101976C01CE1A22
:1006A000DF0AC601A0E0B0E0FB0182839383A4834C
:1006B000B5836C817D81A601C70106960E94B117A2
:1006C000EE81FF81DF010D900020E9F7CD01019758
:1006D0005C01AE1ABF0AF701EC0DFD1D850120E09B
:1006E00030E006831783208731879AE0C90ED11C3A
:1006F0006E817F81A501C7018C0D9D1D0E94B117E0
:10070000CA0CDB1CE885F985DF010D900020E9F7B4
:10071000CD0101975C01AE1ABF0AF701EC0DFD1D7A
:10072000850120E030E0008311832283338394E04D
:10073000C90ED11C68857985A501C7018C0D9D1D49
:100740000E94B117AC0CBD1C3A852B859C858D850C
:10075000F701EA0DFB1D3083218392838383C5015A
:100760000496DF91CF911F910F91FF90EF90DF9052
:10077000CF90BF90AF9008950F931F93CF93DF93C7
:10078000DC01FB0112968C911297808313968D9158
:100790009C911497EC0109900020E9F72197C81B60
:1007A000D90B8E0120E030E0018312832383348350
:1007B00013966D917C911497AE01CF0105960E941E
:1007C000B117CE010596DF91CF911F910F9108953A
:1007D000BF92CF92DF92EF92FF920F931F93CF932E
:1007E000DF93EC017B018A81DB018C9311961C92D3
:1007F000119712961C92129713961C92FB01379632
:1008000040E024E030E05A81C90104964517E0F445
:10081000AF81B88524E0429FA00DB11D11246C91D9
:1008200011965C91119712963C91129713962C9108
:10083000DF0113976C9311965C9311963C93208380
:100840009C014F5F3496DFCF4985F701E20FF31F1C
:10085000408311821282138220E03985F701E80F6C
:10086000F91F04962317B0F4AE85BF8534E0239FAB
:10087000A00DB11D11246C9111965C9111971296E7
:100880004C91129713963C9160835183428333833A
:100890002F5FE3CF28892083118212821382B12C2B
:1008A0002889B21698F54B2D50E0440F551FEB895F
:1008B000FC89E40FF51F0190F081E02DDF010D9020
:1008C0000020E9F79D01215031096901CE1ADF0AA4
:1008D000F701E80FF91F860120E030E00083118363
:1008E000228333838C010C5F1F4FEB89FC89E40F5B
:1008F000F51F60817181A601C701800F911F0E94C1
:10090000B117C601800F911FB394CACFDF91CF9169
:100910001F910F91FF90EF90DF90CF90BF900895BF
:100920000F931F93CF93DF93DC01FB0112968C9101
:100930001297808313968C911397818314968C91D0
:100940001497828315968C911597838316968C91B4
:100950001697848317968C911797858318968C9198
:100960001897868319968C91199787831A968C917C
:100970001A9780871B968C911B9781871C968C9168
:100980001C9782871D968C911D9783871E968D914B
:100990009C911F97EC0109900020E9F72197C81B53
:1009A000D90B8E0120E030E0048715872687378732
:1009B0001E966D917C911F97AE01CF0140960E94CB
:1009C000B117CE014096DF91CF911F910F910895FD
:1009D0000F931F93CF93DF93EC018B0102960E943C
:1009E00090042A89F801E80FF91F20835B894C895C
:1009F0003D892E8951834283338324835F89488DC7
:100A0000398D2A8D55834683378320875B8D4C8DA6
:100A10003D8D2E8D51874287338724875F8D48A176
:100A200039A12AA1558746873787208B4196DF91C8
:100A3000CF911F910F9108954F925F927F928F9265
:100A40009F92AF92BF92CF92DF92EF92FF920F935D
:100A50001F93CF93DF93EC018B01DB01FC908A8124
:100A60008F1550F4B4E0FB9EB00111248F8198855E
:100A70000E94CB1098878F83FA82F8013796F12C69
:100A800044E050E09E012D5F3F4F8A81BA016C5FC8
:100A90007F4F6B01F81660F5408150E060E070E038
:100AA000742F662755274427DF0113978C91482B15
:100AB00011968C91582B11968C91682B4B835C83EB
:100AC0006D837E83A6016F81788584E0F89E600D3A
:100AD000711D1124D9018D909D90AD90BC90DB01CA
:100AE0008D929D92AD92BC921397F3943496CDCF94
:100AF000F801E40FF51FF08089858F1550F484E02C
:100B0000F89EB00111248E859F850E94CB109F878F
:100B10008E879601F98680E0FE013A969985D80184
:100B2000A20FB31FA9014C5F5F4F6A01891748F5F7
:100B300011969C91119712964C91129750E060E09B
:100B400070E0BA0155274427592B9C91492B1396E5
:100B50009C91792B4A875B876C877D879601AE8550
:100B6000BF8594E0899FA00DB11D11244081518162
:100B7000628173814D935D936D937C9313978F5F27
:100B8000CDCFFC9088898F1550F46F2D70E0660FE3
:100B9000771F8B899C890E94CB109C8B8B8BC60105
:100BA000F88A712C2E0151E1450E511C28897216CC
:100BB00008F044C0F801E80FF91FC080D180E2803E
:100BC000F3800496F801E80FF91FAC01662757FD82
:100BD0006095762F4C0D5D1D6E1D7F1D9F01201BA6
:100BE000310B4901A12CB12C84169506A606B70637
:100BF00038F4B1909F0122503109D901BC92EECF57
:100C0000C80ED91EF801EC0DFD1D319710829C0114
:100C100021503109200F311F3A8B298BC6013B89A6
:100C20002C89E32FF22FE70DF11DE70DF11DD20105
:100C30002D913C91318320837394B8CFDF91CF9174
:100C40001F910F91FF90EF90DF90CF90BF90AF90EA
:100C50009F908F907F905F904F9008951F93CF93B8
:100C6000DF9380919F0312E1189FC00111248759DF
:100C70009C4F0E94CF158823D9F080919F0390E06C
:100C8000EC01CC0FDD1FC056DC4F189FF001199FFF
:100C9000F00D1124E759FC4F6081718182819381AD
:100CA00029E330E040E050E00E94A1193983288315
:100CB000DF91CF911F910895AF92BF92CF92DF92B3
:100CC000EF92FF920F931F93CF93DF9300D000D04A
:100CD0001F92CDB7DEB78C016B01643671053CF015
:100CE000FC01EE54FD4F8081882309F479C0DA01BC
:100CF000ED91FC910190F081E02DB8016D5C7E4F8B
:100D0000CA0109957C015801B4EDAB1ABEEFBB0ACC
:100D10002FEFF50120832EEF3196208331968083CB
:100D200031969083890F8095319680833196C08269
:100D30003196D08285E090E020E030E0A701495F65
:100D40005F4F8417950750F4F801E80FF91FE45D31
:100D5000FE4F6081260F311D0196F3CFF8E0EF0EB4
:100D6000F11C400F511FFA01E45DFE4F20952083D6
:100D700029E1E21621E0F206C8F46501C6018A19EC
:100D80009B098E159F0584F4D80112968D919C9134
:100D90001397F60161916F01DC01ED91FC910190D7
:100DA000F081E02D0995EACFC7011CC086EE92E0E4
:100DB0009A83898383E08B8384E692E09D838C838E
:100DC000D801ED91FC910190F081E02DAE014F5FD3
:100DD0005F4F67E070E0C80109958FEF9FEF02C099
:100DE00080E090E00F900F900F900F900F90DF91A8
:100DF000CF911F910F91FF90EF90DF90CF90BF9018
:100E0000AF900895CF93DF93AB01EC01AE81BF812A
:100E1000ED91FC9111976C817D810190F081E02D25
:100E2000CD01DF91CF910994E1E3F7E080E090E01C
:100E300021913191232BB1F4FC01EE0FFF1FEF5CE8
:100E4000F84F20EE34E03183208383589F4F9093F6
:100E5000E5048093E4048DEE94E09093E70480939E
:100E6000E60404C001968931910511F761E08DE037
:100E70000E94331060E088E00E94331061E088E057
:100E80000E946C1088E00E94A21021E0892B09F0DA
:100E900020E02093DF0408950F931F93CF9388E001
:100EA0000E94A210C1E0892B09F0C0E08091DF040C
:100EB0008C1761F00E946F0F6093DB047093DC0469
:100EC0008093DD049093DE04109208018091080164
:100ED00081111BC00E946F0F0091DB041091DC0494
:100EE0002091DD043091DE04601B710B820B930BAB
:100EF0000091090110910A0120910B0130910C0120
:100F0000061717072807390730F0C093DF04CF9181
:100F10001F910F9108956C2F8DE00E946C10C0936B
:100F2000EC046AEE74E080EE94E00E94020781E037
:100F300080930801EACF0F931F9381E080935803B9
:100F400088EB9EE1A5E8BEE38093590390935A0392
:100F5000A0935B03B0935C038FE892ECA5EFBCE336
:100F600080935D0390935E03A0935F03B09360034F
:100F70008DEC9CECACE4BEE3809361039093620340
:100F8000A0936303B0936403E1E3F7E080E090E0B3
:100F900021913191232BB1F4FC01EE0FFF1FEF5C87
:100FA000F84F2CE333E03183208383589F4F909395
:100FB0004103809340038DEE94E09093430380932C
:100FC000420304C001968931910511F70E946F0F09
:100FD0008B019C01055B1F4F2F4F3F4F0093A603D2
:100FE0001093A7032093A8033093A9038B019C01BE
:100FF00004591F4F2F4F3F4F0093AA031093AB0389
:101000002093AC033093AD03DC01CB0183579F4F9A
:10101000AF4FBF4F8093AE039093AF03A093B00345
:10102000B093B1031F910F9108952F923F924F9269
:101030005F926F927F928F929F92AF92BF92CF9268
:10104000DF92EF92FF920F931F93CF93DF93CDB771
:10105000DEB768970FB6F894DEBF0FBECDBF10E0C5
:101060001E0181E1280E311C08E04FE2842E46E685
:10107000942EA92CB12C5FE2452E56E6552E5CE647
:10108000652E712C0E946F0F28EE33E040E050E097
:101090000E94A119C090F904D090FA04E090FB04DA
:1010A000F090FC04C20ED31EE41EF51EC98ADA8A33
:1010B000EB8AFC8A9B01AC0160E472E48FE090E073
:1010C0000E9469192091FD043091FE044091FF04B3
:1010D00050910005620F731F841F951F6D8B7E8BCF
:1010E0008F8B988FBE016B5E7F4FC1010E94CF1422
:1010F000F101DE011196802F01900D928A95E1F7A2
:10110000FE013196DE011996802F01900D928A958D
:10111000E1F7FE013996AEE4B3E0802F01900D9225
:101120008A95E1F7111115C0498A5A8A6B8A7C8A1F
:101130006091A0037091A10380E090E00E9450189C
:10114000AB01BC0188E794E00E94A71688E794E011
:101150002FC01130A9F4898A9A8AAB8ABC8A60911F
:10116000A2037091A30380E090E00E945018AB01AD
:10117000BC0185E194E00E94A71685E194E018C0C7
:101180008FE296E6A2E7B0E0898B9A8BAB8BBC8BA3
:101190006091A4037091A50380E090E00E94501834
:1011A000AB01BC0182EB93E00E94A71682EB93E0B7
:1011B0000E9435170E941F18882777FD8095982F69
:1011C0000E945218609365037093660380936703CF
:1011D00090936803309257032092560366E473E0BD
:1011E0008CE393E00E9402071F5F133009F04ACF9F
:1011F00068960FB6F894DEBF0FBECDBFDF91CF91DA
:101200001F910F91FF90EF90DF90CF90BF90AF9024
:101210009F908F907F906F905F904F903F902F9016
:1012200008958F929F92AF92BF92DF92EF92FF92BA
:101230000F931F93CF93DF93C6EAD3E060EAE62EC5
:1012400063E0F62E09E613E0D12C0E946F0F888030
:101250009980AA80BB80681579058A059B0500F1F5
:10126000B501A4014D595F4F6F4F7F4F488359839C
:101270006A837B83D11006C080919F03823011F472
:101280000E9415080E94C915D0929F03F701118290
:10129000108240E050E06EE276E0C8010E94441601
:1012A000D3942496F2E0EF0EF11C0E5E1F4F83E004
:1012B000D812CBCFDF91CF911F910F91FF90EF907C
:1012C000DF90BF90AF909F908F900895EF92FF9224
:1012D0000F931F93CF93DF93EC011816190614F4A4
:1012E00060E001C061E0809102010E946C10809179
:1012F0003A0390913B038C0F9D1F20910601309182
:101300000701281739072CF430933B0320933A0345
:1013100038C08217930734F08091380390913903D5
:10132000019779F500E010E0EE24FF24EC1AFD0AA5
:10133000CE01D7FDC70108171907CCF460E08091F2
:1013400000010E946C1061E070E080E090E00E947B
:101350009E0F61E0809100010E946C1061E070E0DE
:1013600080E090E00E949E0F0F5F1F4FE1CF8091C1
:101370003A0390913B038C0F9D1F90933B03809306
:101380003A03DF91CF911F910F91FF90EF90089555
:1013900081E090E0909339038093380360E080917E
:1013A00004010E94331061E0809104010E946C10DE
:1013B00061E0809102010E94331061E080910001A0
:1013C0000E94331061E0809102010E946C1060E085
:1013D000809100010E946C1061E08DE00E946C1011
:1013E000809104010E94A210892B29F08CE99FEFC3
:1013F0000E946609F5CF109239031092380360E01D
:101400008DE00E946C106AE070E080E090E00E9445
:101410009E0F88EC90E00E94660910923B031092A8
:101420003A0308954091F1045091F2046091F3045D
:101430007091F4048091EF049091F0040E94F813ED
:10144000109296071092950710929807109297079E
:1014500010929C0710929B0710929A07109299077E
:101460000E9414070E949B070C94C809FC0182E2A9
:1014700093E0918380838BEC97E09383828340E0B9
:1014800051EE60E070E04483558366837783DF012B
:10149000AE54BD4F1C921E9682EF92E011969C9323
:1014A0008E9312961C92129718961C921E92179762
:1014B00019961C9219971F961C921E921E97509671
:1014C0001C92509754961C921E92539780E090E085
:1014D000DF01A80FB91FAC5BBD4F1D921C92029695
:1014E00082339105A9F780E090E0DF01A80FB91FD2
:1014F000AA58BD4F1D921C92029682339105A9F7FE
:1015000080E090E0DF01A80FB91F54961C9201966D
:10151000883121E09207B1F780E090E0DF01A80F69
:10152000B91FA45DBE4F1C920196883121E092073D
:10153000A9F708950F931F93CF93DF93CDB7DEB72D
:101540002A970FB6F894DEBF0FBECDBF8C018EEC8C
:1015500092E09A8389831B821C821D821E821F82D5
:10156000188619861A86D801ED91FC910190F081B8
:10157000E02DAE014F5F5F4F6AE070E0C801099552
:101580000E946F0FF80160877187828793872A9680
:101590000FB6F894DEBF0FBECDBFDF91CF911F9184
:1015A0000F9108954F925F926F927F928F929F92C8
:1015B000AF92BF92CF92DF92EF92FF920F931F9361
:1015C000CF93DF93CDB7DEB72E970FB6F894DEBF7B
:1015D0000FBECDBF8C018AED92E09A8389831C8275
:1015E0001B828CE992E09E838D8398878F839A87F4
:1015F00089871B861C861D861E86580182E3A80EDD
:10160000B11C7801E8E14E2E55245394612C712CC5
:101610006701ACEBCA1AADEFDA0AD601ED91FC9185
:101620003097B9F1848195819C838B8380819181EE
:101630009E838D8382819381DC01ED91FC910480F6
:10164000F581E02D099598878F83D601ED91FC9166
:1016500082819381DC01ED91FC910680F781E02D80
:1016600009959A8789874B865C866D867E86F80108
:1016700080819181F601A081B18118966D917C9154
:101680001997DC01ED91FC91AE014F5F5F4FC801EE
:101690000995B2E0EB0EF11CEA14FB0409F0B8CF97
:1016A000780178E1472E55245394612C712C670101
:1016B000EAE8CE1AEDEFDE0AF601A081B1811097BB
:1016C000E1F112968D919C9113979C838B831496D4
:1016D0008D919C9115979E838D83ED91FC9111972F
:1016E0000480F581E02DCD01099598878F83D6017F
:1016F0008D919C91DC01ED91FC910680F781E02DAC
:1017000009959A8789874B865C866D867E86D80187
:10171000ED91FC9180809180F60180819181DC01C6
:10172000ED91FC910280F381E02D0995AE014F5FB0
:101730005F4FBC01C801F4010995F2E0EF0EF11C06
:10174000EA14FB0409F0B3CFF801EE54FD4F81E039
:1017500080832E960FB6F894DEBF0FBECDBFDF910B
:10176000CF911F910F91FF90EF90DF90CF90BF909E
:10177000AF909F908F907F906F905F904F90089563
:101780008F929F92AF92BF92CF92DF92EF92FF9291
:101790000F931F93CF93DF93CDB7DEB72A970FB682
:1017A000F894DEBF0FBECDBF8C015B018EEC92E0E2
:1017B0009A8389831B821C821D821E821F82188647
:1017C00019861A860E946F0F6B017C01F8018085D3
:1017D0009185A285B385C81AD90AEA0AFB0AB50120
:1017E000CE0101960E94B000F8EE8F2EF3E09F2EFE
:1017F000A12CB12CC701B601A50194010E94A11929
:1018000069017A019B01AC018B819C81AD81BE8114
:101810008C0D9D1DAE1DBF1D8B839C83AD83BE8330
:1018200060E472E48FE090E00E946919CF80D88470
:10183000E984FA84C60ED71EE81EF91ECF82D88628
:10184000E986FA860E946F0FCB80DC80ED80FE80F7
:10185000F1E0CF1AD108E108F108A50194010E9436
:10186000A11949015A019B01AC01C818D908EA081D
:10187000FB08F801C486D586E686F786CF80D88433
:10188000E984FA84F6E3DF1AF5E6EF0AF4ECFF0ADE
:1018900060E472E48FE090E00E946919C61AD70AEA
:1018A000E80AF90AF801C08AD18AE28AF38AB80103
:1018B000605F7F4FC8010C960E94CF140E946F0F8B
:1018C000F801E954FD4F60837183828393832A96E4
:1018D0000FB6F894DEBF0FBECDBFDF91CF911F9141
:1018E0000F91FF90EF90DF90CF90BF90AF909F90BF
:1018F0008F9008952F923F924F925F926F927F92B6
:101900008F929F92AF92BF92CF92DF92EF92FF920F
:101910000F931F93CF93DF93CDB7DEB760970FB6CA
:10192000F894DEBF0FBECDBF4C010E946F0F6B015C
:101930007C01940129543D4F3E832D83F901808120
:101940009181A281B381A7019601281B390B4A0B13
:101950005B0BDA01C901893F9A42A105B10510F07C
:1019600035971082A40148555D4F588B4F87DA0197
:101970008D919C91892B79F0F401E554FD4F808184
:101980009181A281B3818C159D05AE05BF0518F428
:10199000FA01118210823401F0E56F1AFDEF7F0A1F
:1019A000940124553D4F3A832983A4014E545D4F41
:1019B00058874F832C5E3F4F3C872B87435F5F4F99
:1019C0005E874D87840106551D4F1601270154E19E
:1019D000250E311C411C511C540184E1A80EB11C80
:1019E000940122553D4F3C832B83A40145545D4F08
:1019F0005A874987D40112968D919C911397DC01E7
:101A0000ED91FC910680F781E02D09959C0197FDF1
:101A10002DC1F30180819181820F931F9183808377
:101A2000AF85B8894D915C9147305105E1F4EB8168
:101A3000FC8180819181AC014F5F5F4F5183408376
:101A4000F401E80FF91F248BD8018D919C91119717
:101A500001978D939C93892B09F0BECF28E030E04D
:101A6000EF85F88987C04115510519F52F3F3105DC
:101A700069F481E090E0AF85B8898D939C93E98506
:101A8000FA852082318242825382B4CF0E946F0F46
:101A90006C197D098E099F096630710581059105D4
:101AA00008F49ACFF401EE54FD4F10828EEF9FEFB1
:101AB00003C14130510599F42E3F310519F482E0FC
:101AC00090E02FC0EF85F88911821082AF81B88530
:101AD0008C91811181CFC4010E949A0A8BCF423030
:101AE000510589F4F80131832083AB81BC811D92BB
:101AF0001C9283E090E0EF85F88991838083D30185
:101B00002D933C9377CF4330510581F4322F222718
:101B1000F80180819181820F931F9183808384E0FB
:101B200090E0AF85B8898D939C9364CF4430510584
:101B300099F460E071E00E948D198F3F910539F4AE
:101B400085E090E0EF85F8899183808353CFAF855E
:101B5000B8891D921C924ECF4530510571F4E98130
:101B6000FA813183208386E090E0AF85B8898D9338
:101B70009C93F301318320833DCF46305105D1F44E
:101B8000322F2227A981BA818D919C911197820FC2
:101B9000931F8D939C9327E030E0EF85F889318384
:101BA0002083D8018D919C91892B09F015CF28E0D5
:101BB00030E0E0CF4830510509F00ECFAF85B8894D
:101BC0001D921C9260E071E00E948D198F3F91057B
:101BD00009F002CFA981BA81ED91FC913097B1F45F
:101BE000C4010E949A0AC4010E94D20AF401ED5471
:101BF000FD4FC082D182E282F382ED81FE81C082FC
:101C0000D182E282F3828FEF9FEF56C0EA30F10576
:101C100029F4B501C4010E94C00BECCEE630F105F9
:101C200051F4B5018B859C850E941C0581E0AD8532
:101C3000BE858C93DFCEEB30F10521F4EF81F88582
:101C40001082D8CEE952FF4FEE0FFF1FE80DF91DAD
:101C500080819181009709F4BFCEDC01ED91FC9168
:101C60000190F081E02DB5010995C4CEF401EE5448
:101C7000FD4F80818823F1F084010D541D4FF80140
:101C800080819181A281B381A7019601281B390B24
:101C90004A0B5B0BDA01C901853C9940A105B105EE
:101CA00048F0C4010E949A0AD801CD92DD92ED92CB
:101CB000FC92139780E090E060960FB6F894DEBF38
:101CC0000FBECDBFDF91CF911F910F91FF90EF908D
:101CD000DF90CF90BF90AF909F908F907F906F904C
:101CE0005F904F903F902F9008950E944C070E9464
:101CF00011098DEE94E00C947A0C8DEE94E00E9424
:101D0000360AEAEEF4E08EEF92E09183808310923F
:101D1000EC048DE992E09093E1048093E004F09369
:101D2000E304E093E2041092E9041092E8046AE00C
:101D300088E794E00E949C166AE085E194E00E94A6
:101D40009C166AE082EB93E00E949C1628EC30E03F
:101D500043E062E089E693E00E947C1528EC30E0E5
:101D600045E064E08BE793E00E947C1528EC30E0CE
:101D700047E066E08DE893E00E947C15E6E4F3E03E
:101D800086E193E0918380838AE093E09093490316
:101D90008093480310924A0310924B0310924C0315
:101DA00010924D0310924E0310924F031092500365
:101DB0001092510310925203109253031092540345
:101DC000109255038CE992E0909357038093560349
:101DD000109258031092590310925A0310925B0309
:101DE00010925C0310925D0310925E0310925F03E9
:101DF00010926003109261031092620310926303C9
:101E000010926403109265031092660310926703A8
:101E10001092680383EA92E090933D0380933C0321
:101E2000F0933F03E0933E03109245031092440366
:101E3000089582EB93E00E948A1685E194E00E9467
:101E40008A1688E794E00C948A161F920F920FB6B8
:101E50000F9211242F933F938F939F93AF93BF9330
:101E60008091C3079091C407A091C507B091C607A0
:101E70003091C20723E0230F2D3720F40196A11DD6
:101E8000B11D05C026E8230F0296A11DB11D2093A8
:101E9000C2078093C3079093C407A093C507B0936C
:101EA000C6078091C7079091C807A091C907B09154
:101EB000CA070196A11DB11D8093C7079093C8075B
:101EC000A093C907B093CA07BF91AF919F918F911B
:101ED0003F912F910F900FBE0F901F9018952FB725
:101EE000F8946091C3077091C4078091C5079091E1
:101EF000C6072FBF08953FB7F8948091C707909108
:101F0000C807A091C907B091CA0726B5A89B05C00C
:101F10002F3F19F00196A11DB11D3FBF6627782FF5
:101F2000892F9A2F620F711D811D911D42E0660F4E
:101F3000771F881F991F4A95D1F70895CF92DF9296
:101F4000EF92FF92CF93DF936B017C010E947B0F96
:101F5000EB01C114D104E104F10479F00E947B0F7C
:101F60006C1B7D0B683E7340A0F381E0C81AD1085A
:101F7000E108F108C851DC4FECCFDF91CF91FF9021
:101F8000EF90DF90CF9008950197009739F0880F78
:101F9000991F880F991F02970197F1F70895789478
:101FA00084B5826084BD84B5816084BD85B582605E
:101FB00085BD85B5816085BDEEE6F0E080818160FC
:101FC0008083E1E8F0E010828081826080838081FC
:101FD00081608083E0E8F0E0808181608083E1EBD4
:101FE000F0E0808184608083E0EBF0E080818160BC
:101FF0008083EAE7F0E08081846080838081826072
:10200000808380818160808380818068808310925A
:10201000C1000895833081F028F4813099F0823036
:10202000A1F008958630A9F08730B9F08430D1F45A
:10203000809180008F7D03C0809180008F77809396
:102040008000089584B58F7702C084B58F7D84BDEC
:1020500008958091B0008F7703C08091B0008F7D8C
:102060008093B0000895CF93DF9390E0FC01E45893
:10207000FF4F2491FC01E057FF4F8491882349F1E1
:1020800090E0880F991FFC01E854FF4FA591B4918F
:1020900082559F4FFC01C591D4919FB7611108C033
:1020A000F8948C91209582238C93888182230AC096
:1020B000623051F4F8948C91322F309583238C93B5
:1020C0008881822B888304C0F8948C91822B8C9316
:1020D0009FBFDF91CF9108950F931F93CF93DF930D
:1020E0001F92CDB7DEB7282F30E0F901E859FF4F36
:1020F0008491F901E458FF4F1491F901E057FF4F23
:1021000004910023C9F0882321F069830E940A10FA
:102110006981E02FF0E0EE0FFF1FE255FF4FA59120
:10212000B4919FB7F8948C91611103C010958123ED
:1021300001C0812B8C939FBF0F90DF91CF911F9196
:102140000F910895CF93DF93282F30E0F901E859DC
:10215000FF4F8491F901E458FF4FD491F901E05702
:10216000FF4FC491CC2391F081110E940A10EC2FF3
:10217000F0E0EE0FFF1FEC55FF4FA591B4912C91AD
:102180002D2381E090E021F480E002C080E090E027
:10219000DF91CF9108956F927F928F929F92AF922D
:1021A000BF92CF92DF92EF92FF920F931F93CF9344
:1021B000DF93EC01CB01209781F4DF91CF911F9148
:1021C0000F91FF90EF90DF90CF90BF90AF909F90D6
:1021D0008F907F906F900C94B411FE01E60FF71F63
:1021E0009E0122503109E217F30708F4ACC0D9016F
:1021F0000D911C91119706171707B8F005301105BE
:1022000008F49FC0A801445051094617570708F425
:1022100098C002501109061B170B019311936D937F
:102220007C93CF010E944C128CC05B01A01AB10AB2
:102230004E01800E911EA0917908B0917A08612C10
:10224000712C60E070E0109709F449C0A815B90539
:10225000C9F5ED90FC901197670142E0C40ED11CC6
:10226000CA14DB0478F147018A189B08640142E034
:10227000C40ED11C1296BC9012971396AC91B5E087
:10228000CB16D10440F0B282A38391828082D9011F
:102290008D939C9309C00E5F1F4F0E0D1F1DF901FA
:1022A00011830083EB2DFA2F6115710531F0DB01ED
:1022B0001396FC93EE93129744C0F0937A08E09340
:1022C00079083FC06D917C9111976616770608F4E6
:1022D0003B01BD0112960D90BC91A02DB4CF609131
:1022E00077087091780868157905E9F46816790619
:1022F000D0F440910D0150910E014115510541F46A
:102300004DB75EB76091110170911201461B570BDA
:10231000E417F507C0F4F0937808E0937708F90123
:10232000918380830EC00E94B4117C01009759F004
:10233000A801BE010E94B117CE010E944C12C70134
:1023400004C0CE0102C080E090E0DF91CF911F91E8
:102350000F91FF90EF90DF90CF90BF90AF909F9044
:102360008F907F906F900895CF93DF938230910587
:1023700010F482E090E0E0917908F0917A0820E092
:1023800030E0A0E0B0E0309739F14081518148174A
:102390005907B8F04817590771F482819381109753
:1023A00029F013969C938E9312972CC090937A08E1
:1023B0008093790827C02115310531F04217530762
:1023C00018F0A901DB0101C0EF019A01BD01DF0195
:1023D0000280F381E02DD7CF21153105F9F0281BBC
:1023E000390B2430310580F48A819B816115710598
:1023F00021F0FB019383828304C090937A08809339
:102400007908FE01329644C0FE01E20FF31F81936A
:10241000919322503109398328833AC0209177085B
:1024200030917808232B41F420910F013091100155
:10243000309378082093770820910D0130910E0198
:102440002115310541F42DB73EB74091110150914E
:102450001201241B350BE0917708F0917808E21700
:10246000F307A0F42E1B3F0B2817390778F0AC01B7
:102470004E5F5F4F2417350748F04E0F5F1F509394
:102480007808409377088193919302C0E0E0F0E0F0
:10249000CF01DF91CF910895CF93DF93009709F497
:1024A00087C0FC01329713821282C0917908D091C3
:1024B0007A08209781F420813181280F391F80917B
:1024C0007708909178088217930779F5F093780848
:1024D000E09377086DC0DE0120E030E0AE17BF0763
:1024E00050F412964D915C9113979D014115510541
:1024F00009F1DA01F3CFB383A28340815181840FC4
:10250000951F8A179B0771F48D919C911197840FE9
:10251000951F02969183808312968D919C911397BB
:10252000938382832115310529F4F0937A08E0938F
:1025300079083EC0D9011396FC93EE9312974D9102
:102540005D91A40FB51FEA17FB0779F48081918193
:10255000840F951F0296D90111969C938E938281C8
:10256000938113969C938E931297E0E0F0E08A811A
:102570009B81009719F0FE01EC01F9CFCE01029684
:1025800028813981820F931F209177083091780834
:102590002817390769F4309729F410927A081092B5
:1025A000790802C013821282D0937808C09377080A
:1025B000DF91CF9108950E94CF0F0E94120AC4EBC1
:1025C000D3E10E94750E2097E1F30E94B413F9CF76
:1025D000FC0124853585F901E05CFF4F8081918104
:1025E000329620813181821B930B8F739927089536
:1025F000FC0184859585FC01E05CFF4F40815181A1
:102600003296208131814217530741F00190F081C9
:10261000E02DE80FF91F808190E008958FEF9FEF84
:102620000895FC0184859585FC01E05CFF4F4081A5
:1026300051813296208131814217530779F0A08170
:10264000B181A80FB91F8C91208131812F5F3F4F3D
:102650002F7333273183208390E008958FEF9FEF0E
:102660000895FC0181A1882329F0A489B5898C9162
:1026700086FFFBCF11A20895CF93DF93FC0126853F
:102680003785D901A05CBF4F8D919C911197019620
:102690008F739927E901CE5BDF4F488159818417F9
:1026A0009507D9F30D90BC91A02DA20FB31F6C9389
:1026B000A685B785A05CBF4F11969C938E93A68983
:1026C000B7892C9181E090E0078C02C0880F991F98
:1026D0000A94E2F7282B2C9381E081A30488F589E2
:1026E000E02D80818064808381E090E0DF91CF9154
:1026F000089508951F920F920FB60F9211242F93F1
:102700003F934F938F939F93EF93FF938091C000DC
:1027100082FD1CC04091C6008091710890917208A2
:1027200001968F739927209173083091740882174E
:10273000930771F0E0917108F0917208EF5CF74F28
:102740004083909372088093710802C08091C60004
:10275000FF91EF919F918F914F913F912F910F900A
:102760000FBE0F901F9018958BEC97E00E94E81217
:10277000892B11F00C94791308951F920F920FB6C4
:102780000F9211242F933F938F939F93EF93FF9377
:1027900020912D0830912E0880912F0890913008BB
:1027A0002817390731F48091C1008F7D8093C100D3
:1027B00014C0E0912F08F0913008E351F84F2081C8
:1027C00080912F089091300801968F7399279093EC
:1027D000300880932F082093C600FF91EF919F91BE
:1027E0008F913F912F910F900FBE0F901F901895D2
:1027F000CF92DF92EF92FF92CF93DF93EC016A01C9
:102800007B01411581EE580761057105F9F0EC89EE
:10281000FD8981E090E008A002C0880F991F0A940A
:10282000E2F7808360E079E08DE390E0A701960114
:102830000E94A11921503109410951095695479526
:1028400037952795211580E1380798F0EC89FD89A7
:10285000108260E874E88EE190E0A70196010E9482
:10286000A1192150310941095109569547953795CC
:102870002795E889F9893083EA89FB89208319A2A1
:10288000EE89FF89408181E090E09C010C8C02C0C0
:10289000220F331F0A94E2F7422B4083EE89FF890F
:1028A00040819C010D8C02C0220F331F0A94E2F775
:1028B000422B4083EE89FF8940819C010E8C02C02F
:1028C000220F331F0A94E2F7422B4083EE89FF89DF
:1028D00020810F8C02C0880F991F0A94E2F780951F
:1028E00082238083DF91CF91FF90EF90DF90CF9094
:1028F00008951092CE071092CD0788EE93E0A0E0E5
:10290000B0E08093CF079093D007A093D107B09306
:10291000D2078CE293E09093CC078093CB0781E3BE
:1029200098E09093D8078093D7078DEE97E0909327
:10293000DA078093D90785EC90E09093DC078093C9
:10294000DB0784EC90E09093DE078093DD0780EC5A
:1029500090E09093E0078093DF0781EC90E0909304
:10296000E2078093E10782EC90E09093E407809384
:10297000E30786EC90E09093E6078093E50784E018
:102980008093E70783E08093E80787E08093E90777
:1029900085E08093EA0781E08093EB070895CF926A
:1029A000DF92EF92FF920F931F93CF93DF938C01EF
:1029B000EB01688179818A819B8120E03AEC4AE9C8
:1029C0005BE30E94A119F801C080D180E280F3800E
:1029D000C20ED31EE41EF51EC082D182E282F382B3
:1029E000688379838A839B83DF91CF911F910F91B5
:1029F000FF90EF90DF90CF9008950F931F93CF93A8
:102A0000DF93EC01EA85FB8580819C81892B8083A3
:102A1000EE81FF8190818C8180958923808384E081
:102A200090E00E94C40FEE81FF8180819C81892B00
:102A300080838AE090E00E94C40FEE81FF81908144
:102A40008C81809589238083EA85FB8590818C81A8
:102A5000809589238083E885F98580819D818923FC
:102A600011F080E032C00E947B0F4C855D858A01A9
:102A700020E030E00855194E2F4F3F4F060F171F2B
:102A8000281F391F0E871F87288B398BE885F9850A
:102A900080819D81892361F40E947B0F0E851F85B3
:102AA00028893989061717072807390778F7D9CFF2
:102AB0000E947B0F2C853D85620F731F811D911D28
:102AC0006E877F87888B998B81E0DF91CF911F91F3
:102AD0000F9108956F5F7F4F49E3469F9001479F95
:102AE000300D11242E384FE6340710F02DE83FE664
:102AF000FC013587248708950F931F93CF93DF93AD
:102B0000DC01062F10E0F801E458FF4FE491149621
:102B1000EC931497842F90E0FC01E458FF4FE4916C
:102B20001596EC93159700571F4FF801C491D0E00C
:102B3000CC0FDD1FC255DF4FFE0145915491179612
:102B40005C934E931697FC01E057FF4F849190E001
:102B5000880F991F8C559F4FFC01459154911996F0
:102B60005C934E931897F8010491E02FF0E0EE0F7C
:102B7000FF1FE854FF4F859194911B969C938E9371
:102B80001A97B901CD01DF91CF911F910F910C944C
:102B90006A15E0E7F0E080818D7F80830895CF9211
:102BA000DF92EF92FF920F931F93CF93DF93EC018D
:102BB0000E947B0F0E851F85288939890617170704
:102BC0002807390718F40E94C91525C0E885F9853A
:102BD00080819D818923F9F40E94C9150E947B0F91
:102BE0004C855D858A0120E030E0CE84DF84E88872
:102BF000F9880C191D092E093F090D5011092109E9
:102C00003109060F171F281F391F088319832A83CC
:102C10003B8381E001C080E0DF91CF911F910F9154
:102C2000FF90EF90DF90CF9008950E94C915E6EBDA
:102C3000F0E080818F7D808382E08093B00084E02B
:102C40008093B1001092B2000895CF93DF93EC010E
:102C500070937608609375080E941516CE019695BC
:102C600087959695879501978F3F910519F010F0FC
:102C70008FEF90E08093B30080917000826080932A
:102C80007000DF91CF9108950F931F93CF93DF933F
:102C9000EC018B014115510519F0BA010E946A152A
:102CA000CE010E94FD14882349F0B80188E190E02C
:102CB000DF91CF911F910F910C942516DF91CF9149
:102CC0001F910F9108951F920F920FB60F9211242A
:102CD0002F933F934F935F936F937F938F939F9324
:102CE000AF93BF93EF93FF93E0917508F09176084F
:102CF0000995FF91EF91BF91AF919F918F917F9136
:102D00006F915F914F913F912F910F900FBE0F9058
:102D10001F9018950895FC01128213821082318150
:102D2000482F282F241B231730F4FC01E05BFF4FB2
:102D300020830196F6CF0895662321F0643118F0C0
:102D400063E101C061E0FC0161830C948B16FC011E
:102D5000938181E0890F8383DF0124E0929FA00D9E
:102D6000B11D112414964D935D936D937C93179729
:102D70009181891708F013828281891710F48F5F7F
:102D80008283108208953F924F925F926F927F925A
:102D90008F929F92AF92BF92CF92DF92EF92FF926B
:102DA0000F931F93CF93DF93EC01EA80F12C57012F
:102DB00021E0A21AB108612C862D90E08A159B05AE
:102DC000A4F081E08883DF91CF911F910F91FF9054
:102DD000EF90DF90CF90BF90AF909F908F907F90BB
:102DE0006F905F904F903F9008957724739455248F
:102DF00053946701C81AD90A872D90E08C159D0558
:102E000084F58E01080F191F015B1F4FF8014080E8
:102E10008C0F9D1F4C01F0E58F0E911CF40130804A
:102E2000FE0124E0429EE00DF11D1124DE0184E04C
:102E3000389EA00DB11D112414962D913D914D91F8
:102E40005C91179764817581868197810E94021930
:102E500018162CF4F8013082F4014082512C73943E
:102E6000CBCF5110AECF6394A7CFCF93DF93EC01BC
:102E70008A81882309F443C08881811103C0CE016F
:102E80000E94C3169A81892F869590FF10C0FE017B
:102E9000E80FF11DE05BFF4F808124E0829FC00DB1
:102EA000D11D11246C817D818E819F812CC09E015A
:102EB000280F311DC901F901E05BFF4F2081FE01A0
:102EC00034E0239FE00DF11D1124DC01A15BBF4F15
:102ED0008C9194E0899FC00DD11D11242C813D81DE
:102EE0004E815F8164817581868197810E94BB17C5
:102EF00020E030E040E05FE30E94061904C060E09B
:102F000070E080EC9FE7DF91CF910895CF92DF9240
:102F1000EF92FF920F931F93CF93DF936C017A018F
:102F2000EB01E60EF71E00E010E0CE15DF0561F0C4
:102F30006991D601ED91FC910190F081E02DC601DF
:102F40000995080F191FF1CFC801DF91CF911F918B
:102F50000F91FF90EF90DF90CF900895F8940C942C
:102F6000E319FB01DC0102C001900D924150504079
:102F7000D8F708955058BB27AA270ED009C1FAD018
:102F800030F0FFD020F031F49F3F11F41EF4EFC079
:102F90000EF4E095E7FBE5C0E92F0BD180F3BA17FB
:102FA000620773078407950718F071F49EF523C133
:102FB0000EF4E0950B2EBA2FA02D0B01B901900154
:102FC0000C01CA01A0011124FF27591B99F0593F98
:102FD00050F4503E68F11A16F040A22F232F342FE0
:102FE0004427585FF3CF469537952795A795F0402E
:102FF0005395C9F77EF41F16BA0B620B730B840B43
:10300000BAF09150A1F0FF0FBB1F661F771F881FFA
:10301000C2F70EC0BA0F621F731F841F48F4879552
:1030200077956795B795F7959E3F08F0B3CF939541
:10303000880F08F09927EE0F97958795089504D08B
:103040006894B111D9C00895BCD088F09F5790F012
:10305000B92F9927B751A0F0D1F0660F771F881FBD
:10306000991F1AF0BA95C9F712C0B13081F0C3D0D8
:10307000B1E00895C0C0672F782F8827B85F39F076
:10308000B93FCCF3869577956795B395D9F73EF41C
:1030900090958095709561957F4F8F4F9F4F0895C4
:1030A000E89409C097FB3EF49095809570956195E2
:1030B0007F4F8F4F9F4F9923A9F0F92F96E9BB2798
:1030C0009395F695879577956795B795F111F8CF14
:1030D000FAF4BB0F11F460FF1BC06F5F7F4F8F4F7F
:1030E0009F4F16C0882311F096E911C0772321F075
:1030F0009EE8872F762F05C0662371F096E8862F0D
:1031000070E060E02AF09A95660F771F881FDAF763
:10311000880F9695879597F90895990F0008550F90
:10312000AA0BE0E8FEEF16161706E807F907C0F04D
:1031300012161306E407F50798F0621B730B840B55
:10314000950B39F40A2661F0232B242B252B21F42F
:1031500008950A2609F4A140A6958FEF811D811DCF
:10316000089597F99F6780E870E060E008959FEF09
:1031700080EC089500240A9416161706180609060E
:10318000089500240A9412161306140605060895DD
:10319000092E0394000C11F4882352F0BB0F40F465
:1031A000BF2B11F460FF04C06F5F7F4F8F4F9F4FA5
:1031B000089557FD9058440F551F59F05F3F71F027
:1031C0004795880F97FB991F61F09F3F79F087958E
:1031D0000895121613061406551FF2CF4695F1DF17
:1031E00008C0161617061806991FF1CF86957105A7
:1031F000610508940895E894BB2766277727CB01DB
:1032000097F908958ADF08F48FEF08950BD0C0CFA7
:10321000B1DF28F0B6DF18F0952309F0A2CFA7CFD1
:103220001124EACFC6DFA0F3959FD1F3950F50E0AC
:10323000551F629FF001729FBB27F00DB11D639F68
:10324000AA27F00DB11DAA1F649F6627B00DA11D0E
:10325000661F829F2227B00DA11D621F739FB00DB4
:10326000A11D621F839FA00D611D221F749F332724
:10327000A00D611D231F849F600D211D822F762FBD
:103280006A2F11249F5750408AF0E1F088234AF0BA
:10329000EE0FFF1FBB1F661F771F881F9150504006
:1032A000A9F79E3F510570F05CCFA6CF5F3FECF3CE
:1032B000983EDCF3869577956795B795F795E795F2
:1032C0009F5FC1F7FE2B880F911D9695879597F903
:1032D0000895DB018F939F930E94C319BF91AF9113
:1032E000A29F800D911DA39F900DB29F900D112460
:1032F0000895AA1BBB1B51E107C0AA1FBB1FA6173D
:10330000B70710F0A61BB70B881F991F5A95A9F78E
:1033100080959095BC01CD01089597FB072E16F47A
:10332000009407D077FD09D00E94791907FC05D0D9
:103330003EF4909581959F4F0895709561957F4FCC
:103340000895A1E21A2EAA1BBB1BFD010DC0AA1FE6
:10335000BB1FEE1FFF1FA217B307E407F50720F0FE
:10336000A21BB30BE40BF50B661F771F881F991F79
:103370001A9469F760957095809590959B01AC01C2
:10338000BD01CF0108950E94D419A59F900DB49F4F
:10339000900DA49F800D911D11240895EE0FFF1F25
:1033A0000590F491E02D0994A29FB001B39FC00154
:1033B000A39F700D811D1124911DB29F700D811D61
:1033C0001124911D089510E0C6ECD0E004C0FE0168
:1033D0000E94D0192296C83CD107C9F7F894FFCFB4
:1033E000130012001100D007013200000000007B22
:1033F0000880007374645F6D7367732F54696D6523
:1034000000636437313636633734633535326333BE
:1034100031316662636332666535613762633238C3
:103420003900726F7373657269616C5F6D73677376
:103430002F546F706963496E666F00306164353177
:10344000663838666334343839326638633130363A
:10345000383430373736343630303500726F737366
:10346000657269616C5F6D7367732F4C6F670031B4
:103470003161626437333163323539333332363157
:103480006364363138336264313264363239350040
:1034900039663065393862646136353938313938E2
:1034A000366464663533616661376134306534395A
:1034B000007374645F6D7367732F426F6F6C0038B5
:1034C0006239346331623533646236316662366143
:1034D00065643430363032386164363333326100FB
:1034E0007374645F6D7367732F4865616465720000
:1034F00032313736646563616563626365373861AD
:103500006263336239366566303439666162656498
:103510000073656E736F725F6D7367732F52616EA8
:103520006765006330303563333432373364633476
:103530003236633637613032306138376263323465
:10354000313438004D6573736167652066726F6D45
:10355000206465766963652064726F707065643A93
:10356000206D657373616765206C61726765722099
:103570007468616E206275666665722E002F7069D0
:103580006E670072616E67655F6461746100726F7F
:103590007373657269616C5F6D7367732F526571C8
:1035A00075657374506172616D00000000008E00DB
:1035B000B000F600F900000000003403FC00D40164
:1035C000D70100000000BC03DA011E022102000046
:1035D0000000E8031C0524022702000000002A0264
:1035E000310238023B020000000090043E02CB0290
:1035F000CE0200000000E804D10229032C030000E1
:1036000000005C067A0C2F03000000003C138617B4
:08361000E8121113F812311346
:00000001FF
