:100000000C9463000C948B000C948B000C948B006C
:100010000C948B000C948B000C948B000C94911519
:100020000C948B000C948B000C948B000C948B0024
:100030000C948B000C948B000C948B000C948B0014
:100040000C94C50E0C948B000C94FF120C9442136C
:100050000C948B000C948B000C948B000C948B00F4
:100060000C948B000C948B00000000070002010030
:100070000003040600000000000000000102040864
:100080001020408001020408102001020408102002
:10009000040404040404040402020202020203032E
:1000A00003030303000000002300260029000000D2
:1000B0000000250028002B0000000000240027007D
:1000C0002A00AE0DFE1311241FBECFEFD8E0DEBF15
:1000D000CDBF13E0A0E0B1E0EAEFFEE202C0059080
:1000E0000D92A639B107D9F727E0A6E9B3E001C020
:1000F0001D92AE3CB207E1F710E0C6ECD0E004C0C0
:100100002297FE010E946817C23CD107C9F70E94DE
:1001100019120C94E0150C940000FC01DB018281A3
:100120008C93838111968C931197848112968C9372
:100130001297858113968C931397868114968C93CE
:100140001497878115968C931597808516968C93B6
:100150001697818517968C9388E090E00895FC01AE
:10016000DB014C9150E060E070E042835383648394
:10017000758311968C911197582B42835383648316
:10018000758312968C911297682B428353836483F4
:10019000758313968C911397782B428353836483D2
:1001A000758314964C91149750E060E070E046839C
:1001B00057836087718715968C911597582B4683C6
:1001C00057836087718716968C911697682B4683A4
:1001D00057836087718717968C91782B4683578356
:1001E0006087718788E090E0089580E191E008954C
:1001F0008EE191E008956F927F928F929F92AF92DD
:10020000BF92CF92DF92EF92FF920F931F93CF9303
:10021000DF93FC01DB018C9190E093838283119644
:100220002C911197922B9383828312964D915D911D
:100230006D917C9115975D0186E0A80EB11C8A0135
:100240009B010A5F1F4F2F4F3F4F6501CA1ADB0A00
:10025000E12CF12CC016D106E206F30640F4E501CC
:10026000F9905E01CE010297EC01F882EECFED012C
:10027000C40FD51F1D82CD01059695838483ED01A2
:10028000C40FD51FCE80DF80E884F984465F5F4FBE
:100290003D01640E751E8A01222717FD2095322F1D
:1002A0000C0D1D1D2E1D3F1D43018A1A9B0AA12CFA
:1002B000B12C80169106A206B30640F4E3016991C1
:1002C0003E01CE010297EC016883EECFC40ED51E2D
:1002D0009D012C0D3D1DC9010197EC011882415073
:1002E00051094A0F5B1F57834683E9010881198131
:1002F0002A813B81D4E0CD0ED11C3D016C0C7D1CCC
:10030000A601662757FD6095762F400F511F621F8B
:10031000731F43018A1A9B0AA12CB12C84169506DF
:10032000A606B70640F4E301F9903E01CE0102971C
:10033000EC01F882EECF0C0D1D1D9D01200F311F29
:10034000C9010197EC011882D1E0CD1AD108CA0E7B
:10035000DB1ED186C086D90111968C911197129619
:100360004C91129750E060E070E0BA0155274427A5
:10037000582B8C91482B13968C91782B428753875E
:1003800064877587C8010496DF91CF911F910F9103
:10039000FF90EF90DF90CF90BF90AF909F908F90A5
:1003A0007F906F9008958FE391E0089588E591E044
:1003B0000895AF92BF92CF92DF92EF92FF921F9378
:1003C000CF93DF939C01FB018081D90112968C931E
:1003D00081819281A381B4815B01C5E0AC0EB11C27
:1003E000AC01BD014B5F5F4F6F4F7F4F6501CE1A70
:1003F000DF0AE12CF12CC416D506E606F70650F408
:10040000E501D9905E017E01D2E0ED1AF108E70125
:10041000D882ECCFEF01C80FD91F1C823496E901B6
:10042000FC83EB830596DF91CF911F91FF90EF90B6
:10043000DF90CF90BF90AF90089589E791E0089545
:100440008CE891E0089584EF92E008958DEA91E0C0
:100450000895FC018281FB01808381E090E0089592
:10046000FB012081FC01228381E090E008958EEC65
:1004700091E008958CED91E00895FC012281838143
:10048000FB012083818382E090E00895FB012181BC
:1004900030E0322F22274081242BFC01338322833A
:1004A00082E090E008958DEF91E008958CE092E075
:1004B0000895CF92DF92EF92FF920F931F93CF9305
:1004C000DF938C01EB01888190E0A0E0B0E0F801BF
:1004D00082839383A483B5832981922B8283938320
:1004E000A483B5832A81A22B82839383A483B583BB
:1004F0002B81B22B82839383A483B5838C8190E07C
:10050000A0E0B0E086839783A087B1872D81922BEE
:1005100086839783A087B1872E81A22B86839783BA
:10052000A087B1872F81B22B86839783A087B1875D
:10053000488550E060E070E04287538764877587A4
:100540008985582B42875387648775878A85682BEE
:1005500042875387648775878B85782B42875387BB
:10056000648775878C859D85AE85BF859E01205FDC
:100570003F4FAC01BD01405F5F4F6F4F7F4F69013F
:10058000CC1ADD0AE12CF12CC416D506E606F706D6
:1005900050F4F901D1909F017F01F2E0EF1AF108C8
:1005A000F701D082ECCF9E01280F391FF901178681
:1005B0002F96F801D787C6874096DF91CF911F917C
:1005C0000F91FF90EF90DF90CF9008958DE292E031
:1005D00008958DE392E008950F931F93CF93DF93D7
:1005E000EC018B0102960E945902F801E80FF91FF5
:1005F00020812A8B2281438150E060E070E0BA01C3
:1006000055274427522B2181422B2481722B4B8B5F
:100610005C8B6D8B7E8B2681478150E060E070E0C3
:10062000BA0155274427522B2581422B2085722B56
:100630004F8B588F698F7A8F2285438550E060E019
:1006400070E0BA0155274427522B2185422B24857F
:10065000722B4B8F5C8F6D8F7E8F2685478550E088
:1006600060E070E0BA0155274427522B2585422BC4
:100670002089722B4F8F58A369A37AA34196DF91EB
:10068000CF911F910F9108958EE592E0089580E734
:1006900092E008950F931F93CF93DF93EC018C01A9
:1006A0000A5F1F4FC8010E944602EA85FB85C80108
:1006B000DF91CF911F910F910994FC01848595855D
:1006C00008958DEF91E008958CE092E008958E54A6
:1006D0009D4FFC0180810895AF92BF92CF92DF922F
:1006E000EF92FF920F931F93CF93DF93EC017B0167
:1006F0008A81DB018C938B8111968C93EC81FD8137
:10070000DF010D900020E9F7CD0101976C01CE1AB1
:10071000DF0AC601A0E0B0E0FB0182839383A483DB
:10072000B5836C817D81A601C70106960E94E31501
:10073000EE81FF81DF010D900020E9F7CD010197E7
:100740005C01AE1ABF0AF701EC0DFD1D850120E02A
:1007500030E006831783208731879AE0C90ED11CC9
:100760006E817F81A501C7018C0D9D1D0E94E3153F
:10077000CA0CDB1CE885F985DF010D900020E9F744
:10078000CD0101975C01AE1ABF0AF701EC0DFD1D0A
:10079000850120E030E0008311832283338394E0DD
:1007A000C90ED11C68857985A501C7018C0D9D1DD9
:1007B0000E94E315AC0CBD1C3A852B859C858D856C
:1007C000F701EA0DFB1D3083218392838383C501EA
:1007D0000496DF91CF911F910F91FF90EF90DF90E2
:1007E000CF90BF90AF9008950F931F93CF93DF9357
:1007F000DC01FB0112968C911297808313968D91E8
:100800009C911497EC0109900020E9F72197C81BEF
:10081000D90B8E0120E030E00183128323833483DF
:1008200013966D917C911497AE01CF0105960E94AD
:10083000E315CE010596DF91CF911F910F91089599
:10084000BF92CF92DF92EF92FF920F931F93CF93BD
:10085000DF93EC017B018A81DB018C9311961C9262
:10086000119712961C92129713961C92FB013796C1
:1008700040E024E030E05A81C90104964517E0F4D5
:10088000AF81B88524E0429FA00DB11D11246C9169
:1008900011965C91119712963C91129713962C9198
:1008A000DF0113976C9311965C9311963C93208310
:1008B0009C014F5F3496DFCF4985F701E20FF31FAC
:1008C000408311821282138220E03985F701E80FFC
:1008D000F91F04962317B0F4AE85BF8534E0239F3B
:1008E000A00DB11D11246C9111965C911197129677
:1008F0004C91129713963C916083518342833383CA
:100900002F5FE3CF28892083118212821382B12CBA
:100910002889B21698F54B2D50E0440F551FEB89EE
:10092000FC89E40FF51F0190F081E02DDF010D90AF
:100930000020E9F79D01215031096901CE1ADF0A33
:10094000F701E80FF91F860120E030E000831183F2
:10095000228333838C010C5F1F4FEB89FC89E40FEA
:10096000F51F60817181A601C701800F911F0E9450
:10097000E315C601800F911FB394CACFDF91CF91C9
:100980001F910F91FF90EF90DF90CF90BF9008954F
:100990000F931F93CF93DF93DC01FB0112968C9191
:1009A0001297808313968C911397818314968C9160
:1009B0001497828315968C911597838316968C9144
:1009C0001697848317968C911797858318968C9128
:1009D0001897868319968C91199787831A968C910C
:1009E0001A9780871B968C911B9781871C968C91F8
:1009F0001C9782871D968C911D9783871E968D91DB
:100A00009C911F97EC0109900020E9F72197C81BE2
:100A1000D90B8E0120E030E00487158726873787C1
:100A20001E966D917C911F97AE01CF0140960E945A
:100A3000E315CE014096DF91CF911F910F9108955C
:100A40000F931F93CF93DF93EC018B0102960E94CB
:100A5000C8042A89F801E80FF91F20835B894C89B3
:100A60003D892E8951834283338324835F89488D56
:100A7000398D2A8D55834683378320875B8D4C8D36
:100A80003D8D2E8D51874287338724875F8D48A106
:100A900039A12AA1558746873787208B4196DF9158
:100AA000CF911F910F9108954F925F927F928F92F5
:100AB0009F92AF92BF92CF92DF92EF92FF920F93ED
:100AC0001F93CF93DF93EC018B01DB01FC908A81B4
:100AD0008F1550F4B4E0FB9EB00111248F819885EE
:100AE0000E94091098878F83FA82F8013796F12CBB
:100AF00044E050E09E012D5F3F4F8A81BA016C5F58
:100B00007F4F6B01F81660F5408150E060E070E0C7
:100B1000742F662755274427DF0113978C91482BA4
:100B200011968C91582B11968C91682B4B835C837A
:100B30006D837E83A6016F81788584E0F89E600DC9
:100B4000711D1124D9018D909D90AD90BC90DB0159
:100B50008D929D92AD92BC921397F3943496CDCF23
:100B6000F801E40FF51FF08089858F1550F484E0BB
:100B7000F89EB00111248E859F850E9409109F87E1
:100B80008E879601F98680E0FE013A969985D80114
:100B9000A20FB31FA9014C5F5F4F6A01891748F587
:100BA00011969C91119712964C91129750E060E02B
:100BB00070E0BA0155274427592B9C91492B139675
:100BC0009C91792B4A875B876C877D879601AE85E0
:100BD000BF8594E0899FA00DB11D112440815181F2
:100BE000628173814D935D936D937C9313978F5FB7
:100BF000CDCFFC9088898F1550F46F2D70E0660F73
:100C0000771F8B899C890E9409109C8B8B8BC60156
:100C1000F88A712C2E0151E1450E511C288972165B
:100C200008F044C0F801E80FF91FC080D180E280CD
:100C3000F3800496F801E80FF91FAC01662757FD11
:100C40006095762F4C0D5D1D6E1D7F1D9F01201B35
:100C5000310B4901A12CB12C84169506A606B706C6
:100C600038F4B1909F0122503109D901BC92EECFE6
:100C7000C80ED91EF801EC0DFD1D319710829C01A4
:100C800021503109200F311F3A8B298BC6013B8936
:100C90002C89E32FF22FE70DF11DE70DF11DD20195
:100CA0002D913C91318320837394B8CFDF91CF9104
:100CB0001F910F91FF90EF90DF90CF90BF90AF907A
:100CC0009F908F907F905F904F900895AF92BF92CA
:100CD000CF92DF92EF92FF920F931F93CF93DF9308
:100CE00000D000D01F92CDB7DEB78C016B01643607
:100CF00071053CF0FC01EE54FD4F8081882309F41E
:100D000079C0DA01ED91FC910190F081E02DB801FC
:100D10006D5C7E4FCA0109957C015801B4EDAB1A98
:100D2000BEEFBB0A2FEFF50120832EEF3196208313
:100D30003196808331969083890F80953196808398
:100D40003196C0823196D08285E090E020E030E09C
:100D5000A701495F5F4F8417950750F4F801E80F2A
:100D6000F91FE45DFE4F6081260F311D0196F3CF20
:100D7000F8E0EF0EF11C400F511FFA01E45DFE4F49
:100D80002095208329E1E21621E0F206C8F46501EE
:100D9000C6018A199B098E159F0584F4D801129605
:100DA0008D919C911397F60161916F01DC01ED919A
:100DB000FC910190F081E02D0995EACFC7011CC09C
:100DC0008CE293E09A83898383E08B8381E992E0CC
:100DD0009D838C83D801ED91FC910190F081E02DF1
:100DE000AE014F5F5F4F67E070E0C80109958FEF7C
:100DF0009FEF02C080E090E00F900F900F900F9057
:100E00000F90DF91CF911F910F91FF90EF90DF90A6
:100E1000CF90BF90AF900895CF93DF93AB01EC01DB
:100E2000AE81BF81ED91FC9111976C817D81019024
:100E3000F081E02DCD01DF91CF9109943F924F9247
:100E40005F926F927F928F929F92AF92BF92CF925A
:100E5000DF92EF92FF920F931F93CF93DF93CDB763
:100E6000DEB766970FB6F894DEBF0FBECDBF809198
:100E70001904882309F473C080911904882309F4A4
:100E8000F0C00E940F0F28EE33E040E050E00E94D7
:100E90001A1769017A019B01AC0180914C04909171
:100EA0004D04A0914E04B0914F048C0D9D1DAE1DBC
:100EB000BF1D89879A87AB87BC8760E472E48FE0A7
:100EC00090E00E94E216009150041091510420918C
:100ED000520430915304600F711F821F931F6D875E
:100EE0007E878F87988BBE01635F7F4FCE01099607
:100EF0000E94541488E0FE013996DE01119601909B
:100F00000D928A95E1F788E0FE013196DE0119968F
:100F100001900D928A95E1F788E0FE013996A8ECE0
:100F2000B3E001900D928A95E1F7EBE1F4E0FE8BDE
:100F3000ED8B312C8E010F5E1F4F86E6C82E82E7A7
:100F4000D82EE12CF12C96E6892E982CA12CB12CD0
:100F500026E6422E2CE6522E612C712C74C007E23C
:100F600014E033EEC32E33E0D32E4BE1E42E44E005
:100F7000F42EA12CBB24B3940E940F0FF8014080E3
:100F8000518062807380641575058605970500F1B0
:100F9000B301A2014D595F4F6F4F7F4F4083518383
:100FA00062837383A11006C080911A04823011F409
:100FB000B0921904A0921A0460E070E0C6010E9489
:100FC00083150E945416F701608371838283938393
:100FD000A3940C5F1F4FF2E1CF0ED11C84E0E80E0A
:100FE000F11C93E0A912C8CF47CFF1E03F1233C004
:100FF000F80180829182A282B382ED89FE8961919B
:10100000719181919191FE8BED8B20E030E048EC65
:1010100052E40E94EC156093DF037093E003809329
:10102000E1039093E2031093D1030093D00360ECAB
:1010300073E086EB93E00E940C071092190433943E
:10104000F3E03F1671F03110D0CFF80140825182A9
:1010500062827382D2CFF801C082D182E282F382AF
:10106000CCCF66960FB6F894DEBF0FBECDBFDF9132
:10107000CF911F910F91FF90EF90DF90CF90BF9095
:10108000AF909F908F907F906F905F904F903F9028
:101090000895EF92FF920F931F93CF93DF93EC018C
:1010A0001816190614F460E001C061E08091060191
:1010B0000E94D30F8091B4039091B5038C0F9D1FB4
:1010C0002091080130910901281739072CF4309339
:1010D000B5032093B40338C08217930734F080918E
:1010E000B2039091B303019779F500E010E0EE248C
:1010F000FF24EC1AFD0ACE01D7FDC7010817190716
:10110000CCF460E0809104010E94D30F61E070E0B4
:1011100080E090E00E943E0F61E0809104010E9417
:10112000D30F61E070E080E090E00E943E0F0F5F1F
:101130001F4FE1CF8091B4039091B5038C0F9D1F99
:101140009093B5038093B403DF91CF911F910F91DA
:10115000FF90EF9008954F925F92AF92BF92CF921F
:10116000DF92EF92FF920F931F93FC014280538016
:10117000B201882777FD8095982F20910801309142
:1011800009016901EE24D7FCE094FE2CFF92EF9256
:10119000DF92CF92A12CB12C65011DE8E12E17E062
:1011A000F12E00E010E029E234E040E050E00E943F
:1011B00026126B017C018091B4039091B5030F90CE
:1011C0000F900F900F90C816D9064CF48091B4037D
:1011D0009091B5039601281B390BC90108C0809175
:1011E000B4039091B503F601E81BF90BCF010E94FF
:1011F0004908D092B103C092B0036EEA73E084EA6A
:1012000093E01F910F91FF90EF90DF90CF90BF90F0
:10121000AF905F904F900C940C07AC0120E030E051
:10122000FA01EC5BFD4F0190F081E02DEF2B91F482
:10123000F901EE5DFE4FEE0FFF1FE80FF91F7183FE
:10124000608323583F4FFB01358324839783868334
:1012500081E008952F5F3F4F4E5F5F4F2931310589
:10126000F9F680E008950F931F9381E08093D203F5
:1012700088EB9EE1A5E8BEE38093D3039093D4036B
:10128000A093D503B093D6038FE892ECA5EFBCE30F
:101290008093D7039093D803A093D903B093DA0334
:1012A00080E090E0A0E0B0E48093DB039093DC0367
:1012B000A093DD03B093DE0366EB73E080E494E07B
:1012C0000E940D090E940F0F8B019C01055B1F4FAF
:1012D0002F4F3F4F00932704109328042093290495
:1012E00030932A048B019C0104591F4F2F4F3F4F0D
:1012F00000932B0410932C0420932D0430932E0480
:10130000DC01CB0183579F4FAF4FBF4F80932F041A
:1013100090933004A0933104B09332041F910F9145
:1013200008954091440450914504609146047091A1
:10133000470480914204909143040E947D131092CF
:10134000E9061092E8061092EB061092EA06109257
:10135000EF061092EE061092ED061092EC06E6EB08
:10136000F6E080E090E021913191232B81F4FC01A3
:10137000EE0FFF1FEA54F94F26E933E03183208353
:101380008C599F4F909399038093980304C00196C2
:101390008931910541F70C9433090F931F93CF9333
:1013A000DF93CDB7DEB72A970FB6F894DEBF0FBE36
:1013B000CDBF8C0184E193E09A8389831B821C82D8
:1013C0001D821E821F82188619861A86D801ED9109
:1013D000FC910190F081E02DAE014F5F5F4F6AE01C
:1013E00070E0C80109950E940F0FF80160877187AE
:1013F000828793872A960FB6F894DEBF0FBECDBFC3
:10140000DF91CF911F910F9108954F925F926F924C
:101410007F928F929F92AF92BF92CF92DF92EF9284
:10142000FF920F931F93CF93DF93CDB7DEB72E9725
:101430000FB6F894DEBF0FBECDBF8C0180E293E003
:101440009A8389831C821B8289EC92E09E838D8320
:1014500098878F839A8789871B861C861D861E86A0
:10146000580182E3A80EB11C780198E1492E552459
:101470005394612C712C6701ACEBCA1AADEFDA0AF8
:10148000D601ED91FC913097B9F1848195819C83CF
:101490008B83808191819E838D8382819381DC0106
:1014A000ED91FC910480F581E02D099598878F835B
:1014B000D601ED91FC9182819381DC01ED91FC914B
:1014C0000680F781E02D09959A8789874B865C868F
:1014D0006D867E86F80180819181F601A081B181BF
:1014E00018966D917C911997DC01ED91FC91AE01FC
:1014F0004F5F5F4FC8010995B2E0EB0EF11CEA1493
:10150000FB0409F0B8CF780188E1482E55245394A4
:10151000612C712C6701EAE8CE1AEDEFDE0AF601C4
:10152000A081B1811097E1F112968D919C91139752
:101530009C838B8314968D919C9115979E838D83AC
:10154000ED91FC9111970480F581E02DCD01099575
:1015500098878F83D6018D919C91DC01ED91FC9150
:101560000680F781E02D09959A8789874B865C86EE
:101570006D867E86D801ED91FC9180809180F60188
:1015800080819181DC01ED91FC910280F381E02D5D
:101590000995AE014F5F5F4FBC01C801F401099589
:1015A000F2E0EF0EF11CEA14FB0409F0B3CFF801EE
:1015B000EE54FD4F81E080832E960FB6F894DEBF87
:1015C0000FBECDBFDF91CF911F910F91FF90EF9094
:1015D000DF90CF90BF90AF909F908F907F906F9053
:1015E0005F904F9008958F929F92AF92BF92CF924B
:1015F000DF92EF92FF920F931F93CF93DF93CDB7BC
:10160000DEB72A970FB6F894DEBF0FBECDBF8C01B0
:101610005B0184E193E09A8389831B821C821D8293
:101620001E821F82188619861A860E940F0F6B0170
:101630007C01F80180859185A285B385C81AD90AF5
:10164000EA0AFB0AB501CE0101960E94AF0028EE1E
:10165000822E23E0922EA12CB12CC701B601A50148
:1016600094010E941A1769017A019B01AC018B81D8
:101670009C81AD81BE818C0D9D1DAE1DBF1D8B83D8
:101680009C83AD83BE8360E472E48FE090E00E94AF
:10169000E216CF80D884E984FA84C60ED71EE81EED
:1016A000F91ECF82D886E986FA860E940F0FCB807A
:1016B000DC80ED80FE80F1E0CF1AD108E108F1086E
:1016C000A50194010E941A1749015A019B01AC011E
:1016D000C818D908EA08FB08F801C486D586E6864A
:1016E000F786CF80D884E984FA84F6E3DF1AF5E63A
:1016F000EF0AF4ECFF0A60E472E48FE090E00E94ED
:10170000E216C61AD70AE80AF90AF801C08AD18A8D
:10171000E28AF38AB801605F7F4FC8010C960E948D
:1017200054140E940F0FF801E954FD4F6083718338
:10173000828393832A960FB6F894DEBF0FBECDBF87
:10174000DF91CF911F910F91FF90EF90DF90CF909D
:10175000BF90AF909F908F9008952F923F924F929D
:101760005F926F927F928F929F92AF92BF92CF9231
:10177000DF92EF92FF920F931F93CF93DF93CDB73A
:10178000DEB760970FB6F894DEBF0FBECDBF4C0139
:101790000E940F0F6B017C01940129543D4F3E8341
:1017A0002D83F90180819181A281B381A7019601E6
:1017B000281B390B4A0B5B0BDA01C901893F9A429E
:1017C000A105B10510F035971082A40148555D4F71
:1017D000588B4F87DA018D919C91892B79F0F40118
:1017E000E554FD4F80819181A281B3818C159D05C7
:1017F000AE05BF0518F4FA01118210823401F0E53C
:101800006F1AFDEF7F0A940124553D4F3A832983D7
:10181000A4014E545D4F58874F832C5E3F4F3C8749
:101820002B87435F5F4F5E874D87840106551D4FB1
:101830001601270154E1250E311C411C511C540195
:1018400084E1A80EB11C940122553D4F3C832B83AB
:10185000A40145545D4F5A874987D40112968D9152
:101860009C911397DC01ED91FC910680F781E02DAE
:1018700009959C0197FD2DC1F30180819181820F13
:10188000931F91838083AF85B8894D915C914730D8
:101890005105E1F4EB81FC8180819181AC014F5FC6
:1018A0005F4F51834083F401E80FF91F248BD80167
:1018B0008D919C91119701978D939C93892B09F0A1
:1018C000BECF28E030E0EF85F88987C0411551058B
:1018D00019F52F3F310569F481E090E0AF85B889B3
:1018E0008D939C93E985FA852082318242825382CE
:1018F000B4CF0E940F0F6C197D098E099F096630C5
:1019000071058105910508F49ACFF401EE54FD4F5D
:1019100010828EEF9FEF03C14130510599F42E3FA5
:10192000310519F482E090E02FC0EF85F88911822B
:101930001082AF81B8858C91811181CFC4010E9442
:10194000CD098BCF4230510589F4F80131832083D2
:10195000AB81BC811D921C9283E090E0EF85F889F9
:1019600091838083D3012D933C9377CF43305105EE
:1019700081F4322F2227F80180819181820F931FF9
:101980009183808384E090E0AF85B8898D939C93A8
:1019900064CF4430510599F460E071E00E9406176D
:1019A0008F3F910539F485E090E0EF85F8899183C8
:1019B000808353CFAF85B8891D921C924ECF45309E
:1019C000510571F4E981FA813183208386E090E04A
:1019D000AF85B8898D939C93F301318320833DCFEC
:1019E00046305105D1F4322F2227A981BA818D9139
:1019F0009C911197820F931F8D939C9327E030E069
:101A0000EF85F88931832083D8018D919C91892BB2
:101A100009F015CF28E030E0E0CF4830510509F05B
:101A20000ECFAF85B8891D921C9260E071E00E94D4
:101A300006178F3F910509F002CFA981BA81ED9178
:101A4000FC913097B1F4C4010E94CD09C4010E94F9
:101A5000050AF401ED54FD4FC082D182E282F38287
:101A6000ED81FE81C082D182E282F3828FEF9FEF0F
:101A700056C0EA30F10529F4B501C4010E94F30A09
:101A8000ECCEE630F10551F4B5018B859C850E94C2
:101A9000540581E0AD85BE858C93DFCEEB30F1053A
:101AA00021F4EF81F8851082D8CEE952FF4FEE0F76
:101AB000FF1FE80DF91D80819181009709F4BFCEC9
:101AC000DC01ED91FC910190F081E02DB5010995CB
:101AD000C4CEF401EE54FD4F80818823F1F08401DF
:101AE0000D541D4FF80180819181A281B381A7011E
:101AF0009601281B390B4A0B5B0BDA01C901853CA7
:101B00009940A105B10548F0C4010E94CD09D80152
:101B1000CD92DD92ED92FC92139780E090E060967A
:101B20000FB6F894DEBF0FBECDBFDF91CF911F91EE
:101B30000F91FF90EF90DF90CF90BF90AF909F906C
:101B40008F907F906F905F904F903F902F9008956F
:101B50000E941E0780E494E00C94AD0B84E793E0B0
:101B600090934104809340048EE197E09093430466
:101B70008093420480E091EEA0E0B0E080934404C2
:101B800090934504A0934604B09347041092F20644
:101B900088E393E090930107809300071092020777
:101BA00010920807109207071092090710920F076A
:101BB00010920E071092100710921407109213073C
:101BC000E4E8F6E01192119286E0E63BF807D1F7DF
:101BD000E6EBF6E01192119286E0E83EF807D1F7C5
:101BE000E4E5F4E0119285E0EC36F807D9F7ECE68D
:101BF000F5E0119286E0E438F807D9F784E493E041
:101C000090933E0480933D0410923F048AEC92E04E
:101C100090933404809333048DE394E090933604DE
:101C20008093350410923C0410923B0428EC30E081
:101C300042E063E083EE93E00E94011528EC30E07F
:101C400044E065E085EF93E00E94011528EC30E068
:101C500046E067E087E094E00E94011588E693E0A3
:101C60009093C1038093C0038CE593E09093C303EA
:101C70008093C2031092C4031092C5031092C6034E
:101C80001092C7031092C8031092C9031092CA039E
:101C90001092CB031092CC031092CD031092CE037E
:101CA0001092CF0389EC92E09093D1038093D003FC
:101CB0001092D2031092D3031092D4031092D50342
:101CC0001092D6031092D7031092D8031092D90322
:101CD0001092DA031092DB031092DC031092DD0302
:101CE0001092DE031092DF031092E0031092E103E2
:101CF0001092E20380ED92E09093B7038093B603D5
:101D000080EC93E09093B9038093B8031092BF03E3
:101D10001092BE0380E593E09093AF038093AE03EF
:101D20001092B1031092B0032CED32E03093A50372
:101D30002093A4032EEA33E03093A7032093A60355
:101D40001092AD031092AC032EE733E0309397036B
:101D50002093960390939D0380939C0310929F037E
:101D600010929E038BEA98E09093A1038093A003C6
:101D700081E090E09093A3038093A2038AEE92E027
:101D800090939B0380939A0308951F920F920FB62E
:101D90000F9211242F933F938F939F93AF93BF93F1
:101DA0008091160790911707A0911807B091190715
:101DB0003091150723E0230F2D3720F40196A11D44
:101DC000B11D05C026E8230F0296A11DB11D209369
:101DD00015078093160790931707A0931807B093E1
:101DE000190780911A0790911B07A0911C07B091C9
:101DF0001D070196A11DB11D80931A0790931B0723
:101E0000A0931C07B0931D07BF91AF919F918F9135
:101E10003F912F910F900FBE0F901F9018952FB7E5
:101E2000F8946091160770911707809118079091A8
:101E300019072FBF08953FB7F89480911A07909122
:101E40001B07A0911C07B0911D0726B5A89B05C0D4
:101E50002F3F19F00196A11DB11D3FBF6627782FB6
:101E6000892F9A2F620F711D811D911D42E0660F0F
:101E7000771F881F991F4A95D1F70895CF92DF9257
:101E8000EF92FF92CF93DF936B017C010E941B0FB7
:101E9000EB01C114D104E104F10479F00E941B0F9D
:101EA0006C1B7D0B683E7340A0F381E0C81AD1081B
:101EB000E108F108C851DC4FECCFDF91CF91FF90E2
:101EC000EF90DF90CF9008950197009739F0880F39
:101ED000991F880F991F02970197F1F70895789439
:101EE00084B5826084BD84B5816084BD85B582601F
:101EF00085BD85B5816085BDEEE6F0E080818160BD
:101F00008083E1E8F0E010828081826080838081BC
:101F100081608083E0E8F0E0808181608083E1EB94
:101F2000F0E0808184608083E0EBF0E0808181607C
:101F30008083EAE7F0E08081846080838081826032
:101F4000808380818160808380818068808310921B
:101F5000C1000895833081F028F4813099F08230F7
:101F6000A1F008958630A9F08730B9F08430D1F41B
:101F7000809180008F7D03C0809180008F77809357
:101F80008000089584B58F7702C084B58F7D84BDAD
:101F900008958091B0008F7703C08091B0008F7D4D
:101FA0008093B00008950F931F93CF93DF931F92F8
:101FB000CDB7DEB7282F30E0F901E859FF4F849103
:101FC000F901E458FF4F1491F901E057FF4F0491D4
:101FD0000023C9F0882321F069830E94AA0F698138
:101FE000E02FF0E0EE0FFF1FE255FF4FA591B491F7
:101FF0009FB7F8948C91611103C01095812301C0A3
:10200000812B8C939FBF0F90DF91CF911F910F91E8
:1020100008956F927F928F929F92AF92BF92CF92CC
:10202000DF92EF92FF920F931F93CF93DF93EC0118
:10203000CB01209781F4DF91CF911F910F91FF90F9
:10204000EF90DF90CF90BF90AF909F908F907F9058
:102050006F900C94F210FE01E60FF71F9E012250C4
:102060003109E217F30708F4ACC0D9010D911C91B6
:10207000119706171707B8F00530110508F49FC02F
:10208000A801445051094617570708F498C0025058
:102090001109061B170B019311936D937C93CF01CC
:1020A0000E948A118CC05B01A01AB10A4E01800EF9
:1020B000911EA091CC07B091CD07612C712C60E0EE
:1020C00070E0109709F449C0A815B905C9F5ED905D
:1020D000FC901197670142E0C40ED11CCA14DB04C6
:1020E00078F147018A189B08640142E0C40ED11CB4
:1020F0001296BC9012971396AC91B5E0CB16D10412
:1021000040F0B282A38391828082D9018D939C9307
:1021100009C00E5F1F4F0E0D1F1DF90111830083B3
:10212000EB2DFA2F6115710531F0DB011396FC934D
:10213000EE93129744C0F093CD07E093CC073FC0D5
:102140006D917C9111976616770608F43B01BD01ED
:1021500012960D90BC91A02DB4CF6091CA077091DA
:10216000CB0768157905E9F468167906D0F4409133
:102170000A0150910B014115510541F44DB75EB76D
:1021800060910E0170910F01461B570BE417F50784
:10219000C0F4F093CB07E093CA07F90191838083E1
:1021A0000EC00E94F2107C01009759F0A801BE01F8
:1021B0000E94E315CE010E948A11C70104C0CE011E
:1021C00002C080E090E0DF91CF911F910F91FF90CE
:1021D000EF90DF90CF90BF90AF909F908F907F90C7
:1021E0006F900895CF93DF938230910510F482E0D1
:1021F00090E0E091CC07F091CD0720E030E0A0E046
:10220000B0E0309739F14081518148175907B8F053
:102210004817590771F482819381109729F013961A
:102220009C938E9312972CC09093CD078093CC07EC
:1022300027C02115310531F04217530718F0A901C5
:10224000DB0101C0EF019A01BD01DF010280F381D2
:10225000E02DD7CF21153105F9F0281B390B24309B
:10226000310580F48A819B816115710521F0FB01A4
:102270009383828304C09093CD078093CC07FE01A3
:10228000329644C0FE01E20FF31F819391932250D6
:102290003109398328833AC02091CA073091CB078E
:1022A000232B41F420910C0130910D013093CB0789
:1022B0002093CA0720910A0130910B0121153105A5
:1022C00041F42DB73EB740910E0150910F01241BF0
:1022D000350BE091CA07F091CB07E217F307A0F4A2
:1022E0002E1B3F0B2817390778F0AC014E5F5F4F6C
:1022F0002417350748F04E0F5F1F5093CB074093CC
:10230000CA078193919302C0E0E0F0E0CF01DF9132
:10231000CF910895CF93DF93009709F487C0FC0114
:10232000329713821282C091CC07D091CD072097AB
:1023300081F420813181280F391F8091CA07909143
:10234000CB078217930779F5F093CB07E093CA0781
:102350006DC0DE0120E030E0AE17BF0750F41296EA
:102360004D915C9113979D014115510509F1DA01D9
:10237000F3CFB383A28340815181840F951F8A17C5
:102380009B0771F48D919C911197840F951F029674
:102390009183808312968D919C911397938382836E
:1023A0002115310529F4F093CD07E093CC073EC009
:1023B000D9011396FC93EE9312974D915D91A40F62
:1023C000B51FEA17FB0779F480819181840F951F6F
:1023D0000296D90111969C938E93828193811396D4
:1023E0009C938E931297E0E0F0E08A819B810097A6
:1023F00019F0FE01EC01F9CFCE0102962881398156
:10240000820F931F2091CA073091CB0728173907F5
:1024100069F4309729F41092CD071092CC0702C0CE
:1024200013821282D093CB07C093CA07DF91CF915A
:1024300008950E946F0F0E949109C9E3D3E10E94A1
:10244000A80D2097E1F30E943913F9CF4F925F92C4
:102450006F927F92AF92BF92CF92DF92EF92FF92F4
:102460000F931F93CF93DF93CDB7DEB729013A01C6
:10247000621B730B840B950B29893A894B895C8904
:102480002A193B094C095D09298B3A8B4B8B5C8BD4
:102490009B01AC0169897A898B899C890E94E2162B
:1024A000E418F50806091709A80197010E943C17CE
:1024B0002A0D3B1D4C1D5D1DCA01B901DF91CF9155
:1024C0001F910F91FF90EF90DF90CF90BF90AF9052
:1024D0007F906F905F904F900895FC012485358523
:1024E000F901E05CFF4F808191813296208131813A
:1024F000821B930B8F7399270895FC018485958522
:10250000FC01E05CFF4F4081518132962081318196
:102510004217530741F00190F081E02DE80FF91FB9
:10252000808190E008958FEF9FEF0895FC018485EE
:102530009585FC01E05CFF4F4081518132962081FE
:1025400031814217530779F0A081B181A80FB91FDB
:102550008C91208131812F5F3F4F2F73332731833F
:10256000208390E008958FEF9FEF0895FC0181A1F3
:10257000882329F0A489B5898C9186FFFBCF11A20D
:102580000895CF93DF93FC0126853785D901A05CA0
:10259000BF4F8D919C91119701968F739927E901F7
:1025A000CE5BDF4F4881598184179507D9F30D9091
:1025B000BC91A02DA20FB31F6C93A685B785A05C1C
:1025C000BF4F11969C938E93A689B7892C9181E079
:1025D00090E0078C02C0880F991F0A94E2F7282B1D
:1025E0002C9381E081A30488F589E02D80818064AB
:1025F000808381E090E0DF91CF91089508951F924C
:102600000F920FB60F9211242F933F934F938F93F6
:102610009F93EF93FF938091C00082FD1CC0409177
:10262000C6008091C4079091C50701968F739927C2
:102630002091C6073091C7078217930771F0E09188
:10264000C407F091C507EC57F84F40839093C50736
:102650008093C40702C08091C600FF91EF919F91C3
:102660008F914F913F912F910F900FBE0F901F9020
:1026700018958EE197E00E946D12892B11F00C9451
:10268000FE1208951F920F920FB60F9211242F93EE
:102690003F938F939F93EF93FF9320918007309107
:1026A000810780918207909183072817390731F4B9
:1026B0008091C1008F7D8093C10014C0E09182079A
:1026C000F0918307E05CF84F208180918207909120
:1026D000830701968F7399279093830780938207CE
:1026E0002093C600FF91EF919F918F913F912F9181
:1026F0000F900FBE0F901F901895CF92DF92EF9220
:10270000FF92CF93DF93EC016A017B01411581EECB
:10271000580761057105F9F0EC89FD8981E090E0C9
:1027200008A002C0880F991F0A94E2F7808360E036
:1027300079E08DE390E0A70196010E941A172150DD
:102740003109410951095695479537952795211526
:1027500080E1380798F0EC89FD89108260E874E820
:102760008EE190E0A70196010E941A1721503109CD
:10277000410951095695479537952795E889F98973
:102780003083EA89FB89208319A2EE89FF89408181
:1027900081E090E09C010C8C02C0220F331F0A9450
:1027A000E2F7422B4083EE89FF8940819C010D8C2A
:1027B00002C0220F331F0A94E2F7422B4083EE89B6
:1027C000FF8940819C010E8C02C0220F331F0A94A6
:1027D000E2F7422B4083EE89FF8920810F8C02C0F3
:1027E000880F991F0A94E2F7809582238083DF91F6
:1027F000CF91FF90EF90DF90CF9008951092210736
:102800001092200788EE93E0A0E0B0E080932207CA
:1028100090932307A0932407B09325078AE893E0B9
:1028200090931F0780931E0784E897E090932B07EF
:1028300080932A0780E497E090932D0780932C07DC
:1028400085EC90E090932F0780932E0784EC90E026
:10285000909331078093300780EC90E0909333079A
:102860008093320781EC90E0909335078093340792
:1028700082EC90E0909337078093360786EC90E0E7
:10288000909339078093380784E080933A0783E078
:1028900080933B0787E080933C0785E080933D076A
:1028A00081E080933E070895CF92DF92EF92FF92EE
:1028B0000F931F93CF93DF938C01EB016881798194
:1028C0008A819B8120E03AEC4AE95BE30E941A1777
:1028D000F801C080D180E280F380C20ED31EE41ED6
:1028E000F51EC082D182E282F382688379838A8373
:1028F0009B83DF91CF911F910F91FF90EF90DF901D
:10290000CF9008950F931F93CF93DF93EC01EA8547
:10291000FB8580819C81892B8083EE81FF81908162
:102920008C8180958923808384E090E00E94640FED
:10293000EE81FF8180819C81892B80838AE090E0F9
:102940000E94640FEE81FF8190818C8180958923A4
:102950008083EA85FB8590818C81809589238083A3
:10296000E885F98580819D81892311F080E032C05E
:102970000E941B0F4C855D858A0120E030E00855E0
:10298000194E2F4F3F4F060F171F281F391F0E8755
:102990001F87288B398BE885F98580819D81892364
:1029A00061F40E941B0F0E851F852889398906173F
:1029B00017072807390778F7D9CF0E941B0F2C85F6
:1029C0003D85620F731F811D911D6E877F87888BE8
:1029D000998B81E0DF91CF911F910F9108956F5FE7
:1029E0007F4F49E3469F9001479F300D11242E38B9
:1029F0004FE6340710F02DE83FE6FC0135872487C9
:102A000008950F931F93CF93DF93DC01062F10E0FF
:102A1000F801E458FF4FE4911496EC931497842F37
:102A200090E0FC01E458FF4FE4911596EC93159764
:102A300000571F4FF801C491D0E0CC0FDD1FC255E5
:102A4000DF4FFE014591549117965C934E93169774
:102A5000FC01E057FF4F849190E0880F991F8C553F
:102A60009F4FFC014591549119965C934E93189792
:102A7000F8010491E02FF0E0EE0FFF1FE854FF4F44
:102A8000859194911B969C938E931A97B901CD01D1
:102A9000DF91CF911F910F910C94EF140F931F931F
:102AA000CF93DF93EC016115710511F00E94EF14D3
:102AB000CE010E948214882389F0E885F9858081FF
:102AC0009D81892371F00E941B0F0E851F85288927
:102AD0003989061717072807390778F720E030E00B
:102AE0000CC00E941B0F2C853D85255031094E8559
:102AF0005F85241B350B260F371FC901DF91CF914E
:102B00001F910F9108950E944E15BC0180E090E046
:102B100029E330E040E050E00E941A17CA01B901F1
:102B200008951F920F920FB60F9211242F933F9387
:102B30004F935F936F937F938F939F93AF93BF93C5
:102B4000EF93FF93E091C807F091C9070995FF91B2
:102B5000EF91BF91AF919F918F917F916F915F9115
:102B60004F913F912F910F900FBE0F901F9018958E
:102B7000CF92DF92EF92FF920F931F93CF93DF9349
:102B80006C017A01EB01E60EF71E00E010E0CE15B5
:102B9000DF0561F06991D601ED91FC910190F08122
:102BA000E02DC6010995080F191FF1CFC801DF916B
:102BB000CF911F910F91FF90EF90DF90CF900895EC
:102BC000F8940C947B17FB01DC0102C001900D927C
:102BD00041505040D8F708950CD0BAC0B2D040F060
:102BE000A9D030F021F45F3F19F09BC05111E4C02F
:102BF0009EC0BFD098F39923C9F35523B1F3951B19
:102C0000550BBB27AA2762177307840738F09F5F0D
:102C10005F4F220F331F441FAA1FA9F333D00E2E7C
:102C20003AF0E0E830D091505040E695001CCAF7E9
:102C300029D0FE2F27D0660F771F881FBB1F2617AE
:102C400037074807AB07B0E809F0BB0B802DBF0181
:102C5000FF2793585F4F2AF09E3F510568F061C0EF
:102C6000ABC05F3FECF3983EDCF3869577956795B4
:102C7000B795F7959F5FC9F7880F911D9695879532
:102C800097F90895E1E0660F771F881FBB1F621751
:102C900073078407BA0720F0621B730B840BBA0B0F
:102CA000EE1F88F7E0950895E89409C097FB3EF47D
:102CB00090958095709561957F4F8F4F9F4F992389
:102CC000A9F0F92F96E9BB279395F6958795779507
:102CD0006795B795F111F8CFFAF4BB0F11F460FFC7
:102CE0001BC06F5F7F4F8F4F9F4F16C0882311F01F
:102CF00096E911C0772321F09EE8872F762F05C033
:102D0000662371F096E8862F70E060E02AF09A95CD
:102D1000660F771F881FDAF7880F9695879597F9C2
:102D2000089597F99F6780E870E060E008959FEF4D
:102D300080EC089500240A94161617061806090652
:102D4000089500240A941216130614060506089521
:102D5000092E0394000C11F4882352F0BB0F40F4A9
:102D6000BF2B11F460FF04C06F5F7F4F8F4F9F4FE9
:102D7000089557FD9058440F551F59F05F3F71F06B
:102D80004795880F97FB991F61F09F3F79F08795D2
:102D90000895121613061406551FF2CF4695F1DF5B
:102DA00008C0161617061806991FF1CF86957105EB
:102DB000610508940895E894BB2766277727CB011F
:102DC00097F90895DB018F939F930E945B17BF9142
:102DD000AF91A29F800D911DA39F900DB29F900D6A
:102DE00011240895AA1BBB1B51E107C0AA1FBB1FDA
:102DF000A617B70710F0A61BB70B881F991F5A9587
:102E0000A9F780959095BC01CD01089597FB072EF9
:102E100016F4009407D077FD09D00E94F21607FC43
:102E200005D03EF4909581959F4F089570956195DA
:102E30007F4F0895A1E21A2EAA1BBB1BFD010DC0F6
:102E4000AA1FBB1FEE1FFF1FA217B307E407F5075A
:102E500020F0A21BB30BE40BF50B661F771F881F36
:102E6000991F1A9469F760957095809590959B01CC
:102E7000AC01BD01CF010895052E97FB1EF400940F
:102E80000E94531757FD07D00E941A1707FC03D062
:102E90004EF40C94531750954095309521953F4F23
:102EA0004F4F5F4F089590958095709561957F4F36
:102EB0008F4F9F4F08950E946C17A59F900DB49F50
:102EC000900DA49F800D911D11240895EE0FFF1FFA
:102ED0000590F491E02D0994A29FB001B39FC00129
:102EE000A39F700D811D1124911DB29F700D811D36
:0A2EF0001124911D0895F894FFCFFE
:102EFA000100000013001200C4090000CE07800080
:102F0A007374645F6D7367732F54696D65006364CE
:102F1A0037313636633734633535326333313166A8
:102F2A0062636332666535613762633238390072CB
:102F3A006F7373657269616C5F6D7367732F546F1A
:102F4A00706963496E666F0030616435316638387E
:102F5A00666334343839326638633130363834305F
:102F6A00373736343630303500726F7373657269AD
:102F7A00616C5F6D7367732F4C6F670031316162EB
:102F8A006437333163323539333332363163643639
:102F9A003138336264313264363239350039663059
:102FAA00653938626461363539383139383664649E
:102FBA00663533616661376134306534390073745C
:102FCA00645F6D7367732F426F6F6C0038623934B8
:102FDA006331623533646236316662366165643400
:102FEA003036303238616436333332610073746498
:102FFA005F6D7367732F496E74313600383532341A
:10300A003538366533346662643763623163303823
:10301A0063356635663163613065353700737464CC
:10302A005F6D7367732F486561646572003231376B
:10303A003664656361656362636537386162633309
:10304A006239366566303439666162656400736573
:10305A006E736F725F6D7367732F52616E6765006F
:10306A006330303563333432373364633432366332
:10307A00363761303230613837626332343134384E
:10308A00004D6573736167652066726F6D206465B4
:10309A00766963652064726F707065643A206D6545
:1030AA007373616765206C61726765722074686109
:1030BA006E206275666665722E002F70696E6700F3
:1030CA002F72616E67655F64617461002F61726D52
:1030DA002F706F736974696F6E002F61726D2F6D37
:1030EA006F766500726F7373657269616C5F6D7379
:1030FA0067732F52657175657374506172616D00E3
:10310A00000000008D00AF00F500F800000000008C
:10311A006C03FB00D301D60100000000F403D901BF
:10312A001D0220020000000020045405230226028A
:10313A00000000002902300237023A0200000000B3
:10314A003D0246025302560200000000C80459021A
:10315A00E602E902000000002005EC0244034703EE
:10316A00000000006606AD0B6703000000004A037A
:10317A005D036103640300000000C112B8156D12FB
:06318A0096127D12B61240
:00000001FF
