:100000000C9436010C9467010C9467010C94670101
:100010000C9467010C9467010C9467010C946701C0
:100020000C9467010C9467010C9467010C946701B0
:100030000C9467010C94AD170C9467010C94670144
:100040000C9467010C9467010C9467010C94670190
:100050000C9467010C9467010C9467010C94C80E12
:100060000C9467010C9476120C9466130C9467013F
:100070000C9467010C9467010C9467010C94670160
:100080000C9467010C9467010C9467010C94670150
:100090000C94AA120C94A5130C9467010C9467019C
:1000A0000C9467010C9467010C9467010C94670130
:1000B0000C9467010C9467010C9467010C94670120
:1000C0000C9467010C9467010C9467010C94DE1288
:1000D0000C94E4130C9467010C9412130C942314E5
:1000E0000C9467010C9445130C9414120C9407049F
:1000F0000C9402030C9404040C94200E0C94C3047E
:100100000C94D7010C941F120C9416030C94190331
:100110000C9405030C940C030C948B010C94DB11D0
:100120000C9469010C94B5020C94D4180C94AC0393
:100130000C940A040C946B050C94D1010C940F04DC
:100140000C94BC0E0C941F0C0C94E3140C94FC0245
:100150000C94F7050C94D4010C94CB110C94F4116D
:100160000C9413030C9409070C94F9020C94A60345
:100170000C94AF020C94B2020C94FF020C949704FE
:100180000C94A9030C9437070C94C30501021020AA
:1001900020080810204010204080020102010804BD
:1001A0000201010204081020408080402010080451
:1001B00002018004020180402010080402010804AA
:1001C00002010102040810204080010204081020EE
:1001D0004080050505050705080808080202020217
:1001E0000A0A0808040404040101010101010101D3
:1001F0000303030303030303040707070C0C0C0C9E
:100200000C0C0C0C02020202060606060606060686
:100210000B0B0B0B0B0B0B0B00002000230026001D
:1002200029002C002F00320000010000030106010C
:10023000090100002200250028002B002E003100BB
:10024000340002010000050108010B01000021003B
:10025000240027002A002D00300033000101000097
:10026000040107010A01200EE314BC0E11241FBE75
:10027000CFEFD1E2DEBFCDBF00E00CBF14E0A0E0C5
:10028000B2E0E2E8F6E300E00BBF02C007900D9297
:10029000A233B107D9F72DE0A2E3B4E001C01D926B
:1002A000AA33B207E1F712E0CAE6D2E000E006C0E6
:1002B00022970109FE010BBF0E941C1BC636D10705
:1002C00080E00807A9F70E94BE110C94FC180C945A
:1002D0000000FC01DB0182818C93838111968C9359
:1002E0001197848112968C931297858113968C9323
:1002F0001397868114968C931497878115968C9307
:100300001597808516968C931697818517968C93F2
:1003100088E090E00895FC01DB014C9150E060E042
:1003200070E0428353836483758311968C91119797
:10033000582B428353836483758312968C91129752
:10034000682B428353836483758313968C91139730
:10035000782B428353836483758314964C9114974E
:1003600050E060E070E046835783608771871596A0
:100370008C911597582B4683578360877187169603
:100380008C911697682B46835783608771871796E1
:100390008C91782B468357836087718788E090E043
:1003A000089587E092E0089585E192E008956F92C4
:1003B0007F928F929F92AF92BF92CF92DF92EF92F5
:1003C000FF920F931F93CF93DF93FC01DB018C917E
:1003D00090E09383828311962C911197922B9383B3
:1003E000828312964D915D916D917C9115975D017F
:1003F00086E0A80EB11C8A019B010A5F1F4F2F4F98
:100400003F4F6501CA1ADB0AE12CF12CC016D10658
:10041000E206F30640F4E501F9905E01CE01029791
:10042000EC01F882EECFED01C40FD51F1D82CD0186
:10043000059695838483ED01C40FD51FCE80DF80A0
:10044000E884F984465F5F4F3D01640E751E8A01A2
:10045000222717FD2095322F0C0D1D1D2E1D3F1D2F
:1004600043018A1A9B0AA12CB12C80169106A20680
:10047000B30640F4E30169913E01CE010297EC011D
:100480006883EECFC40ED51E9D012C0D3D1DC90104
:100490000197EC011882415051094A0F5B1F5783A5
:1004A0004683E901088119812A813B81D4E0CD0E80
:1004B000D11C3D016C0C7D1CA601662757FD609583
:1004C000762F400F511F621F731F43018A1A9B0A28
:1004D000A12CB12C84169506A606B70640F4E301BC
:1004E000F9903E01CE010297EC01F882EECF0C0D9F
:1004F0001D1D9D01200F311FC9010197EC011882BC
:10050000D1E0CD1AD108CA0EDB1ED186C086D90132
:1005100011968C91119712964C91129750E060E0D1
:1005200070E0BA0155274427582B8C91482B13961D
:100530008C91782B4287538764877587C80104960E
:10054000DF91CF911F910F91FF90EF90DF90CF90AF
:10055000BF90AF909F908F907F906F90089586E3AB
:1005600092E008958FE492E00895AF92BF92CF9207
:10057000DF92EF92FF921F93CF93DF939C01FB01D9
:100580008081D90112968C9381819281A381B4815B
:100590005B01C5E0AC0EB11CAC01BD014B5F5F4F10
:1005A0006F4F7F4F6501CE1ADF0AE12CF12CC41684
:1005B000D506E606F70650F4E501D9905E017E0106
:1005C000D2E0ED1AF108E701D882ECCFEF01C80FB5
:1005D000D91F1C823496E901FC83EB830596DF91D9
:1005E000CF911F91FF90EF90DF90CF90BF90AF9091
:1005F000089580E792E0089583E892E0089588EAFC
:1006000093E0089584EA92E00895FC018281FB0161
:10061000808381E090E00895FB012081FC0122832A
:1006200081E090E0089585EC92E0089583ED92E0FA
:100630000895CF92DF92EF92FF920F931F93CF9383
:10064000DF938C01EB01888190E0A0E0B0E0F8013D
:1006500082839383A483B5832981922B828393839E
:10066000A483B5832A81A22B82839383A483B58339
:100670002B81B22B82839383A483B5838C8190E0FA
:10068000A0E0B0E086839783A087B1872D81922B6D
:1006900086839783A087B1872E81A22B8683978339
:1006A000A087B1872F81B22B86839783A087B187DC
:1006B000488550E060E070E0428753876487758723
:1006C0008985582B42875387648775878A85682B6D
:1006D00042875387648775878B85782B428753873A
:1006E000648775878C859D85AE85BF859E01205F5B
:1006F0003F4FAC01BD01405F5F4F6F4F7F4F6901BE
:10070000CC1ADD0AE12CF12CC416D506E606F70654
:1007100050F4F901D1909F017F01F2E0EF1AF10846
:10072000F701D082ECCF9E01280F391FF9011786FF
:100730002F96F801D787C6874096DF91CF911F91FA
:100740000F91FF90EF90DF90CF90089584EF92E0AB
:10075000089584E093E008950F931F93CF93DF9360
:10076000EC018B0102960E941903F801E80FF91FB2
:1007700020812A8B2281438150E060E070E0BA0141
:1007800055274427522B2181422B2481722B4B8BDE
:100790005C8B6D8B7E8B2681478150E060E070E042
:1007A000BA0155274427522B2581422B2085722BD5
:1007B0004F8B588F698F7A8F2285438550E060E098
:1007C00070E0BA0155274427522B2185422B2485FE
:1007D000722B4B8F5C8F6D8F7E8F2685478550E007
:1007E00060E070E0BA0155274427522B2585422B43
:1007F0002089722B4F8F58A369A37AA34196DF916A
:10080000CF911F910F91089585E293E0089587E3BA
:1008100093E008958E579B4FFC0180810895AF921D
:10082000BF92CF92DF92EF92FF920F931F93CF93DD
:10083000DF93EC017B018A81DB018C938B81119624
:100840008C93EC81FD81DF010D900020E9F7CD0153
:1008500001976C01CE1ADF0AC601A0E0B0E0FB01EF
:1008600082839383A483B5836C817D81A601C701B4
:1008700006960E94FF18EE81FF81DF010D90002097
:10088000E9F7CD0101975C01AE1ABF0AF701EC0D43
:10089000FD1D850120E030E0068317832087318726
:1008A0009AE0C90ED11C6E817F81A501C7018C0D14
:1008B0009D1D0E94FF18CA0CDB1CE885F985DF012D
:1008C0000D900020E9F7CD0101975C01AE1ABF0A37
:1008D000F701EC0DFD1D850120E030E00083118360
:1008E0002283338394E0C90ED11C68857985A501E4
:1008F000C7018C0D9D1D0E94FF18AC0CBD1C3A85D4
:100900002B859C858D85F701EA0DFB1D30832183A6
:1009100092838383C5010496DF91CF911F910F913C
:10092000FF90EF90DF90CF90BF90AF9008950F931E
:100930001F93CF93DF93DC01FB0112968C911297EA
:10094000808313968D919C911497EC01099000205F
:10095000E9F72197C81BD90B8E0120E030E0018315
:1009600012832383348313966D917C911497AE0187
:10097000CF0105960E94FF18CE010596DF91CF9119
:100980001F910F910895BF92CF92DF92EF92FF9245
:100990000F931F93CF93DF93EC017B018A81DB01DF
:1009A0008C9311961C92119712961C921297139683
:1009B0001C92FB01379640E024E030E05A81C901E7
:1009C00004964517E0F4AF81B88524E0429FA00D5E
:1009D000B11D11246C9111965C91119712963C9166
:1009E000129713962C91DF0113976C9311965C93D9
:1009F00011963C9320839C014F5F3496DFCF49854D
:100A0000F701E20FF31F408311821282138220E06C
:100A10003985F701E80FF91F04962317B0F4AE8566
:100A2000BF8534E0239FA00DB11D11246C91119658
:100A30005C91119712964C91129713963C9160839A
:100A40005183428333832F5FE3CF28892083118230
:100A500012821382B12C2889B21698F54B2D50E0E2
:100A6000440F551FEB89FC89E40FF51F0190F081BD
:100A7000E02DDF010D900020E9F79D0121503109A3
:100A80006901CE1ADF0AF701E80FF91F860120E09D
:100A900030E000831183228333838C010C5F1F4F6E
:100AA000EB89FC89E40FF51F60817181A601C70104
:100AB000800F911F0E94FF18C601800F911FB394F1
:100AC000CACFDF91CF911F910F91FF90EF90DF90F0
:100AD000CF90BF9008950F931F93CF93DF93DC01C6
:100AE000FB0112968C911297808313968C91139729
:100AF000818314968C911497828315968C91159707
:100B0000838316968C911697848317968C911797EA
:100B1000858318968C911897868319968C911997CE
:100B200087831A968C911A9780871B968C911B97B6
:100B300081871C968C911C9782871D968C911D979E
:100B400083871E968D919C911F97EC010990002040
:100B5000E9F72197C81BD90B8E0120E030E004870C
:100B60001587268737871E966D917C911F97AE015A
:100B7000CF0140960E94FF18CE014096DF91CF91A1
:100B80001F910F9108950F931F93CF93DF93EC0163
:100B90008B0102960E946B052A89F801E80FF91F64
:100BA00020835B894C893D892E895183428333831D
:100BB00024835F89488D398D2A8D558346833783F9
:100BC00020875B8D4C8D3D8D2E8D518742873387DD
:100BD00024875F8D48A139A12AA155874687378789
:100BE000208B4196DF91CF911F910F9108954F92E5
:100BF0005F927F928F929F92AF92BF92CF92DF923D
:100C0000EF92FF920F931F93CF93DF93EC018B0131
:100C1000DB01FC908A818F1550F4B4E0FB9EB0019B
:100C200011248F8198850E94AE0F98878F83FA8256
:100C3000F8013796F12C44E050E09E012D5F3F4FC4
:100C40008A81BA016C5F7F4F6B01F81660F54081B5
:100C500050E060E070E0742F662755274427DF01DD
:100C600013978C91482B11968C91582B11968C913F
:100C7000682B4B835C836D837E83A6016F817885AF
:100C800084E0F89E600D711D1124D9018D909D9016
:100C9000AD90BC90DB018D929D92AD92BC9213976A
:100CA000F3943496CDCFF801E40FF51FF0808985D9
:100CB0008F1550F484E0F89EB00111248E859F8535
:100CC0000E94AE0F9F878E879601F98680E0FE0115
:100CD0003A969985D801A20FB31FA9014C5F5F4FC7
:100CE0006A01891748F511969C91119712964C91BB
:100CF000129750E060E070E0BA0155274427592B65
:100D00009C91492B13969C91792B4A875B876C8722
:100D10007D879601AE85BF8594E0899FA00DB11DAA
:100D2000112440815181628173814D935D936D9354
:100D30007C9313978F5FCDCFFC9088898F1550F4EB
:100D40006F2D70E0660F771F8B899C890E94AE0F14
:100D50009C8B8B8BC601F88A712C2E0151E1450EBC
:100D6000511C2889721608F044C0F801E80FF91FD9
:100D7000C080D180E280F3800496F801E80FF91F6B
:100D8000AC01662757FD6095762F4C0D5D1D6E1DDD
:100D90007F1D9F01201B310B4901A12CB12C841612
:100DA0009506A606B70638F4B1909F012250310986
:100DB000D901BC92EECFC80ED91EF801EC0DFD1D75
:100DC000319710829C0121503109200F311F3A8B3D
:100DD000298BC6013B892C89E32FF22FE70DF11DEA
:100DE000E70DF11DD2012D913C9131832083739445
:100DF000B8CFDF91CF911F910F91FF90EF90DF90CF
:100E0000CF90BF90AF909F908F907F905F904F90CA
:100E100008951F93CF93DF938091950412E1189F5B
:100E2000C0011124815A9B4F0E9419178823D9F0C1
:100E30008091950490E0EC01CC0FDD1FCA56DB4F8A
:100E4000189FF001199FF00D1124E15AFB4F6081AA
:100E500071818281938129E330E040E050E00E947B
:100E6000EF1A39832883DF91CF911F910895AF92B4
:100E7000BF92CF92DF92EF92FF920F931F93CF9387
:100E8000DF9300D01F921F92CDB7DEB78C016B01AC
:100E9000643671053CF0FC01EE57FB4F80818823DE
:100EA00009F479C0DA01ED91FC910190F081E02D17
:100EB000B801655E7D4FCA0119957C015801BCEEF1
:100EC000AB1ABDEFBB0A2FEFF50120832EEF319651
:100ED00020833196808331969083890F8095319657
:100EE00080833196C0823196D08285E090E020E008
:100EF00030E0A701495F5F4F8417950750F4F80170
:100F0000E80FF91FEC5EFD4F6081260F311D019641
:100F1000F3CFF8E0EF0EF11C400F511FFA01EC5E29
:100F2000FD4F2095208321E0E21622E0F206C8F46E
:100F30006501C6018A199B098E159F0584F4D801A5
:100F400012968D919C911397F60161916F01DC01CE
:100F5000ED91FC910190F081E02D1995EACFC70148
:100F60001CC080EE93E09A83898383E08B8388E5BD
:100F700093E09D838C83D801ED91FC910190F081E9
:100F8000E02DAE014F5F5F4F67E070E0C80119953B
:100F90008FEF9FEF02C080E090E00F900F900F90D6
:100FA0000F900F90DF91CF911F910F91FF90EF90D5
:100FB000DF90CF90BF90AF900895CF93DF93AB01B8
:100FC000EC01AE81BF81ED91FC9111976C817D8127
:100FD0000190F081E02DCD01DF91CF9119940F9315
:100FE0001F9381E080934E0488EB9EE1A5E8BEE369
:100FF00080934F0490935004A0935104B0935204F3
:101000008FE892ECA5EFBCE38093530490935404D3
:10101000A0935504B09356048DEC9CECACE4BEE375
:101020008093570490935804A0935904B0935A04A2
:10103000E2EFF9E080E090E021913191232BB1F4CF
:10104000FC01EE0FFF1FEE50F64F22E334E0318338
:10105000208383589F4F90933704809336048EEDFE
:1010600095E0909339048093380404C00196893147
:10107000910511F70E94120F8B019C01055B1F4F18
:101080002F4F3F4F00939C0410939D0420939E0488
:1010900030939F048B019C0104591F4F2F4F3F4FEA
:1010A0000093A0041093A1042093A2043093A304FE
:1010B000DC01CB0183579F4FAF4FBF4F8093A404F8
:1010C0009093A504A093A604B093A7041F910F9139
:1010D00008952F923F924F925F926F927F928F92DC
:1010E0009F92AF92BF92CF92DF92EF92FF920F93B7
:1010F0001F93CF93DF93CDB7DEB768970FB6F89401
:10110000DEBF0FBECDBF10E01E0181E1280E311CF5
:1011100008E04FE2842E46E6942EA92CB12C5FE223
:10112000452E56E6552E5CE6652E712C0E94120F58
:1011300028EE33E040E050E00E94EF1AC090EA054C
:10114000D090EB05E090EC05F090ED05C20ED31EBB
:10115000E41EF51EC98ADA8AEB8AFC8A9B01AC017F
:1011600060E472E48FE090E00E94B71A2091EE05EF
:101170003091EF054091F0055091F105620F731F1A
:10118000841F951F6D8B7E8B8F8B988FBE016B5E3E
:101190007F4FC1010E941916F101DE011196802FC7
:1011A00001900D928A95E1F7FE013196DE011996C4
:1011B000802F01900D928A95E1F7FE013996A4E403
:1011C000B4E0802F01900D928A95E1F7111115C0BE
:1011D000498A5A8A6B8A7C8A609196047091970436
:1011E00080E090E00E949E19AB01BC018EE695E084
:1011F0000E94F5178EE695E02FC01130A9F4898A78
:101200009A8AAB8ABC8A609198047091990480E0B4
:1012100090E00E949E19AB01BC018BE095E00E941A
:10122000F5178BE095E018C08FE296E6A2E7B0E0F4
:10123000898B9A8BAB8BBC8B60919A0470919B04C9
:1012400080E090E00E949E19AB01BC0188EA94E026
:101250000E94F51788EA94E00E9483180E946D1995
:10126000882777FD8095982F0E94A01960935B04D2
:1012700070935C0480935D0490935E0430924D04FF
:1012800020924C046CE374E082E394E00E94DD075A
:1012900091E0909300021F5F133009F047CF6896EA
:1012A0000FB6F894DEBF0FBECDBFDF91CF911F9177
:1012B0000F91FF90EF90DF90CF90BF90AF909F90F5
:1012C0008F907F906F905F904F903F902F900895F8
:1012D0008F929F92AF92BF92DF92EF92FF920F9305
:1012E0001F93CF93DF93CCE9D4E066E9E62E64E068
:1012F000F62E0FE514E0D12C0E94120F8880998001
:10130000AA80BB80681579058A059B0500F1B501A7
:10131000A4014D595F4F6F4F7F4F488359836A83B4
:101320007B83D11006C080919504823011F40E9415
:1013300069080E941317D0929504F7011182108258
:1013400040E050E069E077E0C8010E948E17D39436
:101350002496F2E0EF0EF11C0E5E1F4F83E0D812D0
:10136000CBCFDF91CF911F910F91FF90EF90DF9046
:10137000BF90AF909F908F9008954091E20550915B
:10138000E3056091E4057091E5058091E005909199
:10139000E1050E9462141092570A1092560A1092A8
:1013A000590A1092580A10925D0A10925C0A109223
:1013B0005B0A10925A0A0C94EF07FC018CE194E04E
:1013C0009183808382EF9AE09383828340E051EEA1
:1013D00060E070E04483558366837783DF01AE5716
:1013E000BB4F1C921E968CEE93E011969C938E93AD
:1013F00012961C92129718961C921E921797199685
:101400001C9219971F961C921E921E9750961C9222
:10141000509754961C921E92539780E090E0DF0103
:10142000A80FB91FAC5EBB4F1D921C92029682336F
:101430009105A9F780E090E0DF01A80FB91FAA5B32
:10144000BB4F1D921C92029682339105A9F780E052
:1014500090E0DF01A80FB91F54961C9201968115E8
:1014600022E09207B1F780E090E0DF01A80FB91FFA
:10147000AC5EBD4F1C920196811522E09207A9F740
:1014800008950F931F93CF93DF93CDB7DEB72A97BD
:101490000FB6F894DEBF0FBECDBF8C0188EC93E091
:1014A0009A8389831B821C821D821E821F8218865A
:1014B00019861A86D801ED91FC910190F081E02DFA
:1014C000AE014F5F5F4F6AE070E0C80119950E945E
:1014D000120FF80160877187828793872A960FB66B
:1014E000F894DEBF0FBECDBFDF91CF911F910F915A
:1014F00008954F925F926F927F928F929F92AF92D8
:10150000BF92CF92DF92EF92FF920F931F93CF93F0
:10151000DF93CDB7DEB72E970FB6F894DEBF0FBEC0
:10152000CDBF8C0184ED93E09A8389831C821B825A
:1015300080E993E09E838D8398878F839A8789873C
:101540001B861C861D861E86580182E3A80EB11CD0
:101550007801412CE2E05E2E612C712C6701ACEE2B
:10156000CA1AABEFDA0AD601ED91FC913097B9F1C6
:10157000848195819C838B83808191819E838D83DF
:1015800082819381DC01ED91FC910480F581E02D55
:10159000199598878F83D601ED91FC918281938173
:1015A000DC01ED91FC910680F781E02D19959A8779
:1015B00089874B865C866D867E86F8018081918165
:1015C000F601A081B18118966D917C911997DC018B
:1015D000ED91FC91AE014F5F5F4FC8011995B2E0EC
:1015E000EB0EF11CEA14FB0409F0B8CF7801412C92
:1015F00072E0572E612C712C6701EAEBCE1AEBEFEB
:10160000DE0AF601A081B1811097E1F112968D9169
:101610009C9113979C838B8314968D919C91159725
:101620009E838D83ED91FC9111970480F581E02DCF
:10163000CD01199598878F83D6018D919C91DC01FE
:10164000ED91FC910680F781E02D19959A878987A5
:101650004B865C866D867E86D801ED91FC918080FC
:101660009180F60180819181DC01ED91FC910280F5
:10167000F381E02D1995AE014F5F5F4FBC01C801AA
:10168000F4011995F2E0EF0EF11CEA14FB0409F0E5
:10169000B3CFF801EE57FB4F81E080832E960FB653
:1016A000F894DEBF0FBECDBFDF91CF911F910F9198
:1016B000FF90EF90DF90CF90BF90AF909F908F9072
:1016C0007F906F905F904F9008958F929F92AF920E
:1016D000BF92CF92DF92EF92FF920F931F93CF931F
:1016E000DF93CDB7DEB72A970FB6F894DEBF0FBEF3
:1016F000CDBF8C015B0188EC93E09A8389831B82C8
:101700001C821D821E821F82188619861A860E94DC
:10171000120F6B017C01F80180859185A285B3854C
:10172000C81AD90AEA0AFB0AB501CE0101960E943D
:101730008B01F8EE8F2EF3E09F2EA12CB12CC70168
:10174000B601A50194010E94EF1A69017A019B017B
:10175000AC018B819C81AD81BE818C0D9D1DAE1D28
:10176000BF1D8B839C83AD83BE8360E472E48FE0F6
:1017700090E00E94B71ACF80D884E984FA84C60E1C
:10178000D71EE81EF91ECF82D886E986FA860E9407
:10179000120FCB80DC80ED80FE80F1E0CF1AD10803
:1017A000E108F108A50194010E94EF1A49015A01CC
:1017B0009B01AC01C818D908EA08FB08F801C486E7
:1017C000D586E686F786CF80D884E984FA84F6E366
:1017D000DF1AF5E6EF0AF4ECFF0A60E472E48FE04A
:1017E00090E00E94B71AC61AD70AE80AF90AF80167
:1017F000C08AD18AE28AF38AB801605F7F4FC8014C
:101800000C960E9419160E94120FF801E957FB4F1F
:1018100060837183828393832A960FB6F894DEBF28
:101820000FBECDBFDF91CF911F910F91FF90EF9031
:10183000DF90CF90BF90AF909F908F9008952F92A0
:101840003F924F925F926F927F928F929F92AF9250
:10185000BF92CF92DF92EF92FF920F931F93CF939D
:10186000DF93CDB7DEB760970FB6F894DEBF0FBE3B
:10187000CDBF4C010E94120F6B017C0194012957CE
:101880003B4F3E832D83F90180819181A281B381F9
:10189000A7019601281B390B4A0B5B0BDA01C90122
:1018A000893F9A42A105B10510F035971082A40135
:1018B00048585B4F588B4F87DA018D919C91892B4B
:1018C00079F0F401E557FB4F80819181A281B381CA
:1018D0008C159D05AE05BF0518F4FA011182108222
:1018E0003401F0E86F1AFBEF7F0A940124583B4F54
:1018F0003A832983A4014E575B4F58874F832C5E50
:101900003F4F3C872B87435F5F4F5E874D87840146
:1019100006581B4F1601270154E1250E311C411CAE
:10192000511C540184E1A80EB11C940122583B4F74
:101930003C832B83A40145575B4F5A874987D401C9
:1019400012968D919C911397DC01ED91FC9106808C
:10195000F781E02D19959C0197FD2DC1F301808140
:101960009181820F931F91838083AF85B8894D91B8
:101970005C9147305105E1F4EB81FC8180819181DC
:10198000AC014F5F5F4F51834083F401E80FF91FB3
:10199000248BD8018D919C91119701978D939C93E5
:1019A000892B09F0BECF28E030E0EF85F88987C0A9
:1019B0004115510519F52F3F310569F481E090E09B
:1019C000AF85B8898D939C93E985FA852082318211
:1019D00042825382B4CF0E94120F6C197D098E0986
:1019E0009F09663071058105910508F49ACFF401CD
:1019F000EE57FB4F10828EEF9FEF03C14130510530
:101A000099F42E3F310519F482E090E02FC0EF8564
:101A1000F88911821082AF81B8858C91811181CFB4
:101A2000C4010E94410A8BCF4230510589F4F8016C
:101A300031832083AB81BC811D921C9283E090E0B6
:101A4000EF85F88991838083D3012D933C9377CFE1
:101A50004330510581F4322F2227F8018081918192
:101A6000820F931F9183808384E090E0AF85B889D3
:101A70008D939C9364CF4430510599F460E071E0FC
:101A80000E94DB1A8F3F910539F485E090E0EF85E5
:101A9000F8899183808353CFAF85B8891D921C92BA
:101AA0004ECF4530510571F4E981FA8131832083AD
:101AB00086E090E0AF85B8898D939C93F3013183E4
:101AC00020833DCF46305105D1F4322F2227A98102
:101AD000BA818D919C911197820F931F8D939C9346
:101AE00027E030E0EF85F88931832083D8018D919C
:101AF0009C91892B09F015CF28E030E0E0CF4830E9
:101B0000510509F00ECFAF85B8891D921C9260E097
:101B100071E00E94DB1A8F3F910509F002CFA98185
:101B2000BA81ED91FC913097B1F4C4010E94410A51
:101B3000C4010E94790AF401ED57FB4FC082D182A3
:101B4000E282F382ED81FE81C082D182E282F38261
:101B50008FEF9FEF56C0EA30F10529F4B501C401BB
:101B60000E94650BECCEE630F10551F4B5018B8592
:101B70009C850E94F70581E0AD85BE858C93DFCE04
:101B8000EB30F10521F4EF81F8851082D8CEE154D5
:101B9000FE4FEE0FFF1FE80DF91D80819181009728
:101BA00009F4BFCEDC01ED91FC910190F081E02DB4
:101BB000B5011995C4CEF401EE57FB4F80818823FF
:101BC000F1F084010D571B4FF80180819181A281B2
:101BD000B381A7019601281B390B4A0B5B0BDA0175
:101BE000C901853C9940A105B10548F0C4010E9496
:101BF000410AD801CD92DD92ED92FC92139780E0DC
:101C000090E060960FB6F894DEBF0FBECDBFDF91B7
:101C1000CF911F910F91FF90EF90DF90CF90BF90E9
:101C2000AF909F908F907F906F905F904F903F907C
:101C30002F9008950E9468098EED95E00C941F0C7A
:101C40008EED95E00E94DD09EBEDF5E088EF93E085
:101C5000918380831092DD0581E993E09093D20512
:101C60008093D105F093D405E093D3051092DA0563
:101C70001092D9056AE08EE695E00E94EA176AE0C4
:101C80008BE095E00E94EA176AE088EA94E00E94FF
:101C9000EA1728EC30E043E062E08FE594E00E9430
:101CA000C61628EC30E045E064E081E794E00E944D
:101CB000C61628EC30E047E066E083E894E00E9436
:101CC000C616ECE3F4E080E194E09183808384E045
:101CD00094E090933F0480933E041092400410924D
:101CE0004104109242041092430410924404109252
:101CF0004504109246041092470410924804109232
:101D0000490410924A0410924B0480E993E09093A6
:101D10004D0480934C0410924E0410924F04109284
:101D200050041092510410925204109253041092D5
:101D300054041092550410925604109257041092B5
:101D400058041092590410925A0410925B04109295
:101D50005C0410925D0410925E048DE993E0909310
:101D6000330480933204F0933504E09334041092EA
:101D70003B0410923A04089588EA94E00E94D81730
:101D80008BE095E00E94D8178EE695E00C94D8176A
:101D90001F920F920FB60F9211242F933F938F93A0
:101DA0009F93AF93BF938091840A9091850AA091ED
:101DB000860AB091870A3091830A23E0230F2D37DA
:101DC00020F40196A11DB11D05C026E8230F02963F
:101DD000A11DB11D2093830A8093840A9093850AE4
:101DE000A093860AB093870A8091880A9091890A05
:101DF000A0918A0AB0918B0A0196A11DB11D809312
:101E0000880A9093890AA0938A0AB0938B0ABF919B
:101E1000AF919F918F913F912F910F900FBE0F9097
:101E20001F9018952FB7F8946091840A7091850AD5
:101E30008091860A9091870A2FBF08953FB7F89442
:101E40008091880A9091890AA0918A0AB0918B0AA0
:101E500026B5A89B05C02F3F19F00196A11DB11D05
:101E60003FBF6627782F892F9A2F620F711D811D22
:101E7000911D42E0660F771F881F991F4A95D1F781
:101E800008950197009739F0880F991F880F991FBF
:101E900002970197F1F70895789484B5826084BD24
:101EA00084B5816084BD85B5826085BD85B581605E
:101EB00085BDEEE6F0E0808181608083E1E8F0E0BE
:101EC0001082808182608083808181608083E0E8ED
:101ED000F0E0808181608083E1EBF0E080818460CC
:101EE0008083E0EBF0E0808181608083E1E9F0E0D5
:101EF000808182608083808181608083E0E9F0E07E
:101F0000808181608083E1EAF0E08081826080836B
:101F1000808181608083E0EAF0E08081816080835D
:101F2000E1E2F1E080818260808380818160808352
:101F3000E0E2F1E0808181608083EAE7F0E0808187
:101F400084608083808182608083808181608083DF
:101F50008081806880831092C10008956F927F9283
:101F60008F929F92AF92BF92CF92DF92EF92FF92A9
:101F70000F931F93CF93DF93EC01CB01209781F454
:101F8000DF91CF911F910F91FF90EF90DF90CF9055
:101F9000BF90AF909F908F907F906F900C94971010
:101FA000FE01E60FF71F9E0122503109E217F307E9
:101FB00008F4ACC0D9010D911C91119706171707B1
:101FC000B8F00530110508F49FC0A801445051092C
:101FD0004617570708F498C002501109061B170B43
:101FE000019311936D937C93CF010E942F118CC0AC
:101FF0005B01A01AB10A4E01800E911EA091380D0E
:10200000B091390D612C712C60E070E0109709F4EB
:1020100049C0A815B905C9F5ED90FC901197670165
:1020200042E0C40ED11CCA14DB0478F147018A18BF
:102030009B08640142E0C40ED11C1296BC9012971A
:102040001396AC91B5E0CB16D10440F0B282A383D5
:1020500091828082D9018D939C9309C00E5F1F4F9E
:102060000E0D1F1DF90111830083EB2DFA2F611551
:10207000710531F0DB011396FC93EE93129744C087
:10208000F093390DE093380D3FC06D917C9111971D
:102090006616770608F43B01BD0112960D90BC91BF
:1020A000A02DB4CF6091360D7091370D681579056C
:1020B000E9F468167906D0F44091010250910202C9
:1020C0004115510541F44DB75EB76091050270911D
:1020D0000602461B570BE417F507C0F4F093370DC3
:1020E000E093360DF901918380830EC00E94971012
:1020F0007C01009759F0A801BE010E94FF18CE0193
:102100000E942F11C70104C0CE0102C080E090E000
:10211000DF91CF911F910F91FF90EF90DF90CF90C3
:10212000BF90AF909F908F907F906F900895CF93C6
:10213000DF938230910510F482E090E0E091380D59
:10214000F091390D20E030E0A0E0B0E0309739F1B7
:102150004081518148175907B8F04817590771F461
:1021600082819381109729F013969C938E931297F6
:102170002CC09093390D8093380D27C0211531055F
:1021800031F04217530718F0A901DB0101C0EF013C
:102190009A01BD01DF010280F381E02DD7CF211527
:1021A0003105F9F0281B390B2430310580F48A8180
:1021B0009B816115710521F0FB019383828304C02B
:1021C0009093390D8093380DFE01329644C0FE0184
:1021D000E20FF31F819391932250310939832883B1
:1021E0003AC02091360D3091370D232B41F42091C8
:1021F0000302309104023093370D2093360D209165
:102200000102309102022115310541F42DB73EB78C
:102210004091050250910602241B350BE091360DCA
:10222000F091370DE217F307A0F42E1B3F0B281790
:10223000390778F0AC014E5F5F4F2417350748F03F
:102240004E0F5F1F5093370D4093360D819391933E
:1022500002C0E0E0F0E0CF01DF91CF910895CF938D
:10226000DF93009709F487C0FC0132971382128232
:10227000C091380DD091390D209781F420813181A2
:10228000280F391F8091360D9091370D82179307D3
:1022900079F5F093370DE093360D6DC0DE0120E047
:1022A00030E0AE17BF0750F412964D915C91139732
:1022B0009D014115510509F1DA01F3CFB383A283E2
:1022C00040815181840F951F8A179B0771F48D916E
:1022D0009C911197840F951F02969183808312968B
:1022E0008D919C911397938382832115310529F455
:1022F000F093390DE093380D3EC0D9011396FC934D
:10230000EE9312974D915D91A40FB51FEA17FB074D
:1023100079F480819181840F951F0296D9011196DD
:102320009C938E938281938113969C938E931297A4
:10233000E0E0F0E08A819B81009719F0FE01EC015A
:10234000F9CFCE01029628813981820F931F209107
:10235000360D3091370D2817390769F4309729F475
:102360001092390D1092380D02C013821282D09350
:10237000370DC093360DDF91CF9108950E944C0F19
:102380000E94BD09C5E4D3E10E941A0E2097E1F333
:102390000E944513F9CFFC0124853585F901E05CE5
:1023A000FF4F80819181329620813181821B930B76
:1023B0008F7399270895FC0184859585FC01E05C65
:1023C000FF4F40815181329620813181421753075E
:1023D00041F00190F081E02DE80FF91F808190E03D
:1023E00008958FEF9FEF0895FC0184859585FC018A
:1023F000E05CFF4F4081518132962081318142174C
:10240000530779F0A081B181A80FB91F8C91208169
:1024100031812F5F3F4F2F7333273183208390E02B
:1024200008958FEF9FEF0895FC0181A1882329F083
:10243000A489B5898C9186FFFBCF11A20895CF9313
:10244000DF93FC0126853785D901A05CBF4F8D91B4
:102450009C91119701968F739927E901CE5BDF4F0D
:102460004881598184179507D9F30D90BC91A02D0F
:10247000A20FB31F6C93A685B785A05CBF4F1196C2
:102480009C938E93A689B7892C9181E090E0078C6C
:1024900002C0880F991F0A94E2F7282B2C9381E041
:1024A00081A30488F589E02D80818064808381E0A8
:1024B00090E0DF91CF910895FB01E05CFF4F208118
:1024C00031812F5F3F4F2F733327DB01AE5BBF4F4F
:1024D0004D915C912417350739F0A081B181A60F89
:1024E000B71F8C9331832083089508951F920F9214
:1024F0000FB60F9211240BB60F922F933F934F9369
:102500005F936F937F938F939F93AF93BF93EF935B
:10251000FF938091C00082FD07C08091C60060EFEC
:102520007CE00E945C1202C08091C600FF91EF9196
:10253000BF91AF919F918F917F916F915F914F91DB
:102540003F912F910F900BBE0F900FBE0F901F90D9
:10255000189508951F920F920FB60F9211240BB683
:102560000F922F933F934F935F936F937F938F932C
:102570009F93AF93BF93EF93FF938091C80082FD29
:1025800007C08091CE0068E67CE00E945C1202C029
:102590008091CE00FF91EF91BF91AF919F918F916C
:1025A0007F916F915F914F913F912F910F900BBE53
:1025B0000F900FBE0F901F90189508951F920F92C5
:1025C0000FB60F9211240BB60F922F933F934F9398
:1025D0005F936F937F938F939F93AF93BF93EF938B
:1025E000FF938091D00082FD07C08091D60060EEFD
:1025F0007BE00E945C1202C08091D600FF91EF91B7
:10260000BF91AF919F918F917F916F915F914F910A
:102610003F912F910F900BBE0F900FBE0F901F9008
:10262000189508951F920F920FB60F9211240BB6B2
:102630000F922F933F934F935F936F937F938F935B
:102640009F93AF93BF93EF93FF938091300182FDEF
:1026500007C08091360168E57BE00E945C1202C0F1
:1026600080913601FF91EF91BF91AF919F918F9132
:102670007F916F915F914F913F912F910F900BBE82
:102680000F900FBE0F901F90189582EF9AE00E9456
:10269000CB11892B11F00E94751280ED9AE00E94F7
:1026A000CB11892B11F00E94A9128EEA9AE00E94A8
:1026B000CB11892B11F00E94DD128CE89AE00E9468
:1026C000CB11892B11F00C94111308951F920F92C6
:1026D0000FB60F9211240BB60F922F933F938F9347
:1026E0009F93EF93FF932091EC0C3091ED0C809130
:1026F000EE0C9091EF0C2817390731F48091C1004E
:102700008F7D8093C10014C0E091EE0CF091EF0C2E
:10271000E455F34F20818091EE0C9091EF0C0196DF
:102720008F7399279093EF0C8093EE0C2093C60043
:10273000FF91EF919F918F913F912F910F900BBE41
:102740000F900FBE0F901F9018951F920F920FB60B
:102750000F9211240BB60F922F933F938F939F9359
:10276000EF93FF932091640C3091650C8091660C7F
:102770009091670C2817390731F48091C9008F7D3B
:102780008093C90014C0E091660CF091670CEC5D79
:10279000F34F20818091660C9091670C01968F73A6
:1027A00099279093670C8093660C2093CE00FF913D
:1027B000EF919F918F913F912F910F900BBE0F90B2
:1027C0000FBE0F901F9018951F920F920FB60F9289
:1027D00011240BB60F922F933F938F939F93EF93F8
:1027E000FF932091DC0B3091DD0B8091DE0B9091FB
:1027F000DF0B2817390731F48091D1008F7D80934A
:10280000D10014C0E091DE0BF091DF0BE456F44FE1
:1028100020818091DE0B9091DF0B01968F739927B9
:102820009093DF0B8093DE0B2093D600FF91EF9106
:102830009F918F913F912F910F900BBE0F900FBEE4
:102840000F901F9018951F920F920FB60F921124A0
:102850000BB60F922F933F938F939F93EF93FF931A
:102860002091540B3091550B8091560B9091570B42
:102870002817390731F4809131018F7D8093310120
:1028800014C0E091560BF091570BEC5EF44F208191
:102890008091560B9091570B01968F7399279093C7
:1028A000570B8093560B20933601FF91EF919F9128
:1028B0008F913F912F910F900BBE0F900FBE0F90F5
:1028C0001F901895CF92DF92EF92FF92CF93DF93F4
:1028D000EC016A017B01411581EE58076105710524
:1028E000F9F0EC89FD8981E090E008A002C0880F32
:1028F000991F0A94E2F7808360E079E08DE390E02D
:10290000A70196010E94EF1A21503109410951098E
:102910005695479537952795211580E1380798F00A
:10292000EC89FD89108260E874E88EE190E0A701EF
:1029300096010E94EF1A215031094109510956951B
:10294000479537952795E889F9893083EA89FB8986
:10295000208319A2EE89FF89408181E090E09C01EB
:102960000C8C02C0220F331F0A94E2F7422B4083E3
:10297000EE89FF8940819C010D8C02C0220F331F1C
:102980000A94E2F7422B4083EE89FF8940819C0143
:102990000E8C02C0220F331F0A94E2F7422B4083B1
:1029A000EE89FF8920810F8C02C0880F991F0A943D
:1029B000E2F7809582238083DF91CF91FF90EF90A3
:1029C000DF90CF900895CF931092F50A1092F40AF9
:1029D00088EE93E0A0E0B0E08093F60A9093F70AC7
:1029E000A093F80AB093F90A26E234E03093F30A90
:1029F0002093F20A40EF5CE05093FF0A4093FE0AF6
:102A00004CEA5CE05093010B4093000B45EC50E026
:102A10005093030B4093020B44EC50E05093050B92
:102A20004093040B40EC50E05093070B4093060B8F
:102A300041EC50E05093090B4093080B42EC50E0FE
:102A400050930B0B40930A0B46EC50E050930D0B48
:102A500040930C0BC4E0C0930E0BF3E0F0930F0B0C
:102A6000E7E0E093100B75E07093110B61E0609369
:102A7000120B1092D30A1092D20A8093D40A909328
:102A8000D50AA093D60AB093D70A3093D10A2093DF
:102A9000D00A48E65CE05093DD0A4093DC0A44E249
:102AA0005CE05093DF0A4093DE0A4DEC50E0509317
:102AB000E10A4093E00A4CEC50E05093E30A409363
:102AC000E20A48EC50E05093E50A4093E40A49ECEE
:102AD00050E05093E70A4093E60A4AEC50E05093E6
:102AE000E90A4093E80A4EEC50E05093EB0A409319
:102AF000EA0AC093EC0AF093ED0AE093EE0A7093B1
:102B0000EF0A6093F00A1092B10A1092B00A809313
:102B1000B20A9093B30AA093B40AB093B50A309363
:102B2000AF0A2093AE0A40EE5BE05093BB0A40939D
:102B3000BA0A4CE95BE05093BD0A4093BC0A45EDEC
:102B400050E05093BF0A4093BE0A44ED50E05093CA
:102B5000C10A4093C00A40ED50E05093C30A40932D
:102B6000C20A41ED50E05093C50A4093C40A42EDB9
:102B700050E05093C70A4093C60A46ED50E0509388
:102B8000C90A4093C80AC093CA0AF093CB0AE093DB
:102B9000CC0A7093CD0A6093CE0A10928F0A1092DD
:102BA0008E0A8093900A9093910AA093920AB09310
:102BB000930A30938D0A20938C0A88E59BE09093CA
:102BC000990A8093980A84E19BE090939B0A8093F2
:102BD0009A0A85E391E090939D0A80939C0A84E38E
:102BE00091E090939F0A80939E0A80E391E09093F6
:102BF000A10A8093A00A81E391E09093A30A8093B5
:102C0000A20A82E391E09093A50A8093A40A86E346
:102C100091E09093A70A8093A60AC093A80AF09324
:102C2000A90AE093AA0A7093AB0A6093AC0ACF9109
:102C30000895CF92DF92EF92FF920F931F93CF935D
:102C4000DF938C01EB01688179818A819B8120E08F
:102C50003AEC4AE95BE30E94EF1AF801C080D180A8
:102C6000E280F380C20ED31EE41EF51EC082D18224
:102C7000E282F382688379838A839B83DF91CF9199
:102C80001F910F91FF90EF90DF90CF9008950F93D9
:102C90001F93CF93DF93EC01EA85FB8580819C81B4
:102CA000892B8083EE81FF8190818C81809589239F
:102CB000808384E090E00E94410FEE81FF8180815B
:102CC0009C81892B80838AE090E00E94410FEE81F5
:102CD000FF8190818C81809589238083EA85FB85A3
:102CE00090818C81809589238083E885F985808116
:102CF0009D81892311F080E032C00E941E0F4C8517
:102D00005D858A0120E030E00855194E2F4F3F4F76
:102D1000060F171F281F391F0E871F87288B398B17
:102D2000E885F98580819D81892361F40E941E0FC9
:102D30000E851F852889398906171707280739073F
:102D400078F7D9CF0E941E0F2C853D85620F731F27
:102D5000811D911D6E877F87888B998B81E0DF9124
:102D6000CF911F910F9108956F5F7F4F49E3469F69
:102D70009001479F300D11242E384FE6340710F094
:102D80002DE83FE6FC013587248708950F931F93B4
:102D9000CF93DF93DC01062F10E0F801E457FE4FDC
:102DA000E4911496EC931497842F90E0FC01E4577F
:102DB000FE4FE4911596EC9315970E521E4FF801B5
:102DC000C491D0E0CC0FDD1FCE5CDD4FFE014591FC
:102DD000549117965C934E931697FC01EE52FE4F5A
:102DE000849190E0880F991F885E9D4FFC0145916A
:102DF000549119965C934E931897F8010491E02F23
:102E0000F0E0EE0FFF1FE45BFD4F859194911B9660
:102E10009C938E931A97B901CD01DF91CF911F91A9
:102E20000F910C94B416E0E7F0E080818D7F8083F1
:102E30000895CF92DF92EF92FF920F931F93CF935B
:102E4000DF93EC010E941E0F0E851F8528893989AA
:102E5000061717072807390718F40E94131725C00B
:102E6000E885F98580819D818923F9F40E941317F3
:102E70000E941E0F4C855D858A0120E030E0CE84E3
:102E8000DF84E888F9880C191D092E093F090D50C7
:102E9000110921093109060F171F281F391F08833F
:102EA00019832A833B8381E001C080E0DF91CF91C9
:102EB0001F910F91FF90EF90DF90CF9008950E94A7
:102EC0001317E6EBF0E080818F7D808382E08093B2
:102ED000B00084E08093B1001092B2000895CF93C7
:102EE000DF93EC017093350D6093340D0E945F17F2
:102EF000CE01969587959695879501978F3F910579
:102F000019F010F08FEF90E08093B3008091700083
:102F1000826080937000DF91CF9108950F931F938B
:102F2000CF93DF93EC018B014115510519F0BA01E4
:102F30000E94B416CE010E944716882349F0B801BA
:102F400088E190E0DF91CF911F910F910C946F1762
:102F5000DF91CF911F910F9108951F920F920FB69D
:102F60000F9211240BB60F922F933F934F935F93C1
:102F70006F937F938F939F93AF93BF93EF93FF9341
:102F8000E091340DF091350D1995FF91EF91BF91BE
:102F9000AF919F918F917F916F915F914F913F91F1
:102FA0002F910F900BBE0F900FBE0F901F90189592
:102FB0000895FC011282138210823181482F282F3C
:102FC000241B231730F4FC01E05BFF4F20830196A4
:102FD000F6CF0895662321F0643118F063E101C053
:102FE00061E0FC0161830C94D917FC01938181E0BD
:102FF000890F8383DF0124E0929FA00DB11D11246E
:1030000014964D935D936D937C93179791818917D7
:1030100008F013828281891710F48F5F82831082F7
:1030200008953F924F925F926F927F928F929F92FC
:10303000AF92BF92CF92DF92EF92FF920F931F93C6
:10304000CF93DF93EC01EA80F12C570121E0A21A23
:10305000B108612C862D90E08A159B05A4F081E0D3
:103060008883DF91CF911F910F91FF90EF90DF90B8
:10307000CF90BF90AF909F908F907F906F905F9018
:103080004F903F900895772473945524539467018B
:10309000C81AD90A872D90E08C159D0584F58E01FC
:1030A000080F191F015B1F4FF80140808C0F9D1FF7
:1030B0004C01F0E58F0E911CF4013080FE0124E0FC
:1030C000429EE00DF11D1124DE0184E0389EA00D2A
:1030D000B11D112414962D913D914D915C9117973E
:1030E00064817581868197810E94501A18162CF48C
:1030F000F8013082F4014082512C7394CBCF5110EF
:10310000AECF6394A7CFCF93DF93EC018A8188235E
:1031100009F443C08881811103C0CE010E941118B7
:103120009A81892F869590FF10C0FE01E80FF11D4E
:10313000E05BFF4F808124E0829FC00DD11D1124F0
:103140006C817D818E819F812CC09E01280F311D55
:10315000C901F901E05BFF4F2081FE0134E0239FAC
:10316000E00DF11D1124DC01A15BBF4F8C9194E0B7
:10317000899FC00DD11D11242C813D814E815F811D
:1031800064817581868197810E94091920E030E071
:1031900040E05FE30E94541A04C060E070E080ECFD
:1031A0009FE7DF91CF910895CF92DF92EF92FF9248
:1031B0000F931F93CF93DF936C017A01EB01E60E1F
:1031C000F71E00E010E0CE15DF0561F06991D60131
:1031D000ED91FC910190F081E02DC6011995080F49
:1031E000191FF1CFC801DF91CF911F910F91FF906F
:1031F000EF90DF90CF900895F8940C942F1BFB0173
:10320000DC0102C001900D9241505040D8F7089562
:103210005058BB27AA270ED009C1FAD030F0FFD0F2
:1032200020F031F49F3F11F41EF4EFC00EF4E0954E
:10323000E7FBE5C0E92F0BD180F3BA1762077307EC
:103240008407950718F071F49EF523C10EF4E095FC
:103250000B2EBA2FA02D0B01B90190010C01CA0150
:10326000A0011124FF27591B99F0593F50F4503EFB
:1032700068F11A16F040A22F232F342F4427585FED
:10328000F3CF469537952795A795F0405395C9F705
:103290007EF41F16BA0B620B730B840BBAF09150BD
:1032A000A1F0FF0FBB1F661F771F881FC2F70EC05C
:1032B000BA0F621F731F841F48F48795779567952F
:1032C000B795F7959E3F08F0B3CF9395880F08F018
:1032D0009927EE0F97958795089504D06894B111BA
:1032E000D9C00895BCD088F09F5790F0B92F992786
:1032F000B751A0F0D1F0660F771F881F991F1AF001
:10330000BA95C9F712C0B13081F0C3D0B1E00895C9
:10331000C0C0672F782F8827B85F39F0B93FCCF34A
:10332000869577956795B395D9F73EF490958095F6
:10333000709561957F4F8F4F9F4F0895E89409C016
:1033400097FB3EF490958095709561957F4F8F4FD8
:103350009F4F9923A9F0F92F96E9BB279395F695EE
:10336000879577956795B795F111F8CFFAF4BB0F6C
:1033700011F460FF1BC06F5F7F4F8F4F9F4F16C0D0
:10338000882311F096E911C0772321F09EE8872F5A
:10339000762F05C0662371F096E8862F70E060E016
:1033A0002AF09A95660F771F881FDAF7880F96958F
:1033B000879597F90895990F0008550FAA0BE0E833
:1033C000FEEF16161706E807F907C0F012161306E7
:1033D000E407F50798F0621B730B840B950B39F427
:1033E0000A2661F0232B242B252B21F408950A268D
:1033F00009F4A140A6958FEF811D811D089597F9CD
:103400009F6780E870E060E008959FEF80EC08958A
:1034100000240A94161617061806090608950024B3
:103420000A9412161306140605060895092E03942D
:10343000000C11F4882352F0BB0F40F4BF2B11F4A1
:1034400060FF04C06F5F7F4F8F4F9F4F089557FD00
:103450009058440F551F59F05F3F71F04795880F02
:1034600097FB991F61F09F3F79F087950895121699
:1034700013061406551FF2CF4695F1DF08C0161645
:1034800017061806991FF1CF8695710561050894F6
:103490000895E894BB2766277727CB0197F908950D
:1034A0008ADF08F48FEF08950BD0C0CFB1DF28F08A
:1034B000B6DF18F0952309F0A2CFA7CF1124EACFE9
:1034C000C6DFA0F3959FD1F3950F50E0551F629F83
:1034D000F001729FBB27F00DB11D639FAA27F00D6D
:1034E000B11DAA1F649F6627B00DA11D661F829F94
:1034F0002227B00DA11D621F739FB00DA11D621F79
:10350000839FA00D611D221F749F3327A00D611D95
:10351000231F849F600D211D822F762F6A2F112477
:103520009F5750408AF0E1F088234AF0EE0FFF1FCA
:10353000BB1F661F771F881F91505040A9F79E3F01
:10354000510570F05CCFA6CF5F3FECF3983EDCF303
:10355000869577956795B795F795E7959F5FC1F73E
:10356000FE2B880F911D9695879597F90895DB019D
:103570008F939F930E94111BBF91AF91A29F800DCB
:10358000911DA39F900DB29F900D11240895AA1B29
:10359000BB1B51E107C0AA1FBB1FA617B70710F03E
:1035A000A61BB70B881F991F5A95A9F78095909570
:1035B000BC01CD01089597FB072E16F4009407D0A7
:1035C00077FD09D00E94C71A07FC05D03EF49095FC
:1035D00081959F4F0895709561957F4F0895A1E261
:1035E0001A2EAA1BBB1BFD010DC0AA1FBB1FEE1F7D
:1035F000FF1FA217B307E407F50720F0A21BB30BC8
:10360000E40BF50B661F771F881F991F1A9469F743
:1036100060957095809590959B01AC01BD01CF019F
:1036200008950E94201BA59F900DB49F900DA49F0C
:10363000800D911D112408950790F691E02D1994A5
:10364000A29FB001B39FC001A39F700D811D1124E3
:10365000911DB29F700D811D1124911D089512E0DE
:10366000CAE6D2E000E006C022970109FE010BBFC6
:103670000E941C1BCC36D10780E00807A9F7F894FC
:02368000FFCF7A
:103682000100003A0D80007374645F6D7367732FDD
:1036920054696D6500636437313636633734633598
:1036A2003532633331316662636332666535613761
:1036B200626332383900726F7373657269616C5F6D
:1036C2006D7367732F546F706963496E666F003054
:1036D2006164353166383866633434383932663875
:1036E200633130363834303737363436303035009F
:1036F200726F7373657269616C5F6D7367732F4C60
:103702006F67003131616264373331633235393387
:10371200333236316364363138336264313264367F
:103722003239350039663065393862646136353987
:1037320038313938366464663533616661376134ED
:1037420030653439007374645F6D7367732F426F31
:103752006F6C0038623934633162353364623631FA
:1037620066623661656434303630323861643633CD
:10377200333261007374645F6D7367732F486561E0
:103782006465720032313736646563616563626312
:10379200653738616263336239366566303439665B
:1037A200616265640073656E736F725F6D736773D8
:1037B2002F52616E676500633030356333343237C0
:1037C20033646334323663363761303230613837CE
:1037D20062633234313438004D657373616765203A
:1037E20066726F6D206465766963652064726F70BE
:1037F2007065643A206D657373616765206C6172F0
:10380200676572207468616E206275666665722EE5
:10381200002F73656E736F722F6869740072616E28
:1038220067655F6461746100726F73736572696169
:103832006C5F6D7367732F52657175657374506138
:1038420072616D000000000069018B01D101D40199
:10385200000000000F04D701AF02B2020000000016
:103862009704B502F902FC0200000000C304F70548
:10387200FF0202030000000005030C0313031603FA
:10388200000000006B051903A603A9030000000055
:10389200C305AC03040407040000000037071F0C33
:1038A2000A04000000001F12D418CB11F411DB111E
:0238B2001412EE
:00000001FF
