:100000000C94B4000C94E5000C94E5000C94E5000D
:100010000C94E5000C94E5000C94E5000C94E500CC
:100020000C94E5000C94E5000C94E5000C94E500BC
:100030000C94E5000C94E5000C94E5000C94E500AC
:100040000C94E5000C94E5000C94E5000C94E5009C
:100050000C94E5000C94E5000C94E5000C94AD0ABA
:100060000C94E5000C94760E0C94660F0C94E5004D
:100070000C94E5000C94E5000C94E5000C94E5006C
:100080000C94E5000C94E5000C94E5000C94E5005C
:100090000C94AA0E0C94A50F0C94E5000C94E500AA
:1000A0000C94E5000C94E5000C94E5000C94E5003C
:1000B0000C94E5000C94E5000C94E5000C94E5002C
:1000C0000C94E5000C94E5000C94E5000C94DE0E15
:1000D0000C94E40F0C94E5000C94120F0C94231074
:1000E0000C94E5000C9480020C9447120C940901C6
:1000F0000C942D020C947E030C9424080C94F40DA3
:100100000C9477020C94C2020C94C5020C94140E49
:100110000C947A020C94CB0D0C9430020C94BF0218
:100120000C945F050C9452010C944F010C94CA027C
:100130000C94E3100C94E7000C9483020C9452038B
:100140000C9455010C94DB0D0C9433020C94400A72
:100150000C94450F0C947D020C9426040C944D04D1
:100160000C941F0E400AE31011241FBECFEFD1E202
:10017000DEBFCDBF00E00CBF13E0A0E0B2E0EAEECE
:10018000F5E200E00BBF02C007900D92A63BB1075D
:10019000D9F72BE0A6EBB3E001C01D92AE31B20758
:1001A000E1F711E0C8E6D1E000E006C022970109BE
:1001B000FE010BBF0E94CC12C436D10780E00807B5
:1001C000A9F70E94BE0D0C946F120C940000FC0164
:1001D000DB0182818C93838111968C9311978481AA
:1001E00012968C931297858113968C931397868120
:1001F00014968C931497878115968C931597808508
:1002000016968C931697818517968C9388E090E0CC
:100210000895FC01DB014C9150E060E070E0428306
:1002200053836483758311968C911197582B428365
:1002300053836483758312968C911297682B428343
:1002400053836483758313968C911397782B428321
:1002500053836483758314964C91149750E060E047
:1002600070E0468357836087718715968C91159748
:10027000582B468357836087718716968C91169703
:10028000682B468357836087718717968C91782BEC
:10029000468357836087718788E090E0089583E103
:1002A00092E0089581E292E008956F927F928F929A
:1002B0009F92AF92BF92CF92DF92EF92FF920F93F5
:1002C0001F93CF93DF93FC01DB018C9190E093832C
:1002D000828311962C911197922B9383828312968D
:1002E0004D915D916D917C9115975D0186E0A80E11
:1002F000B11C8A019B010A5F1F4F2F4F3F4F6501C1
:10030000CA1ADB0AE12CF12CC016D106E206F3066C
:1003100040F4E501F9905E01CE010297EC01F8820C
:10032000EECFED01C40FD51F1D82CD01059695833B
:100330008483ED01C40FD51FCE80DF80E884F9846B
:10034000465F5F4F3D01640E751E8A01222717FD2F
:100350002095322F0C0D1D1D2E1D3F1D43018A1AA5
:100360009B0AA12CB12C80169106A206B30640F47C
:10037000E30169913E01CE010297EC016883EECF63
:10038000C40ED51E9D012C0D3D1DC9010197EC0128
:100390001882415051094A0F5B1F57834683E90178
:1003A000088119812A813B81D4E0CD0ED11C3D0109
:1003B0006C0C7D1CA601662757FD6095762F400FBB
:1003C000511F621F731F43018A1A9B0AA12CB12C73
:1003D00084169506A606B70640F4E301F9903E019F
:1003E000CE010297EC01F882EECF0C0D1D1D9D0190
:1003F000200F311FC9010197EC011882D1E0CD1AFD
:10040000D108CA0EDB1ED186C086D90111968C9107
:10041000119712964C91129750E060E070E0BA018B
:1004200055274427582B8C91482B13968C91782B69
:100430004287538764877587C8010496DF91CF91FF
:100440001F910F91FF90EF90DF90CF90BF90AF90F2
:100450009F908F907F906F90089582E492E008952E
:100460008BE592E00895AF92BF92CF92DF92EF9228
:10047000FF921F93CF93DF939C01FB018081D901F1
:1004800012968C9381819281A381B4815B01C5E036
:10049000AC0EB11CAC01BD014B5F5F4F6F4F7F4F86
:1004A0006501CE1ADF0AE12CF12CC416D506E6064A
:1004B000F70650F4E501D9905E017E01D2E0ED1A15
:1004C000F108E701D882ECCFEF01C80FD91F1C82D9
:1004D0003496E901FC83EB830596DF91CF911F9160
:1004E000FF90EF90DF90CF90BF90AF9008958CE792
:1004F00092E008958FE892E0089583E493E00895F0
:1005000080EB92E00895AF92BF92CF92DF92EF928C
:10051000FF921F93CF93DF935C019B01FB018191BD
:100520009191A191B191AC01BD014C5F5F4F6F4FB3
:100530007F4F6F01C21AD30AE12CF12CC416D506E5
:10054000E606F70640F4D1907F0112E0E11AF108C7
:10055000E701D882EECFF901E80FF91F13822D5F72
:100560003F4FF501338322830496DF91CF911F9192
:10057000FF90EF90DF90CF90BF90AF90089581ED06
:1005800092E0089581EE92E008958E579B4FFC0112
:1005900080810895AF92BF92CF92DF92EF92FF9247
:1005A0000F931F93CF93DF93EC017B018A81DB01D3
:1005B0008C938B8111968C93EC81FD81DF010D90E2
:1005C0000020E9F7CD0101976C01CE1ADF0AC601C0
:1005D000A0E0B0E0FB0182839383A483B5836C81A8
:1005E0007D81A601C70106960E947212EE81FF81ED
:1005F000DF010D900020E9F7CD0101975C01AE1AF3
:10060000BF0AF701EC0DFD1D850120E030E00683F7
:100610001783208731879AE0C90ED11C6E817F81B4
:10062000A501C7018C0D9D1D0E947212CA0CDB1C16
:10063000E885F985DF010D900020E9F7CD010197EC
:100640005C01AE1ABF0AF701EC0DFD1D850120E02B
:1006500030E0008311832283338394E0C90ED11CE0
:1006600068857985A501C7018C0D9D1D0E947212B8
:10067000AC0CBD1C3A852B859C858D85F701EA0D58
:10068000FB1D3083218392838383C5010496DF9110
:10069000CF911F910F91FF90EF90DF90CF90BF907F
:1006A000AF9008950F931F93CF93DF93DC01FB016D
:1006B00012968C911297808313968D919C9114972A
:1006C000EC0109900020E9F72197C81BD90B8E0196
:1006D00020E030E0018312832383348313966D91ED
:1006E0007C911497AE01CF0105960E947212CE0143
:1006F0000596DF91CF911F910F910895BF92CF92F0
:10070000DF92EF92FF920F931F93CF93DF93EC0151
:100710007B018A81DB018C9311961C9211971296B2
:100720001C92129713961C92FB01379640E024E02E
:1007300030E05A81C90104964517E0F4AF81B885CD
:1007400024E0429FA00DB11D11246C9111965C9183
:10075000119712963C91129713962C91DF011397E3
:100760006C9311965C9311963C9320839C014F5F90
:100770003496DFCF4985F701E20FF31F40831182E2
:100780001282138220E03985F701E80FF91F0496E1
:100790002317B0F4AE85BF8534E0239FA00DB11DB3
:1007A00011246C9111965C91119712964C911297AD
:1007B00013963C9160835183428333832F5FE3CF51
:1007C00028892083118212821382B12C2889B216C3
:1007D00098F54B2D50E0440F551FEB89FC89E40F31
:1007E000F51F0190F081E02DDF010D900020E9F769
:1007F0009D01215031096901CE1ADF0AF701E80F86
:10080000F91F860120E030E00083118322833383C7
:100810008C010C5F1F4FEB89FC89E40FF51F608191
:100820007181A601C701800F911F0E947212C6013B
:10083000800F911FB394CACFDF91CF911F910F9179
:10084000FF90EF90DF90CF90BF9008950F931F938C
:10085000CF93DF93DC011296ED91FC911397EF019A
:1008600009900020E9F72197CE1BDF0B8E0120E0D5
:1008700030E0FB01019311932193319312966D9116
:100880007C911397AE01CF010E947212CE010496A3
:10089000DF91CF911F910F9108954F925F927F92B8
:1008A0008F929F92AF92BF92CF92DF92EF92FF9280
:1008B0000F931F93CF93DF93EC018B01DB01FC902F
:1008C0008A818F1550F4B4E0FB9EB00111248F8112
:1008D00098850E94AE0B98878F83FA82F80137962D
:1008E000F12C44E050E09E012D5F3F4F8A81BA0118
:1008F0006C5F7F4F6B01F81660F5408150E060E05F
:1009000070E0742F662755274427DF0113978C91D9
:10091000482B11968C91582B11968C91682B4B83F8
:100920005C836D837E83A6016F81788584E0F89E69
:10093000600D711D1124D9018D909D90AD90BC90DA
:10094000DB018D929D92AD92BC921397F3943496F5
:10095000CDCFF801E40FF51FF08089858F1550F495
:1009600084E0F89EB00111248E859F850E94AE0B15
:100970009F878E879601F98680E0FE013A969985D9
:10098000D801A20FB31FA9014C5F5F4F6A018917FD
:1009900048F511969C91119712964C91129750E040
:1009A00060E070E0BA0155274427592B9C91492BF0
:1009B00013969C91792B4A875B876C877D8796017C
:1009C000AE85BF8594E0899FA00DB11D11244081A3
:1009D0005181628173814D935D936D937C931397E5
:1009E0008F5FCDCFFC9088898F1550F46F2D70E00C
:1009F000660F771F8B899C890E94AE0B9C8B8B8B1B
:100A0000C601F88A712C2E0151E1450E511C28892E
:100A1000721608F044C0F801E80FF91FC080D180B9
:100A2000E280F3800496F801E80FF91FAC01662715
:100A300057FD6095762F4C0D5D1D6E1D7F1D9F012E
:100A4000201B310B4901A12CB12C84169506A6065A
:100A5000B70638F4B1909F0122503109D901BC92F8
:100A6000EECFC80ED91EF801EC0DFD1D3197108296
:100A70009C0121503109200F311F3A8B298BC6016F
:100A80003B892C89E32FF22FE70DF11DE70DF11DB6
:100A9000D2012D913C91318320837394B8CFDF91A3
:100AA000CF911F910F91FF90EF90DF90CF90BF906B
:100AB000AF909F908F907F905F904F900895AF92EE
:100AC000BF92CF92DF92EF92FF920F931F93CF933B
:100AD000DF9300D01F921F92CDB7DEB78C016B0160
:100AE000643671053CF0FC01EE57FB4F8081882392
:100AF00009F479C0DA01ED91FC910190F081E02DCB
:100B0000B801655E7D4FCA0119957C015801BCEEA4
:100B1000AB1ABDEFBB0A2FEFF50120832EEF319604
:100B200020833196808331969083890F809531960A
:100B300080833196C0823196D08285E090E020E0BB
:100B400030E0A701495F5F4F8417950750F4F80123
:100B5000E80FF91FEC5EFD4F6081260F311D0196F5
:100B6000F3CFF8E0EF0EF11C400F511FFA01EC5EDD
:100B7000FD4F2095208321E0E21622E0F206C8F422
:100B80006501C6018A199B098E159F0584F4D80159
:100B900012968D919C911397F60161916F01DC0182
:100BA000ED91FC910190F081E02D1995EACFC701FC
:100BB0001CC08BE793E09A83898383E08B8382E078
:100BC00093E09D838C83D801ED91FC910190F0819D
:100BD000E02DAE014F5F5F4F67E070E0C8011995EF
:100BE0008FEF9FEF02C080E090E00F900F900F908A
:100BF0000F900F90DF91CF911F910F91FF90EF9089
:100C0000DF90CF90BF90AF9008954091C80350916E
:100C1000C9036091CA037091CB038091C603909180
:100C2000C7030E94621010923D0810923C08109277
:100C30003F0810923E08109243081092420810920A
:100C4000410810924008E8EDF7E080E090E0219143
:100C50003191232BB1F4FC01EE0FFF1FE852F84F46
:100C600026EB33E03183208383589F4F9093BB035F
:100C70008093BA0384EC93E09093BD038093BC030C
:100C8000089501968931910511F708950F931F93E7
:100C9000CF93DF93CDB7DEB72A970FB6F894DEBFB8
:100CA0000FBECDBF8C0183E693E09A8389831B82BC
:100CB0001C821D821E821F82188619861A86D80100
:100CC000ED91FC910190F081E02DAE014F5F5F4FFF
:100CD0006AE070E0C80119950E94F70AF801608780
:100CE0007187828793872A960FB6F894DEBF0FBE6E
:100CF000CDBFDF91CF911F910F9108954F925F92D9
:100D00006F927F928F929F92AF92BF92CF92DF921B
:100D1000EF92FF920F931F93CF93DF93CDB7DEB780
:100D20002E970FB6F894DEBF0FBECDBF8C018FE6B5
:100D300093E09A8389831C821B828AE393E09E83DB
:100D40008D8398878F839A8789871B861C861D864B
:100D50001E86580182E3A80EB11C7801412C92E056
:100D6000592E612C712C6701ACEECA1AABEFDA0A6E
:100D7000D601ED91FC913097B9F1848195819C83E6
:100D80008B83808191819E838D8382819381DC011D
:100D9000ED91FC910480F581E02D199598878F8362
:100DA000D601ED91FC9182819381DC01ED91FC9162
:100DB0000680F781E02D19959A8789874B865C8696
:100DC0006D867E86F80180819181F601A081B181D6
:100DD00018966D917C911997DC01ED91FC91AE0113
:100DE0004F5F5F4FC8011995B2E0EB0EF11CEA149A
:100DF000FB0409F0B8CF7801412C82E0582E612C19
:100E0000712C6701EAEBCE1AEBEFDE0AF601A08146
:100E1000B1811097E1F112968D919C9113979C836B
:100E20008B8314968D919C9115979E838D83ED9164
:100E3000FC9111970480F581E02DCD0119959887DB
:100E40008F83D6018D919C91DC01ED91FC91068000
:100E5000F781E02D19959A8789874B865C866D8688
:100E60007E86D801ED91FC9180809180F601808191
:100E70009181DC01ED91FC910280F381E02D1995C7
:100E8000AE014F5F5F4FBC01C801F4011995F2E05C
:100E9000EF0EF11CEA14FB0409F0B3CFF801EE5792
:100EA000FB4F81E080832E960FB6F894DEBF0FBE15
:100EB000CDBFDF91CF911F910F91FF90EF90DF9009
:100EC000CF90BF90AF909F908F907F906F905F90EA
:100ED0004F9008958F929F92AF92BF92CF92DF92E0
:100EE000EF92FF920F931F93CF93DF93CDB7DEB7AF
:100EF0002A970FB6F894DEBF0FBECDBF8C015B0101
:100F000083E693E09A8389831B821C821D821E8262
:100F10001F82188619861A860E94F70A6B017C01C7
:100F2000F80180859185A285B385C81AD90AEA0A95
:100F3000FB0AB501CE0101960E94090128EE822E1E
:100F400023E0922EA12CB12CC701B601A50194017A
:100F50000E949F1269017A019B01AC018B819C81E7
:100F6000AD81BE818C0D9D1DAE1DBF1D8B839C83ED
:100F7000AD83BE8360E472E48FE090E00E947B1258
:100F8000CF80D884E984FA84C60ED71EE81EF91EE5
:100F9000CF82D886E986FA860E94F70ACB80DC8069
:100FA000ED80FE80F1E0CF1AD108E108F108A5013B
:100FB00094010E949F1249015A019B01AC01C8187B
:100FC000D908EA08FB08F801C486D586E686F786C4
:100FD000CF80D884E984FA84F6E3DF1AF5E6EF0AD5
:100FE000F4ECFF0A60E472E48FE090E00E947B1270
:100FF000C61AD70AE80AF90AF801C08AD18AE28A31
:10100000F38AB801605F7F4FC8010C960E941912E5
:101010000E94F70AF801E957FB4F608371838283CE
:1010200093832A960FB6F894DEBF0FBECDBFDF9133
:10103000CF911F910F91FF90EF90DF90CF90BF90D5
:10104000AF909F908F9008952F923F924F925F9212
:101050006F927F928F929F92AF92BF92CF92DF92C8
:10106000EF92FF920F931F93CF93DF93CDB7DEB72D
:1010700060970FB6F894DEBF0FBECDBF4C010E9443
:10108000F70A6B017C01940129573B4F3E832D8366
:10109000F90180819181A281B381A7019601281B6A
:1010A000390B4A0B5B0BDA01C901893F9A42A10552
:1010B000B10510F035971082A40148585B4F588B4A
:1010C0004F87DA018D919C91892B79F0F401E557D6
:1010D000FB4F80819181A281B3818C159D05AE0566
:1010E000BF0518F4FA01118210823401F0E86F1A7A
:1010F000FBEF7F0A940124583B4F3A832983A401D4
:101100004E575B4F58874F832C5E3F4F3C872B8752
:10111000435F5F4F5E874D87840106581B4F160162
:10112000270154E1250E311C411C511C540184E15E
:10113000A80EB11C940122583B4F3C832B83A40181
:1011400045575B4F5A874987D40112968D919C91E0
:101150001397DC01ED91FC910680F781E02D199544
:101160009C0197FD2DC1F30180819181820F931F16
:1011700091838083AF85B8894D915C91473051054B
:10118000E1F4EB81FC8180819181AC014F5F5F4F85
:1011900051834083F401E80FF91F248BD8018D910E
:1011A0009C91119701978D939C93892B09F0BECF49
:1011B00028E030E0EF85F88987C04115510519F521
:1011C0002F3F310569F481E090E0AF85B8898D93B8
:1011D0009C93E985FA852082318242825382B4CF82
:1011E0000E94F70A6C197D098E099F096630710506
:1011F0008105910508F49ACFF401EE57FB4F108258
:101200008EEF9FEF03C14130510599F42E3F310518
:1012100019F482E090E02FC0EF85F88911821082E6
:10122000AF81B8858C91811181CFC4010E9446069F
:101230008BCF4230510589F4F80131832083AB8193
:10124000BC811D921C9283E090E0EF85F889918328
:101250008083D3012D933C9377CF4330510581F4A4
:10126000322F2227F80180819181820F931F918371
:10127000808384E090E0AF85B8898D939C9364CFA0
:101280004430510599F460E071E00E948B128F3F69
:10129000910539F485E090E0EF85F88991838083AA
:1012A00053CFAF85B8891D921C924ECF4530510562
:1012B00071F4E981FA813183208386E090E0AF8583
:1012C000B8898D939C93F301318320833DCF4630C1
:1012D0005105D1F4322F2227A981BA818D919C9199
:1012E0001197820F931F8D939C9327E030E0EF8539
:1012F000F88931832083D8018D919C91892B09F045
:1013000015CF28E030E0E0CF4830510509F00ECF8E
:10131000AF85B8891D921C9260E071E00E948B122B
:101320008F3F910509F002CFA981BA81ED91FC911F
:101330003097B1F4C4010E944606C4010E947E06A3
:10134000F401ED57FB4FC082D182E282F382ED813E
:10135000FE81C082D182E282F3828FEF9FEF56C07E
:10136000EA30F10529F4B501C4010E946A07ECCE08
:10137000E630F10551F4B5018B859C850E944D0442
:1013800081E0AD85BE858C93DFCEEB30F10521F495
:10139000EF81F8851082D8CEE154FE4FEE0FFF1F8B
:1013A000E80DF91D80819181009709F4BFCEDC0121
:1013B000ED91FC910190F081E02DB5011995C4CE1D
:1013C000F401EE57FB4F80818823F1F084010D5723
:1013D0001B4FF80180819181A281B381A701960101
:1013E000281B390B4A0B5B0BDA01C901853C99407C
:1013F000A105B10548F0C4010E944606D801CD926E
:10140000DD92ED92FC92139780E090E060960FB62B
:10141000F894DEBF0FBECDBFDF91CF911F910F912A
:10142000FF90EF90DF90CF90BF90AF909F908F9004
:101430007F906F905F904F903F902F90089580E045
:1014400092E09093C3038093C2038091BC03909178
:10145000BD03DC01ED91FC916091BA037091BB0377
:101460000190F081E02D40EC53E0199584EC93E07D
:101470000E94240868EE73E080E090E00C94260B54
:101480008FE993E09093C5038093C40388ED98E0BF
:101490009093C7038093C60380E091EEA0E0B0E094
:1014A0008093C8039093C903A093CA03B093CB035E
:1014B0001092460887E893E090935508809354086B
:1014C0001092560810925C0810925B0810925D080A
:1014D00010926308109262081092640810926808D3
:1014E00010926708E8EDF7E01192119288E0EA3077
:1014F000F807D1F7EAE0F8E01192119288E0EC33B6
:10150000F807D1F7E8EDF3E0119285E0E83DF80740
:10151000D9F7E8EDF5E0119287E0E83DF807D9F753
:1015200083E993E09093C1038093C0038AE393E03F
:101530009093C3038093C2038BE393E09093B7032C
:101540008093B60380EC93E09093B9038093B80343
:101550001092BF031092BE0308951F920F920FB610
:101560000F9211242F933F938F939F93AF93BF9329
:1015700080916A0890916B08A0916C08B0916D08F9
:101580003091690823E0230F2D3720F40196A11D27
:10159000B11D05C026E8230F0296A11DB11D2093A1
:1015A000690880936A0890936B08A0936C08B093C5
:1015B0006D0880916E0890916F08A0917008B091AD
:1015C00071080196A11DB11D80936E0890936F085C
:1015D000A0937008B0937108BF91AF919F918F91C4
:1015E0003F912F910F900FBE0F901F9018952FB71E
:1015F000F89460916A0870916B0880916C089091E2
:101600006D082FBF08953FB7F89480916E089091B0
:101610006F08A0917008B091710826B5A89B05C00D
:101620002F3F19F00196A11DB11D3FBF6627782FEE
:10163000892F9A2F620F711D811D911D42E0660F47
:10164000771F881F991F4A95D1F70895CF92DF928F
:10165000EF92FF92CF93DF936B017C010E94030B0B
:10166000EB01C114D104E104F10479F00E94030BF1
:101670006C1B7D0B683E7340A0F381E0C81AD10853
:10168000E108F108C851DC4FECCFDF91CF91FF901A
:10169000EF90DF90CF900895789484B5826084BDF8
:1016A00084B5816084BD85B5826085BD85B5816066
:1016B00085BDEEE6F0E0808181608083E1E8F0E0C6
:1016C0001082808182608083808181608083E0E8F5
:1016D000F0E0808181608083E1EBF0E080818460D4
:1016E0008083E0EBF0E0808181608083E1E9F0E0DD
:1016F000808182608083808181608083E0E9F0E086
:10170000808181608083E1EAF0E080818260808373
:10171000808181608083E0EAF0E080818160808365
:10172000E1E2F1E08081826080838081816080835A
:10173000E0E2F1E0808181608083EAE7F0E080818F
:1017400084608083808182608083808181608083E7
:101750008081806880831092C10008956F927F928B
:101760008F929F92AF92BF92CF92DF92EF92FF92B1
:101770000F931F93CF93DF93EC01CB01209781F45C
:10178000DF91CF911F910F91FF90EF90DF90CF905D
:10179000BF90AF909F908F907F906F900C94970C1C
:1017A000FE01E60FF71F9E0122503109E217F307F1
:1017B00008F4ACC0D9010D911C91119706171707B9
:1017C000B8F00530110508F49FC0A8014450510934
:1017D0004617570708F498C002501109061B170B4B
:1017E000019311936D937C93CF010E942F0D8CC0B8
:1017F0005B01A01AB10A4E01800E911EA0911C0B34
:10180000B0911D0B612C712C60E070E0109709F411
:1018100049C0A815B905C9F5ED90FC90119767016D
:1018200042E0C40ED11CCA14DB0478F147018A18C7
:101830009B08640142E0C40ED11C1296BC90129722
:101840001396AC91B5E0CB16D10440F0B282A383DD
:1018500091828082D9018D939C9309C00E5F1F4FA6
:101860000E0D1F1DF90111830083EB2DFA2F611559
:10187000710531F0DB011396FC93EE93129744C08F
:10188000F0931D0BE0931C0B3FC06D917C91119761
:101890006616770608F43B01BD0112960D90BC91C7
:1018A000A02DB4CF60911A0B70911B0B68157905B0
:1018B000E9F468167906D0F440910D0250910E02B9
:1018C0004115510541F44DB75EB760911102709119
:1018D0001202461B570BE417F507C0F4F0931B0BDD
:1018E000E0931A0BF901918380830EC00E94970C3C
:1018F0007C01009759F0A801BE010E947212CE012E
:101900000E942F0DC70104C0CE0102C080E090E00C
:10191000DF91CF911F910F91FF90EF90DF90CF90CB
:10192000BF90AF909F908F907F906F900895CF93CE
:10193000DF938230910510F482E090E0E0911C0B7F
:10194000F0911D0B20E030E0A0E0B0E0309739F1DD
:101950004081518148175907B8F04817590771F469
:1019600082819381109729F013969C938E931297FE
:101970002CC090931D0B80931C0B27C021153105A3
:1019800031F04217530718F0A901DB0101C0EF0144
:101990009A01BD01DF010280F381E02DD7CF21152F
:1019A0003105F9F0281B390B2430310580F48A8188
:1019B0009B816115710521F0FB019383828304C033
:1019C00090931D0B80931C0BFE01329644C0FE01C8
:1019D000E20FF31F819391932250310939832883B9
:1019E0003AC020911A0B30911B0B232B41F420910C
:1019F0000F023091100230931B0B20931A0B209191
:101A00000D0230910E022115310541F42DB73EB77C
:101A10004091110250911202241B350BE0911A0BD8
:101A2000F0911B0BE217F307A0F42E1B3F0B2817B6
:101A3000390778F0AC014E5F5F4F2417350748F047
:101A40004E0F5F1F50931B0B40931A0B8193919382
:101A500002C0E0E0F0E0CF01DF91CF910895CF9395
:101A6000DF93009709F487C0FC013297138212823A
:101A7000C0911C0BD0911D0B209781F420813181E6
:101A8000280F391F80911A0B90911B0B8217930717
:101A900079F5F0931B0BE0931A0B6DC0DE0120E08B
:101AA00030E0AE17BF0750F412964D915C9113973A
:101AB0009D014115510509F1DA01F3CFB383A283EA
:101AC00040815181840F951F8A179B0771F48D9176
:101AD0009C911197840F951F029691838083129693
:101AE0008D919C911397938382832115310529F45D
:101AF000F0931D0BE0931C0B3EC0D9011396FC9391
:101B0000EE9312974D915D91A40FB51FEA17FB0755
:101B100079F480819181840F951F0296D9011196E5
:101B20009C938E938281938113969C938E931297AC
:101B3000E0E0F0E08A819B81009719F0FE01EC0162
:101B4000F9CFCE01029628813981820F931F20910F
:101B50001A0B30911B0B2817390769F4309729F4B9
:101B600010921D0B10921C0B02C013821282D09394
:101B70001B0BC0931A0BDF91CF9108950E944C0B61
:101B80000E940506C5E4DFE00E941F0A2097E1F3EA
:101B90000E94450FF9CFFC0124853585F901E05CF1
:101BA000FF4F80819181329620813181821B930B7E
:101BB0008F7399270895FC0184859585FC01E05C6D
:101BC000FF4F408151813296208131814217530766
:101BD00041F00190F081E02DE80FF91F808190E045
:101BE00008958FEF9FEF0895FC0184859585FC0192
:101BF000E05CFF4F40815181329620813181421754
:101C0000530779F0A081B181A80FB91F8C91208171
:101C100031812F5F3F4F2F7333273183208390E033
:101C200008958FEF9FEF0895FC0181A1882329F08B
:101C3000A489B5898C9186FFFBCF11A20895CF931B
:101C4000DF93FC0126853785D901A05CBF4F8D91BC
:101C50009C91119701968F739927E901CE5BDF4F15
:101C60004881598184179507D9F30D90BC91A02D17
:101C7000A20FB31F6C93A685B785A05CBF4F1196CA
:101C80009C938E93A689B7892C9181E090E0078C74
:101C900002C0880F991F0A94E2F7282B2C9381E049
:101CA00081A30488F589E02D80818064808381E0B0
:101CB00090E0DF91CF910895FB01E05CFF4F208120
:101CC00031812F5F3F4F2F733327DB01AE5BBF4F57
:101CD0004D915C912417350739F0A081B181A60F91
:101CE000B71F8C9331832083089508951F920F921C
:101CF0000FB60F9211240BB60F922F933F934F9371
:101D00005F936F937F938F939F93AF93BF93EF9363
:101D1000FF938091C00082FD07C08091C60066EDF0
:101D20007AE00E945C0E02C08091C600FF91EF91A4
:101D3000BF91AF919F918F917F916F915F914F91E3
:101D40003F912F910F900BBE0F900FBE0F901F90E1
:101D5000189508951F920F920FB60F9211240BB68B
:101D60000F922F933F934F935F936F937F938F9334
:101D70009F93AF93BF93EF93FF938091C80082FD31
:101D800007C08091CE006EE47AE00E945C0E02C033
:101D90008091CE00FF91EF91BF91AF919F918F9174
:101DA0007F916F915F914F913F912F910F900BBE5B
:101DB0000F900FBE0F901F90189508951F920F92CD
:101DC0000FB60F9211240BB60F922F933F934F93A0
:101DD0005F936F937F938F939F93AF93BF93EF9393
:101DE000FF938091D00082FD07C08091D60066EC01
:101DF00079E00E945C0E02C08091D600FF91EF91C5
:101E0000BF91AF919F918F917F916F915F914F9112
:101E10003F912F910F900BBE0F900FBE0F901F9010
:101E2000189508951F920F920FB60F9211240BB6BA
:101E30000F922F933F934F935F936F937F938F9363
:101E40009F93AF93BF93EF93FF938091300182FDF7
:101E500007C0809136016EE379E00E945C0E02C0FB
:101E600080913601FF91EF91BF91AF919F918F913A
:101E70007F916F915F914F913F912F910F900BBE8A
:101E80000F900FBE0F901F90189588ED98E00E945C
:101E9000CB0D892B11F00E94750E86EB98E00E9405
:101EA000CB0D892B11F00E94A90E84E998E00E94C5
:101EB000CB0D892B11F00E94DD0E82E798E00E9485
:101EC000CB0D892B11F00C94110F08951F920F92D6
:101ED0000FB60F9211240BB60F922F933F938F934F
:101EE0009F93EF93FF932091D20A3091D30A809170
:101EF000D40A9091D50A2817390731F48091C1008E
:101F00008F7D8093C10014C0E091D40AF091D50A6E
:101F1000EE56F54F20818091D40A9091D50A019612
:101F20008F7399279093D50A8093D40A2093C60083
:101F3000FF91EF919F918F913F912F910F900BBE49
:101F40000F900FBE0F901F9018951F920F920FB613
:101F50000F9211240BB60F922F933F938F939F9361
:101F6000EF93FF9320914A0A30914B0A80914C0ADB
:101F700090914D0A2817390731F48091C9008F7D5F
:101F80008093C90014C0E0914C0AF0914D0AE65FBD
:101F9000F54F208180914C0A90914D0A01968F73E4
:101FA000992790934D0A80934C0A2093CE00FF917D
:101FB000EF919F918F913F912F910F900BBE0F90BA
:101FC0000FBE0F901F9018951F920F920FB60F9291
:101FD00011240BB60F922F933F938F939F93EF9300
:101FE000FF932091C2093091C3098091C409909157
:101FF000C5092817390731F48091D1008F7D80936E
:10200000D10014C0E091C409F091C509EE57F64F14
:1020100020818091C4099091C50901968F739927F9
:102020009093C5098093C4092093D600FF91EF9146
:102030009F918F913F912F910F900BBE0F900FBEEC
:102040000F901F9018951F920F920FB60F921124A8
:102050000BB60F922F933F938F939F93EF93FF9322
:1020600020913A0930913B0980913C0990913D09BA
:102070002817390731F4809131018F7D8093310128
:1020800014C0E0913C09F0913D09E650F74F2081E2
:1020900080913C0990913D0901968F739927909307
:1020A0003D0980933C0920933601FF91EF919F9168
:1020B0008F913F912F910F900BBE0F900FBE0F90FD
:1020C0001F901895CF92DF92EF92FF92CF93DF93FC
:1020D000EC016A017B01411581EE5807610571052C
:1020E000F9F0EC89FD8981E090E008A002C0880F3A
:1020F000991F0A94E2F7808360E079E08DE390E035
:10210000A70196010E949F122150310941095109EE
:102110005695479537952795211580E1380798F012
:10212000EC89FD89108260E874E88EE190E0A701F7
:1021300096010E949F12215031094109510956957B
:10214000479537952795E889F9893083EA89FB898E
:10215000208319A2EE89FF89408181E090E09C01F3
:102160000C8C02C0220F331F0A94E2F7422B4083EB
:10217000EE89FF8940819C010D8C02C0220F331F24
:102180000A94E2F7422B4083EE89FF8940819C014B
:102190000E8C02C0220F331F0A94E2F7422B4083B9
:1021A000EE89FF8920810F8C02C0880F991F0A9445
:1021B000E2F7809582238083DF91CF91FF90EF90AB
:1021C000DF90CF900895CF931092DB081092DA0839
:1021D00088EE93E0A0E0B0E08093DC089093DD0807
:1021E000A093DE08B093DF0829EA33E03093D908E2
:1021F0002093D80846ED5AE05093E5084093E40850
:1022000042E95AE05093E7084093E60845EC50E075
:102210005093E9084093E80844EC50E05093EB08F1
:102220004093EA0840EC50E05093ED084093EC08EE
:1022300041EC50E05093EF084093EE0842EC50E040
:102240005093F1084093F00846EC50E05093F308A7
:102250004093F208C4E0C093F408F3E0F093F5086B
:10226000E7E0E093F60875E07093F70861E06093AB
:10227000F8081092B9081092B8088093BA089093A1
:10228000BB08A093BC08B093BD083093B708209357
:10229000B6084EE45AE05093C3084093C2084AE09F
:1022A0005AE05093C5084093C4084DEC50E0509359
:1022B000C7084093C6084CEC50E05093C9084093BF
:1022C000C80848EC50E05093CB084093CA0849EC4A
:1022D00050E05093CD084093CC084AEC50E0509326
:1022E000CF084093CE084EEC50E05093D108409375
:1022F000D008C093D208F093D308E093D408709329
:10230000D5086093D608109297081092960880938B
:10231000980890939908A0939A08B0939B083093DB
:1023200095082093940846EC59E05093A1084093F7
:10233000A00842E859E05093A3084093A20845ED55
:1023400050E05093A5084093A40844ED50E050930A
:10235000A7084093A60840ED50E05093A908409389
:10236000A80841ED50E05093AB084093AA0842ED15
:1023700050E05093AD084093AC0846ED50E05093C8
:10238000AF084093AE08C093B008F093B108E09353
:10239000B2087093B3086093B40810927508109255
:1023A00074088093760890937708A0937808B09388
:1023B000790830937308209372088EE399E0909324
:1023C0007F0880937E088AEF98E09093810880933D
:1023D000800885E391E0909383088093820884E3EA
:1023E00091E0909385088093840880E391E0909336
:1023F00087088093860881E391E090938908809311
:10240000880882E391E090938B0880938A0886E3A2
:1024100091E090938D0880938C08C0938E08F09380
:102420008F08E09390087093910860939208CF9181
:102430000895CF92DF92EF92FF920F931F93CF9365
:10244000DF938C01EB01688179818A819B8120E097
:102450003AEC4AE95BE30E949F12F801C080D18008
:10246000E280F380C20ED31EE41EF51EC082D1822C
:10247000E282F382688379838A839B83DF91CF91A1
:102480001F910F91FF90EF90DF90CF900895CF9222
:10249000DF92EF92FF920F931F93CF93DF936C0124
:1024A0007A01EB01E60EF71E00E010E0CE15DF0525
:1024B00061F06991D601ED91FC910190F081E02DE0
:1024C000C6011995080F191FF1CFC801DF91CF91EF
:1024D0001F910F91FF90EF90DF90CF900895F894A7
:1024E0000C94F312FB01DC0102C001900D924150EB
:1024F0005040D8F70895DB018F939F930E94C1123B
:10250000BF91AF91A29F800D911DA39F900DB29F8F
:10251000900D1124089597FB072E16F4009407D010
:1025200077FD09D00E94D01207FC05D03EF49095AB
:1025300081959F4F0895709561957F4F0895A1E211
:102540001A2EAA1BBB1BFD010DC0AA1FBB1FEE1F2D
:10255000FF1FA217B307E407F50720F0A21BB30B78
:10256000E40BF50B661F771F881F991F1A9469F7F4
:1025700060957095809590959B01AC01BD01CF0150
:1025800008950E94E412A59F900DB49F900DA49F02
:10259000800D911D112408950790F691E02D199456
:1025A000AA1BBB1B51E107C0AA1FBB1FA617B70779
:1025B00010F0A61BB70B881F991F5A95A9F7809595
:1025C0009095BC01CD010895A29FB001B39FC001B9
:1025D000A39F700D811D1124911DB29F700D811D4F
:0A25E0001124911D0895F894FFCF17
:1025EA0068656C6C6F20776F726C64210000001E46
:1025FA000B80007374645F6D7367732F54696D6524
:10260A0000636437313636633734633535326333C2
:10261A0031316662636332666535613762633238C7
:10262A003900726F7373657269616C5F6D7367737A
:10263A002F546F706963496E666F0030616435317B
:10264A00663838666334343839326638633130363E
:10265A00383430373736343630303500726F73736A
:10266A00657269616C5F6D7367732F4C6F670031B8
:10267A00316162643733316332353933333236315B
:10268A006364363138336264313264363239350044
:10269A0039663065393862646136353938313938E6
:1026AA00366464663533616661376134306534395E
:1026BA00007374645F6D7367732F537472696E6706
:1026CA0000393932636538613136383763656338C2
:1026DA00633862643838336563373363613431642D
:1026EA0031004D6573736167652066726F6D206492
:1026FA0065766963652064726F707065643A206DEF
:10270A00657373616765206C6172676572207468AE
:10271A00616E206275666665722E00636861747404
:10272A00657200726F7373657269616C5F6D73674E
:10273A00732F52657175657374506172616D000013
:10274A00000000E70009014F01520100000000CA21
:10275A000255012D023002000000005203330277B5
:10276A00027A02000000007E034D047D028002000E
:10277A0000000026048302BF02C202000000005FBC
:10278A00052408C502000000001F0E4712CB0DF4F5
:06279A000DDB0D140E0022
:00000001FF
