:100000000C9459000C9481000C9481000C94810094
:100010000C9481000C9481000C9481000C9469066E
:100020000C9481000C9481000C9481000C9481004C
:100030000C9481000C9481000C9481000C9481003C
:100040000C9482010C9481000C94AE030C94F10387
:100050000C9481000C9481000C9481000C9481001C
:100060000C9481000C94810001020408102040804F
:1000700001020408102001020408102004040404F2
:100080000404040402020202020203030303030342
:1000900000000000230026002900000000002500C9
:1000A00028002B0000000000240027002A006A011D
:1000B000AD0411241FBECFEFD8E0DEBFCDBF11E0ED
:1000C000A0E0B1E0EAE7FDE002C005900D92A631A4
:1000D000B107D9F722E0A6E1B1E001C01D92A43139
:1000E000B207E1F710E0C2EBD0E004C02297FE01B6
:1000F0000E94B706CE3AD107C9F70E940F030C94AD
:1001000090060C9400001F93CF93DF9380914C01D5
:1001100012E1189FC00111248A5E9E4F0E94D505EE
:100120008823D9F080914C0190E0EC01CC0FDD1FC9
:10013000C35BDE4F189FF001199FF00D1124EA5E9A
:10014000FE4F608171818281938129E330E040E03C
:1001500050E00E94930639832883DF91CF911F914D
:1001600008951F93CF93DF93CDE4D1E010E04AE0F0
:1001700050E0612F88E691E00E94020360E071E0A8
:1001800088E691E00E947F02699179914AE050E00F
:1001900088E691E00E94090362E071E088E691E060
:1001A0000E947F021F5F133011F788E691E0DF9114
:1001B000CF911F910C9488020F931F9340E052EC53
:1001C00061E070E088E691E00E942C040E94CC017E
:1001D0008B019C01055B1F4F2F4F3F4F0093530135
:1001E0001093540120935501309356018B019C01CB
:1001F00004591F4F2F4F3F4F009357011093580141
:100200002093590130935A01DC01CB0183579F4F52
:10021000AF4FBF4F80935B0190935C01A0935D0152
:10022000B0935E011F910F9108958F929F92AF92AC
:10023000BF92DF92EF92FF920F931F93CF93DF93C2
:10024000C3E5D1E03DE4E32E31E0F32E06E111E019
:10025000D12C0E94CC0188809980AA80BB8068152F
:1002600079058A059B0500F1B501A4014D595F4F41
:100270006F4F7F4F488359836A837B83D11006C0B9
:1002800080914C01823011F40E94B1000E94CF0590
:10029000D0924C01F7011182108240E050E063E8F7
:1002A00070E0C8010E944A06D3942496F2E0EF0E53
:1002B000F11C0E5E1F4F83E0D812CBCFDF91CF91A0
:1002C0001F910F91FF90EF90DF90BF90AF909F90A4
:1002D0008F90089528EC30E042E063E086E191E001
:1002E0000E94820528EC30E044E065E088E291E07D
:1002F0000E94820528EC30E046E067E08AE391E066
:100300000C9482051F920F920FB60F9211242F9317
:100310003F938F939F93AF93BF9380916001909190
:100320006101A0916201B091630130915F0123E00E
:10033000230F2D3720F40196A11DB11D05C026E81D
:10034000230F0296A11DB11D20935F0180936001D0
:1003500090936101A0936201B09363018091640165
:1003600090916501A0916601B09167010196A11D70
:10037000B11D8093640190936501A0936601B093D1
:100380006701BF91AF919F918F913F912F910F90F6
:100390000FBE0F901F9018952FB7F89460916001D1
:1003A0007091610180916201909163012FBF089566
:1003B0003FB7F8948091640190916501A091660126
:1003C000B091670126B5A89B05C02F3F19F0019693
:1003D000A11DB11D3FBF6627782F892F9A2F620F6D
:1003E000711D811D911D42E0660F771F881F991FA7
:1003F0004A95D1F708950197009739F0880F991F12
:10040000880F991F02970197F1F70895789484B5A2
:10041000826084BD84B5816084BD85B5826085BD00
:1004200085B5816085BDEEE6F0E0808181608083E6
:10043000E1E8F0E0108280818260808380818160C9
:100440008083E0E8F0E0808181608083E1EBF0E090
:10045000808184608083E0EBF0E080818160808334
:10046000EAE7F0E08081846080838081826080831D
:100470008081816080838081806880831092C10048
:100480000895CF92DF92EF92FF920F931F93CF9335
:10049000DF936C017A01EB01E60EF71E00E010E03D
:1004A000CE15DF0561F06991D601ED91FC910190C7
:1004B000F081E02DC6010995080F191FF1CFC80181
:1004C000DF91CF911F910F91FF90EF90DF90CF9030
:1004D00008956115710581F0DB010D900020E9F7A9
:1004E000AD0141505109461B570BDC01ED91FC91C8
:1004F0000280F381E02D099480E090E008950C944F
:100500006902DC01ED91FC910190F081E02D0994EC
:100510000F931F93CF93DF93EC016DE00E94810254
:100520008C016AE0CE010E948102800F911FDF9151
:10053000CF911F910F9108958F929F92AF92BF928A
:10054000CF92DF92EF92FF920F931F93CF93DF939F
:10055000CDB7DEB7A1970FB6F894DEBF0FBECDBF03
:100560007C01C42EE52FCB01D22E19A221E02D153E
:1005700010F02AE0D22E8E010F5D1F4F8D2C912C92
:10058000A12CB12C6C2D7E2FA50194010E94930605
:100590008C2DD29E80191124015011098A3014F437
:1005A000805D01C0895CF80180832115310541051A
:1005B000510521F0C22EE32FCA01E4CFB801C701D3
:1005C0000E946902A1960FB6F894DEBF0FBECDBFA0
:1005D000DF91CF911F910F91FF90EF90DF90CF901F
:1005E000BF90AF909F908F9008952115310541F4F1
:1005F000DC01ED91FC910190F081E02D642F0994D4
:100600000C949C029A01462F50E060E070E00C943C
:10061000F5029A01AB0160E070E00C94F5020E94D3
:1006200006020E94DC00C8EED3E00E94150120976C
:10063000E1F30E94E803F9CFFC0124853585F90137
:10064000E05CFF4F80819181329620813181821B55
:10065000930B8F7399270895FC0184859585FC0180
:10066000E05CFF4F408151813296208131814217F9
:10067000530741F00190F081E02DE80FF91F8081D0
:1006800090E008958FEF9FEF0895FC018485958594
:10069000FC01E05CFF4F4081518132962081318125
:1006A0004217530779F0A081B181A80FB91F8C912F
:1006B000208131812F5F3F4F2F7333273183208378
:1006C00090E008958FEF9FEF0895FC0181A18823AA
:1006D00029F0A489B5898C9186FFFBCF11A20895DA
:1006E000CF93DF93FC0126853785D901A05CBF4FEE
:1006F0008D919C91119701968F739927E901CE5B9B
:10070000DF4F4881598184179507D9F30D90BC912B
:10071000A02DA20FB31F6C93A685B785A05CBF4F19
:1007200011969C938E93A689B7892C9181E090E0D5
:10073000078C02C0880F991F0A94E2F7282B2C938C
:1007400081E081A30488F589E02D80818064808325
:1007500081E090E0DF91CF91089508951F920F926C
:100760000FB60F9211242F933F934F938F939F9324
:10077000EF93FF938091C00082FD1CC04091C600A2
:1007800080910E0290910F0201968F73992720910C
:100790001002309111028217930771F0E0910E025E
:1007A000F0910F02E253FE4F408390930F0280932B
:1007B0000E0202C08091C600FF91EF919F918F9130
:1007C0004F913F912F910F900FBE0F901F90189552
:1007D00088E691E00E941C03892B11F00C94AD0374
:1007E00008951F920F920FB60F9211242F933F93EB
:1007F0008F939F93EF93FF932091CA013091CB0188
:100800008091CC019091CD012817390731F4809166
:10081000C1008F7D8093C10014C0E091CC01F091A4
:10082000CD01E657FE4F20818091CC019091CD0102
:1008300001968F7399279093CD018093CC012093DB
:10084000C600FF91EF919F918F913F912F910F9053
:100850000FBE0F901F901895CF92DF92EF92FF92EC
:10086000CF93DF93EC016A017B01411581EE5807BC
:1008700061057105F9F0EC89FD8981E090E008A03F
:1008800002C0880F991F0A94E2F7808360E079E044
:100890008DE390E0A70196010E9493062150310953
:1008A000410951095695479537952795211580E1BE
:1008B000380798F0EC89FD89108260E874E88EE1D1
:1008C00090E0A70196010E94930621503109410949
:1008D00051095695479537952795E889F9893083C9
:1008E000EA89FB89208319A2EE89FF89408181E092
:1008F00090E09C010C8C02C0220F331F0A94E2F797
:10090000422B4083EE89FF8940819C010D8C02C0FF
:10091000220F331F0A94E2F7422B4083EE89FF89AE
:1009200040819C010E8C02C0220F331F0A94E2F713
:10093000422B4083EE89FF8920810F8C02C0880FF3
:10094000991F0A94E2F7809582238083DF91CF91EB
:10095000FF90EF90DF90CF90089510926B0110926E
:100960006A0188EE93E0A0E0B0E080936C01909380
:100970006D01A0936E01B0936F018AE091E09093B6
:100980006901809368018EEC91E0909375018093EA
:1009900074018AE891E0909377018093760185EC69
:1009A00090E0909379018093780184EC90E09093AB
:1009B0007B0180937A0180EC90E090937D0180939D
:1009C0007C0181EC90E090937F0180937E0182EC2A
:1009D00090E0909381018093800186EC90E0909369
:1009E00083018093820184E08093840183E080937B
:1009F000850187E08093860185E08093870181E00F
:100A00008093880108950F931F93CF93DF93EC0198
:100A1000EA85FB8580819C81892B8083EE81FF8123
:100A200090818C8180958923808384E090E00E946E
:100A3000FB01EE81FF8180819C81892B80838AE08C
:100A400090E00E94FB01EE81FF8190818C81809576
:100A500089238083EA85FB8590818C818095892319
:100A60008083E885F98580819D81892311F080E06C
:100A700032C00E94D8014C855D858A0120E030E0BB
:100A80000855194E2F4F3F4F060F171F281F391FAC
:100A90000E871F87288B398BE885F98580819D819A
:100AA000892361F40E94D8010E851F852889398920
:100AB000061717072807390778F7D9CF0E94D801FA
:100AC0002C853D85620F731F811D911D6E877F8769
:100AD000888B998B81E0DF91CF911F910F910895C1
:100AE0006F5F7F4F49E3469F9001479F300D112470
:100AF0002E384FE6340710F02DE83FE6FC0135872D
:100B0000248708950F931F93CF93DF93DC01062F63
:100B100010E0F801E859FF4FE4911496EC93149714
:100B2000842F90E0FC01E859FF4FE4911596EC9377
:100B3000159704581F4FF801C491D0E0CC0FDD1F6A
:100B4000C656DF4FFE014591549117965C934E9324
:100B50001697FC01E458FF4F849190E0880F991F8D
:100B600080579F4FFC014591549119965C934E9389
:100B70001897F8010491E02FF0E0EE0FFF1FEC55FD
:100B8000FF4F859194911B969C938E931A97B90170
:100B9000CD01DF91CF911F910F910C947005E0E78B
:100BA000F0E080818D7F80830895CF92DF92EF9275
:100BB000FF920F931F93CF93DF93EC010E94D80114
:100BC0000E851F85288939890617170728073907D1
:100BD00018F40E94CF0525C0E885F98580819D81A4
:100BE0008923F9F40E94CF050E94D8014C855D85C8
:100BF0008A0120E030E0CE84DF84E888F9880C198F
:100C00001D092E093F090D50110921093109060F4F
:100C1000171F281F391F088319832A833B8381E00C
:100C200001C080E0DF91CF911F910F91FF90EF9075
:100C3000DF90CF9008950E94CF05E6EBF0E0808131
:100C40008F7D808382E08093B00084E08093B10048
:100C50001092B2000895CF93DF93EC0170931302CA
:100C6000609312020E941B06CE0196958795969579
:100C7000879501978F3F910519F010F08FEF90E065
:100C80008093B30080917000826080937000DF9148
:100C9000CF9108950F931F93CF93DF93EC018B01B6
:100CA0004115510519F0BA010E947005CE010E944C
:100CB0000305882349F0B80188E190E0DF91CF91E6
:100CC0001F910F910C942B06DF91CF911F910F91E3
:100CD00008951F920F920FB60F9211242F933F93F6
:100CE0004F935F936F937F938F939F93AF93BF9334
:100CF000EF93FF93E0911202F09113020995FF9197
:100D0000EF91BF91AF919F918F917F916F915F9183
:100D10004F913F912F910F900FBE0F901F901895FC
:100D2000F8940C94BB06A1E21A2EAA1BBB1BFD0172
:100D30000DC0AA1FBB1FEE1FFF1FA217B307E407BA
:100D4000F50720F0A21BB30BE40BF50B661F771F12
:100D5000881F991F1A9469F76095709580959095F2
:100D60009B01AC01BD01CF010895EE0FFF1F05905F
:0A0D7000F491E02D0994F894FFCFF0
:100D7A003D00636D200000000000700341021C0367
:060D8A0045032C03650384
:00000001FF
