:100000000C945A000C9482000C9482000C94820090
:100010000C9482000C9482000C9482000C944B147B
:100020000C9482000C9482000C9482000C94820048
:100030000C9482000C9482000C9482000C94820038
:100040000C94F40D0C9482000C9462110C94A51184
:100050000C9482000C9482000C9482000C94820018
:100060000C9482000C94820001020408102040804D
:1000700001020408102001020408102004040404F2
:100080000404040402020202020203030303030342
:1000900000000000230026002900000000002500C9
:1000A00028002B0000000000240027002A004C0D2F
:1000B0006112E80D11241FBECFEFD4E0DEBFCDBF2B
:1000C00013E0A0E0B1E0E0EBFFE202C005900D928A
:1000D000A233B107D9F727E0A2E3B3E001C01D9234
:1000E000AC31B207E1F710E0C2EBD0E004C02297D8
:1000F000FE010E94B817CE3AD107C9F70E94C3107B
:100100000C9496150C940000FC01DB0182818C9309
:10011000838111968C931197848112968C931297F8
:10012000858113968C931397868114968C931497DC
:10013000878115968C931597808516968C931697C4
:10014000818517968C9388E090E00895FC01DB018F
:100150004C9150E060E070E0428353836483758388
:1001600011968C911197582B428353836483758326
:1001700012968C911297682B428353836483758304
:1001800013968C911397782B4283538364837583E2
:1001900014964C91149750E060E070E046835783CA
:1001A0006087718715968C911597582B46835783D6
:1001B0006087718716968C911697682B46835783B4
:1001C0006087718717968C91782B46835783608759
:1001D000718788E090E0089587E091E0089585E1D7
:1001E00091E008956F927F928F929F92AF92BF920B
:1001F000CF92DF92EF92FF920F931F93CF93DF93F3
:10020000FC01DB018C9190E09383828311962C9109
:100210001197922B9383828312964D915D916D91EC
:100220007C9115975D0186E0A80EB11C8A019B01A7
:100230000A5F1F4F2F4F3F4F6501CA1ADB0AE12C9F
:10024000F12CC016D106E206F30640F4E501F99060
:100250005E01CE010297EC01F882EECFED01C40FF2
:10026000D51F1D82CD01059695838483ED01C40FB2
:10027000D51FCE80DF80E884F984465F5F4F3D0163
:10028000640E751E8A01222717FD2095322F0C0D52
:100290001D1D2E1D3F1D43018A1A9B0AA12CB12C46
:1002A00080169106A206B30640F4E30169913E016F
:1002B000CE010297EC016883EECFC40ED51E9D01DE
:1002C0002C0D3D1DC9010197EC01188241505109C7
:1002D0004A0F5B1F57834683E901088119812A81F0
:1002E0003B81D4E0CD0ED11C3D016C0C7D1CA601E0
:1002F000662757FD6095762F400F511F621F731FB1
:1003000043018A1A9B0AA12CB12C84169506A606D5
:10031000B70640F4E301F9903E01CE010297EC01EB
:10032000F882EECF0C0D1D1D9D01200F311FC9015C
:100330000197EC011882D1E0CD1AD108CA0EDB1E5C
:10034000D186C086D90111968C91119712964C9145
:10035000129750E060E070E0BA0155274427582B0F
:100360008C91482B13968C91782B42875387648706
:100370007587C8010496DF91CF911F910F91FF906F
:10038000EF90DF90CF90BF90AF909F908F907F9035
:100390006F90089586E391E008958FE491E00895C9
:1003A000AF92BF92CF92DF92EF92FF921F93CF93C3
:1003B000DF939C01FB018081D90112968C9381818E
:1003C0009281A381B4815B01C5E0AC0EB11CAC018C
:1003D000BD014B5F5F4F6F4F7F4F6501CE1ADF0A44
:1003E000E12CF12CC416D506E606F70650F4E5011B
:1003F000D9905E017E01D2E0ED1AF108E701D882C2
:10040000ECCFEF01C80FD91F1C823496E901FC83A1
:10041000EB830596DF91CF911F91FF90EF90DF90D6
:10042000CF90BF90AF90089580E791E0089583E862
:1004300091E0089588EA92E0089584EA91E00895B1
:10044000FC018281FB01808381E090E00895FB0143
:100450002081FC01228381E090E0089585EC91E009
:10046000089583ED91E00895CF92DF92EF92FF928D
:100470000F931F93CF93DF938C01EB01888190E062
:10048000A0E0B0E0F80182839383A483B58329813F
:10049000922B82839383A483B5832A81A22B8283A8
:1004A0009383A483B5832B81B22B82839383A4830C
:1004B000B5838C8190E0A0E0B0E086839783A0872D
:1004C000B1872D81922B86839783A087B1872E8158
:1004D000A22B86839783A087B1872F81B22B868337
:1004E0009783A087B187488550E060E070E042873D
:1004F0005387648775878985582B4287538764871C
:1005000075878A85682B42875387648775878B85B3
:10051000782B42875387648775878C859D85AE8548
:10052000BF859E01205F3F4FAC01BD01405F5F4F23
:100530006F4F7F4F6901CC1ADD0AE12CF12CC416F4
:10054000D506E606F70650F4F901D1909F017F0128
:10055000F2E0EF1AF108F701D082ECCF9E01280FEC
:10056000391FF90117862F96F801D787C68740965D
:10057000DF91CF911F910F91FF90EF90DF90CF907F
:10058000089584EF91E0089584E092E008950F9338
:100590001F93CF93DF93EC018B0102960E943402EC
:1005A000F801E80FF91F20812A8B2281438150E056
:1005B00060E070E0BA0155274427522B2181422B7D
:1005C0002481722B4B8B5C8B6D8B7E8B26814781BC
:1005D00050E060E070E0BA0155274427522B258196
:1005E000422B2085722B4F8B588F698F7A8F2285F3
:1005F000438550E060E070E0BA0155274427522B54
:100600002185422B2485722B4B8F5C8F6D8F7E8FC3
:100610002685478550E060E070E0BA015527442701
:10062000522B2585422B2089722B4F8F58A369A30B
:100630007AA34196DF91CF911F910F91089585E2A2
:1006400092E0089587E392E008958E599E4FFC0151
:1006500080810895AF92BF92CF92DF92EF92FF9286
:100660000F931F93CF93DF93EC017B018A81DB0112
:100670008C938B8111968C93EC81FD81DF010D9021
:100680000020E9F7CD0101976C01CE1ADF0AC601FF
:10069000A0E0B0E0FB0182839383A483B5836C81E7
:1006A0007D81A601C70106960E949915EE81FF8102
:1006B000DF010D900020E9F7CD0101975C01AE1A32
:1006C000BF0AF701EC0DFD1D850120E030E0068337
:1006D0001783208731879AE0C90ED11C6E817F81F4
:1006E000A501C7018C0D9D1D0E949915CA0CDB1C2C
:1006F000E885F985DF010D900020E9F7CD0101972C
:100700005C01AE1ABF0AF701EC0DFD1D850120E06A
:1007100030E0008311832283338394E0C90ED11C1F
:1007200068857985A501C7018C0D9D1D0E949915CD
:10073000AC0CBD1C3A852B859C858D85F701EA0D97
:10074000FB1D3083218392838383C5010496DF914F
:10075000CF911F910F91FF90EF90DF90CF90BF90BE
:10076000AF9008950F931F93CF93DF93DC01FB01AC
:1007700012968C911297808313968D919C91149769
:10078000EC0109900020E9F72197C81BD90B8E01D5
:1007900020E030E0018312832383348313966D912C
:1007A0007C911497AE01CF0105960E949915CE0158
:1007B0000596DF91CF911F910F910895BF92CF922F
:1007C000DF92EF92FF920F931F93CF93DF93EC0191
:1007D0007B018A81DB018C9311961C9211971296F2
:1007E0001C92129713961C92FB01379640E024E06E
:1007F00030E05A81C90104964517E0F4AF81B8850D
:1008000024E0429FA00DB11D11246C9111965C91C2
:10081000119712963C91129713962C91DF01139722
:100820006C9311965C9311963C9320839C014F5FCF
:100830003496DFCF4985F701E20FF31F4083118221
:100840001282138220E03985F701E80FF91F049620
:100850002317B0F4AE85BF8534E0239FA00DB11DF2
:1008600011246C9111965C91119712964C911297EC
:1008700013963C9160835183428333832F5FE3CF90
:1008800028892083118212821382B12C2889B21602
:1008900098F54B2D50E0440F551FEB89FC89E40F70
:1008A000F51F0190F081E02DDF010D900020E9F7A8
:1008B0009D01215031096901CE1ADF0AF701E80FC5
:1008C000F91F860120E030E0008311832283338307
:1008D0008C010C5F1F4FEB89FC89E40FF51F6081D1
:1008E0007181A601C701800F911F0E949915C60151
:1008F000800F911FB394CACFDF91CF911F910F91B9
:10090000FF90EF90DF90CF90BF9008950F931F93CB
:10091000CF93DF93DC01FB0112968C9112978083B9
:1009200013968C911397818314968C9114978283DC
:1009300015968C911597838316968C9116978483C0
:1009400017968C911797858318968C9118978683A4
:1009500019968C91199787831A968C911A9780878C
:100960001B968C911B9781871C968C911C97828774
:100970001D968C911D9783871E968D919C911F9734
:10098000EC0109900020E9F72197C81BD90B8E01D3
:1009900020E030E004871587268737871E966D9103
:1009A0007C911F97AE01CF0140960E949915CE0110
:1009B0004096DF91CF911F910F9108950F931F9350
:1009C000CF93DF93EC018B0102960E9486042A8963
:1009D000F801E80FF91F20835B894C893D892E8936
:1009E00051834283338324835F89488D398D2A8DD7
:1009F00055834683378320875B8D4C8D3D8D2E8DAF
:100A000051874287338724875F8D48A139A12AA166
:100A1000558746873787208B4196DF91CF911F916D
:100A20000F9108954F925F927F928F929F92AF9213
:100A3000BF92CF92DF92EF92FF920F931F93CF93CB
:100A4000DF93EC018B01DB01FC908A818F1550F460
:100A5000B4E0FB9EB00111248F8198850E94B30EF3
:100A600098878F83FA82F8013796F12C44E050E0A2
:100A70009E012D5F3F4F8A81BA016C5F7F4F6B01F2
:100A8000F81660F5408150E060E070E0742F662752
:100A900055274427DF0113978C91482B11968C9191
:100AA000582B11968C91682B4B835C836D837E83CE
:100AB000A6016F81788584E0F89E600D711D112478
:100AC000D9018D909D90AD90BC90DB018D929D924F
:100AD000AD92BC921397F3943496CDCFF801E40F06
:100AE000F51FF08089858F1550F484E0F89EB001E1
:100AF00011248E859F850E94B30E9F878E87960155
:100B0000F98680E0FE013A969985D801A20FB31FBD
:100B1000A9014C5F5F4F6A01891748F511969C91B6
:100B2000119712964C91129750E060E070E0BA0174
:100B300055274427592B9C91492B13969C91792B2F
:100B40004A875B876C877D879601AE85BF8594E079
:100B5000899FA00DB11D1124408151816281738153
:100B60004D935D936D937C9313978F5FCDCFFC90E6
:100B700088898F1550F46F2D70E0660F771F8B8971
:100B80009C890E94B30E9C8B8B8BC601F88A712CBA
:100B90002E0151E1450E511C2889721608F044C0FF
:100BA000F801E80FF91FC080D180E280F38004963D
:100BB000F801E80FF91FAC01662757FD6095762F05
:100BC0004C0D5D1D6E1D7F1D9F01201B310B4901CA
:100BD000A12CB12C84169506A606B70638F4B19060
:100BE0009F0122503109D901BC92EECFC80ED91E07
:100BF000F801EC0DFD1D319710829C012150310947
:100C0000200F311F3A8B298BC6013B892C89E32F9A
:100C1000F22FE70DF11DE70DF11DD2012D913C9151
:100C2000318320837394B8CFDF91CF911F910F91BF
:100C3000FF90EF90DF90CF90BF90AF909F908F90FC
:100C40007F905F904F9008951F93CF93DF93809193
:100C5000950312E1189FC0011124815A9C4F0E94F4
:100C6000B7138823D9F08091950390E0EC01CC0F65
:100C7000DD1FCA56DC4F189FF001199FF00D11249B
:100C8000E15AFC4F608171818281938129E330E0D8
:100C900040E050E00E94891739832883DF91CF918B
:100CA0001F910895AF92BF92CF92DF92EF92FF9281
:100CB0000F931F93CF93DF9300D000D01F92CDB737
:100CC000DEB78C016B01643671053CF0FC01EE5916
:100CD000FE4F8081882309F477C0DA01ED91FC9101
:100CE0000190F081E02DB8016F547F4FCA01099542
:100CF0007C015801BAEAAB0EB11C2FEFF50120833D
:100D00002EEF319620833196808331969083890F20
:100D10008095319680833196C0823196D08285E06D
:100D200090E020E030E0A701495F5F4F841795070E
:100D300050F4F801E80FF91FE655FF4F6081260FC8
:100D4000311D0196F3CFF8E0EF0EF11C400F511F5B
:100D5000FA01E655FF4F2095208327E9E216F104BA
:100D6000C8F46501C6018A199B098E159F0584F494
:100D7000D80112968D919C911397F60161916F01A4
:100D8000DC01ED91FC910190F081E02D0995EACF15
:100D9000C7011CC080EE92E09A83898383E08B8335
:100DA00088E592E09D838C83D801ED91FC910190C0
:100DB000F081E02DAE014F5F5F4F67E070E0C8014A
:100DC00009958FEF9FEF02C080E090E00F900F90A9
:100DD0000F900F900F90DF91CF911F910F91FF9087
:100DE000EF90DF90CF90BF90AF900895CF93DF93B7
:100DF000AB01EC01AE81BF81ED91FC9111976C814B
:100E00007D810190F081E02DCD01DF91CF9109949A
:100E10000F931F9381E080934E0388EB9EE1A5E83A
:100E2000BEE380934F0390935003A0935103B0937C
:100E300052038FE892ECA5EFBCE3809353039093A9
:100E40005403A0935503B09356038DEC9CECACE493
:100E5000BEE38093570390935803A0935903B09334
:100E60005A03EEE1F6E080E090E021913191232BEE
:100E7000B1F4FC01EE0FFF1FE25EF94F22E333E015
:100E80003183208386599F4F909337038093360395
:100E90008EED94E0909339038093380304C001965B
:100EA0008630910511F70E943E0E8B019C01055B77
:100EB0001F4F2F4F3F4F00939C0310939D03209390
:100EC0009E0330939F038B019C0104591F4F2F4FAA
:100ED0003F4F0093A0031093A1032093A2033093EC
:100EE000A303DC01CB0183579F4FAF4FBF4F8093CC
:100EF000A4039093A503A093A603B093A7031F9107
:100F00000F9108952F923F924F925F926F927F922E
:100F10008F929F92AF92BF92CF92DF92EF92FF9209
:100F20000F931F93CF93DF93CDB7DEB768970FB6BC
:100F3000F894DEBF0FBECDBF10E01E0181E1280E88
:100F4000311C08E04FE2842E46E6942EA92CB12CE9
:100F50005FE2452E56E6552E5CE6652E712C0E940A
:100F60003E0E28EE33E040E050E00E948917C0902A
:100F7000EA04D090EB04E090EC04F090ED04C20E93
:100F8000D31EE41EF51EC98ADA8AEB8AFC8A9B010D
:100F9000AC0160E472E48FE090E00E945117209170
:100FA000EE043091EF044091F0045091F104620F8F
:100FB000731F841F951F6D8B7E8B8F8B988FBE0147
:100FC0006B5E7F4FC1010E94B712F101DE011196E5
:100FD000802F01900D928A95E1F7FE013196DE0196
:100FE0001996802F01900D928A95E1F7FE013996AE
:100FF000A4E4B3E0802F01900D928A95E1F71111DE
:1010000015C0498A5A8A6B8A7C8A609196037091CE
:10101000970380E090E00E943816AB01BC018EE699
:1010200094E00E948F148EE694E02FC01130A9F452
:10103000898A9A8AAB8ABC8A6091980370919903D5
:1010400080E090E00E943816AB01BC018BE094E098
:101050000E948F148BE094E018C08FE296E6A2E71E
:10106000B0E0898B9A8BAB8BBC8B60919A037091AB
:101070009B0380E090E00E943816AB01BC0188EA37
:1010800093E00E948F1488EA93E00E941D150E944D
:101090000716882777FD8095982F0E943A1660934F
:1010A0005B0370935C0380935D0390935E033092C7
:1010B0004D0320924C036CE373E082E393E00E94C3
:1010C000F60691E0909300011F5F133009F047CFBF
:1010D00068960FB6F894DEBF0FBECDBFDF91CF91FB
:1010E0001F910F91FF90EF90DF90CF90BF90AF9046
:1010F0009F908F907F906F905F904F903F902F9038
:1011000008958F929F92AF92BF92DF92EF92FF92DB
:101110000F931F93CF93DF93CCE9D3E066E9E62EDC
:1011200063E0F62E0FE513E0D12C0E943E0E88807E
:101130009980AA80BB80681579058A059B0500F116
:10114000B501A4014D595F4F6F4F7F4F48835983BD
:101150006A837B83D11006C080919503823011F49D
:101160000E9482070E94B113D0929503F701118269
:10117000108240E050E064E276E0C8010E942C1446
:10118000D3942496F2E0EF0EF11C0E5E1F4F83E025
:10119000D812CBCFDF91CF911F910F91FF90EF909D
:1011A000DF90BF90AF909F908F9008954091E204A0
:1011B0005091E3046091E4047091E5048091E004AF
:1011C0009091E1040E94E0111092370610923606C9
:1011D000109239061092380610923D0610923C0685
:1011E00010923B0610923A060C940807FC018CE121
:1011F00093E0918380838CE696E09383828340E042
:1012000051EE60E070E04483558366837783DF01AD
:10121000AE59BE4F1C921E968CEE92E011969C9396
:101220008E9312961C92129718961C921E921797E4
:1012300019961C9219971F961C921E921E975096F3
:101240001C92509754961C921E925397D0971196C9
:101250001C921E92129611961C921E921296119634
:101260001C921E92129611961C921E921296119624
:101270001C921E92129611961C921E921296119614
:101280001C921E92129611961C921E921296119604
:101290001C921E92129611961C921E9212961196F4
:1012A0001C921E9212961D921C9280E090E0DF012B
:1012B000A80FB91F54961C92019686399105B9F76B
:1012C00080E090E0DF01A80FB91FA655BF4F1C9228
:1012D000019686399105B1F708950F931F93CF9327
:1012E000DF93CDB7DEB72A970FB6F894DEBF0FBEF7
:1012F000CDBF8C0188EC92E09A8389831B821C828B
:101300001D821E821F82188619861A86D801ED91C9
:10131000FC910190F081E02DAE014F5F5F4F6AE0DC
:1013200070E0C80109950E943E0EF8016087718740
:10133000828793872A960FB6F894DEBF0FBECDBF83
:10134000DF91CF911F910F9108954F925F926F920D
:101350007F928F929F92AF92BF92CF92DF92EF9245
:10136000FF920F931F93CF93DF93CDB7DEB72E97E6
:101370000FB6F894DEBF0FBECDBF8C0184ED92E0B6
:101380009A8389831C821B8280E992E09E838D83ED
:1013900098878F839A8789871B861C861D861E8661
:1013A00058018CE0A80EB11C7801E6E94E2E512CB4
:1013B000612C712C6701A0ECCA1AAEEFDA0AD601D3
:1013C000ED91FC913097B9F1848195819C838B8359
:1013D000808191819E838D8382819381DC01ED9157
:1013E000FC910480F581E02D099598878F83D601C3
:1013F000ED91FC9182819381DC01ED91FC9106805D
:10140000F781E02D09959A8789874B865C866D86E2
:101410007E86F80180819181F601A081B1811896C4
:101420006D917C911997DC01ED91FC91AE014F5FBC
:101430005F4FC8010995B2E0EB0EF11CEA14FB0402
:1014400009F0B8CF780176E9472E512C612C712C28
:101450006701E4EBCE1AEEEFDE0AF601A081B1815E
:101460001097E1F112968D919C9113979C838B8339
:1014700014968D919C9115979E838D83ED91FC918F
:1014800011970480F581E02DCD01099598878F8310
:10149000D6018D919C91DC01ED91FC910680F78144
:1014A000E02D09959A8789874B865C866D867E86B6
:1014B000D801ED91FC9180809180F601808191812D
:1014C000DC01ED91FC910280F381E02D0995AE01E4
:1014D0004F5F5F4FBC01C801F4010995F2E0EF0EC8
:1014E000F11CEA14FB0409F0B3CFF801EE59FE4FEA
:1014F00081E080832E960FB6F894DEBF0FBECDBF7D
:10150000DF91CF911F910F91FF90EF90DF90CF90DF
:10151000BF90AF909F908F907F906F905F904F9013
:1015200008958F929F92AF92BF92CF92DF92EF92E7
:10153000FF920F931F93CF93DF93CDB7DEB72A9718
:101540000FB6F894DEBF0FBECDBF8C015B0188ECF7
:1015500092E09A8389831B821C821D821E821F82D5
:10156000188619861A860E943E0E6B017C01F801CE
:1015700080859185A285B385C81AD90AEA0AFB0A33
:10158000B501CE0101960E94A600F8EE8F2EF3E081
:101590009F2EA12CB12CC701B601A50194010E9478
:1015A000891769017A019B01AC018B819C81AD8116
:1015B000BE818C0D9D1DAE1DBF1D8B839C83AD8395
:1015C000BE8360E472E48FE090E00E945117CF8008
:1015D000D884E984FA84C60ED71EE81EF91ECF828D
:1015E000D886E986FA860E943E0ECB80DC80ED80AC
:1015F000FE80F1E0CF1AD108E108F108A5019401BD
:101600000E94891749015A019B01AC01C818D908E9
:10161000EA08FB08F801C486D586E686F786CF80FF
:10162000D884E984FA84F6E3DF1AF5E6EF0AF4ECED
:10163000FF0A60E472E48FE090E00E945117C61A3E
:10164000D70AE80AF90AF801C08AD18AE28AF38A3D
:10165000B801605F7F4FC8010C960E94B7120E94CC
:101660003E0EF801E959FE4F6083718382839383B4
:101670002A960FB6F894DEBF0FBECDBFDF91CF9193
:101680001F910F91FF90EF90DF90CF90BF90AF90A0
:101690009F908F9008952F923F924F925F926F92FA
:1016A0007F928F929F92AF92BF92CF92DF92EF92F2
:1016B000FF920F931F93CF93DF93CDB7DEB7609761
:1016C0000FB6F894DEBF0FBECDBF4C010E943E0E98
:1016D0006B017C01940129593E4F3E832D83F90112
:1016E00080819181A281B381A7019601281B390BCA
:1016F0004A0B5B0BDA01C901893F9A42A105B1058A
:1017000010F035971082A401485A5E4F588B4F87CE
:10171000DA018D919C91892B79F0F401E559FE4F06
:1017200080819181A281B3818C159D05AE05BF0595
:1017300018F4FA01118210823401F0EA6F1AFEEFF8
:101740007F0A9401245A3E4F3A832983A4014E59BB
:101750005E4F58874F832C5E3F4F3C872B87435FFC
:101760005F4F5E874D878401065A1E4F1601270181
:1017700054E1250E311C411C511C540184E1A80E7A
:10178000B11C9401225A3E4F3C832B83A40145593E
:101790005E4F5A874987D40112968D919C91139779
:1017A000DC01ED91FC910680F781E02D09959C010B
:1017B00097FD2DC1F30180819181820F931F918349
:1017C0008083AF85B8894D915C9147305105E1F434
:1017D000EB81FC8180819181AC014F5F5F4F518330
:1017E0004083F401E80FF91F248BD8018D919C915F
:1017F000119701978D939C93892B09F0BECF28E018
:1018000030E0EF85F88987C04115510519F52F3F64
:10181000310569F481E090E0AF85B8898D939C93A0
:10182000E985FA852082318242825382B4CF0E94B8
:101830003E0E6C197D098E099F0966307105810580
:10184000910508F49ACFF401EE59FE4F10828EEF05
:101850009FEF03C14130510599F42E3F310519F432
:1018600082E090E02FC0EF85F88911821082AF816D
:10187000B8858C91811181CFC4010E946D098BCFF5
:101880004230510589F4F80131832083AB81BC815A
:101890001D921C9283E090E0EF85F889918380830C
:1018A000D3012D933C9377CF4330510581F4322FF0
:1018B0002227F80180819181820F931F9183808379
:1018C00084E090E0AF85B8898D939C9364CF4430D9
:1018D000510599F460E071E00E9475178F3F910502
:1018E00039F485E090E0EF85F8899183808353CFC8
:1018F000AF85B8891D921C924ECF4530510571F4C9
:10190000E981FA813183208386E090E0AF85B88950
:101910008D939C93F301318320833DCF4630510555
:10192000D1F4322F2227A981BA818D919C911197F0
:10193000820F931F8D939C9327E030E0EF85F88909
:1019400031832083D8018D919C91892B09F015CF8B
:1019500028E030E0E0CF4830510509F00ECFAF85E8
:10196000B8891D921C9260E071E00E9475178F3F4C
:10197000910509F002CFA981BA81ED91FC913097D0
:10198000B1F4C4010E946D09C4010E94A509F401CB
:10199000ED59FE4FC082D182E282F382ED81FE8159
:1019A000C082D182E282F3828FEF9FEF56C0EA308D
:1019B000F10529F4B501C4010E94910AECCEE6308C
:1019C000F10551F4B5018B859C850E94120581E0DB
:1019D000AD85BE858C93DFCEEB30F10521F4EF8130
:1019E000F8851082D8CEEE5BFF4FEE0FFF1FE80D9B
:1019F000F91D80819181009709F4BFCEDC01ED9142
:101A0000FC910190F081E02DB5010995C4CEF4015F
:101A1000EE59FE4F80818823F1F084010D591E4F4D
:101A2000F80180819181A281B381A7019601281BD1
:101A3000390B4A0B5B0BDA01C901853C9940A105C2
:101A4000B10548F0C4010E946D09D801CD92DD9224
:101A5000ED92FC92139780E090E060960FB6F894B8
:101A6000DEBF0FBECDBFDF91CF911F910F91FF90D1
:101A7000EF90DF90CF90BF90AF909F908F907F902E
:101A80006F905F904F903F902F9008950E94810833
:101A90008EED94E00C944B0B8EED94E00E94F608D2
:101AA000EBEDF4E088EF92E0918380831092DD0407
:101AB00081E992E09093D2048093D104F093D4040E
:101AC000E093D3041092DA041092D9046AE08EE60F
:101AD00094E00E9484146AE08BE094E00E948414F5
:101AE0006AE088EA93E00E94841428EC30E043E046
:101AF00062E08FE593E00E94641328EC30E045E05B
:101B000064E081E793E00E94641328EC30E047E052
:101B100066E083E893E00E946413ECE3F3E080E185
:101B200093E09183808384E093E090933F038093DC
:101B30003E03109240031092410310924203109210
:101B400043031092440310924503109246031092EF
:101B50004703109248031092490310924A031092CF
:101B60004B0380E992E090934D0380934C031092D5
:101B70004E0310924F031092500310925103109293
:101B80005203109253031092540310925503109273
:101B90005603109257031092580310925903109253
:101BA0005A0310925B0310925C0310925D03109233
:101BB0005E038DE992E09093330380933203F093B8
:101BC0003503E093340310923B0310923A030895D7
:101BD00088EA93E00E9472148BE094E00E947214F1
:101BE0008EE694E00C9472141F920F920FB60F922F
:101BF00011242F933F938F939F93AF93BF93809123
:101C0000640690916506A0916606B09167063091D2
:101C1000630623E0230F2D3720F40196A11DB11D8B
:101C200005C026E8230F0296A11DB11D209363066F
:101C30008093640690936506A0936606B09367064A
:101C40008091680690916906A0916A06B0916B0632
:101C50000196A11DB11D8093680690936906A0931B
:101C60006A06B0936B06BF91AF919F918F913F91A0
:101C70002F910F900FBE0F901F9018952FB7F894CB
:101C80006091640670916506809166069091670682
:101C90002FBF08953FB7F894809168069091690628
:101CA000A0916A06B0916B0626B5A89B05C02F3F90
:101CB00019F00196A11DB11D3FBF6627782F892F0E
:101CC0009A2F620F711D811D911D42E0660F771FD3
:101CD000881F991F4A95D1F708950197009739F009
:101CE000880F991F880F991F02970197F1F70895A0
:101CF000789484B5826084BD84B5816084BD85B5E7
:101D0000826085BD85B5816085BDEEE6F0E08081AD
:101D100081608083E1E8F0E01082808182608083CE
:101D2000808181608083E0E8F0E080818160808351
:101D3000E1EBF0E0808184608083E0EBF0E0808183
:101D400081608083EAE7F0E0808184608083808125
:101D500082608083808181608083808180688083CD
:101D60001092C10008956F927F928F929F92AF92CE
:101D7000BF92CF92DF92EF92FF920F931F93CF9378
:101D8000DF93EC01CB01209781F4DF91CF911F917C
:101D90000F91FF90EF90DF90CF90BF90AF909F900A
:101DA0008F907F906F900C949C0FFE01E60FF71FB1
:101DB0009E0122503109E217F30708F4ACC0D901A3
:101DC0000D911C91119706171707B8F005301105F2
:101DD00008F49FC0A801445051094617570708F45A
:101DE00098C002501109061B170B019311936D93B4
:101DF0007C93CF010E9434108CC05B01A01AB10A01
:101E00004E01800E911EA0911A07B0911B07612C04
:101E1000712C60E070E0109709F449C0A815B9056D
:101E2000C9F5ED90FC901197670142E0C40ED11CFA
:101E3000CA14DB0478F147018A189B08640142E068
:101E4000C40ED11C1296BC9012971396AC91B5E0BB
:101E5000CB16D10440F0B282A38391828082D90153
:101E60008D939C9309C00E5F1F4F0E0D1F1DF9012E
:101E700011830083EB2DFA2F6115710531F0DB0121
:101E80001396FC93EE93129744C0F0931B07E093D4
:101E90001A073FC06D917C9111976616770608F47A
:101EA0003B01BD0112960D90BC91A02DB4CF609165
:101EB00018077091190768157905E9F4681679060D
:101EC000D0F440910101509102014115510541F4B6
:101ED0004DB75EB76091050170910601461B570B27
:101EE000E417F507C0F4F0931907E0931807F90118
:101EF000918380830EC00E949C0F7C01009759F053
:101F0000A801BE010E949915CE010E943410C7019C
:101F100004C0CE0102C080E090E0DF91CF911F911C
:101F20000F91FF90EF90DF90CF90BF90AF909F9078
:101F30008F907F906F900895CF93DF9382309105BB
:101F400010F482E090E0E0911A07F0911B0720E086
:101F500030E0A0E0B0E0309739F14081518148177E
:101F60005907B8F04817590771F482819381109787
:101F700029F013969C938E9312972CC090931B0775
:101F800080931A0727C02115310531F042175307F6
:101F900018F0A901DB0101C0EF019A01BD01DF01C9
:101FA0000280F381E02DD7CF21153105F9F0281BF0
:101FB000390B2430310580F48A819B8161157105CC
:101FC00021F0FB019383828304C090931B078093CD
:101FD0001A07FE01329644C0FE01E20FF31F8193FF
:101FE000919322503109398328833AC020911807F0
:101FF00030911907232B41F4209103013091040102
:1020000030931907209318072091010130910201A4
:102010002115310541F42DB73EB74091050150918E
:102020000601241B350BE0911807F0911907E21700
:10203000F307A0F42E1B3F0B2817390778F0AC01EB
:102040004E5F5F4F2417350748F04E0F5F1F5093C8
:102050001907409318078193919302C0E0E0F0E0E4
:10206000CF01DF91CF910895CF93DF93009709F4CB
:1020700087C0FC01329713821282C0911A07D09157
:102080001B07209781F420813181280F391F80910F
:102090001807909119078217930779F5F09319079C
:1020A000E09318076DC0DE0120E030E0AE17BF07F7
:1020B00050F412964D915C9113979D014115510575
:1020C00009F1DA01F3CFB383A28340815181840FF8
:1020D000951F8A179B0771F48D919C911197840F1E
:1020E000951F02969183808312968D919C911397F0
:1020F000938382832115310529F4F0931B07E09324
:102100001A073EC0D9011396FC93EE9312974D9196
:102110005D91A40FB51FEA17FB0779F480819181C7
:10212000840F951F0296D90111969C938E938281FC
:10213000938113969C938E931297E0E0F0E08A814E
:102140009B81009719F0FE01EC01F9CFCE010296B8
:1021500028813981820F931F209118073091190728
:102160002817390769F4309729F410921B07109249
:102170001A0702C013821282D0931907C09318075E
:10218000DF91CF9108950E94780E0E94D608CCE985
:10219000D1E10E94460D2097E1F30E949C11F9CFF6
:1021A000FC0124853585F901E05CFF4F8081918138
:1021B000329620813181821B930B8F73992708956A
:1021C000FC0184859585FC01E05CFF4F40815181D5
:1021D0003296208131814217530741F00190F081FE
:1021E000E02DE80FF91F808190E008958FEF9FEFB9
:1021F0000895FC0184859585FC01E05CFF4F4081DA
:1022000051813296208131814217530779F0A081A4
:10221000B181A80FB91F8C91208131812F5F3F4F71
:102220002F7333273183208390E008958FEF9FEF42
:102230000895FC0181A1882329F0A489B5898C9196
:1022400086FFFBCF11A20895CF93DF93FC01268573
:102250003785D901A05CBF4F8D919C911197019654
:102260008F739927E901CE5BDF4F4881598184172D
:102270009507D9F30D90BC91A02DA20FB31F6C93BD
:10228000A685B785A05CBF4F11969C938E93A689B7
:10229000B7892C9181E090E0078C02C0880F991FCC
:1022A0000A94E2F7282B2C9381E081A30488F58916
:1022B000E02D80818064808381E090E0DF91CF9188
:1022C000089508951F920F920FB60F9211242F9325
:1022D0003F934F938F939F93EF93FF938091C00011
:1022E00082FD1CC04091C600809112079091130797
:1022F00001968F7399272091140730911507821743
:10230000930771F0E0911207F0911307EE52F94F25
:102310004083909313078093120702C08091C600F8
:10232000FF91EF919F918F914F913F912F910F903E
:102330000FBE0F901F9018958CE696E00E94D0106B
:10234000892B11F00C94611108951F920F920FB612
:102350000F9211242F933F938F939F93EF93FF93AB
:102360002091CE063091CF068091D0069091D10673
:102370002817390731F48091C1008F7D8093C10007
:1023800014C0E091D006F091D106E257F94F2081B8
:102390008091D0069091D10601968F7399279093E2
:1023A000D1068093D0062093C600FF91EF919F91B4
:1023B0008F913F912F910F900FBE0F901F90189506
:1023C000CF92DF92EF92FF92CF93DF93EC016A01FD
:1023D0007B01411581EE580761057105F9F0EC8923
:1023E000FD8981E090E008A002C0880F991F0A943F
:1023F000E2F7808360E079E08DE390E0A701960149
:102400000E94891721503109410951095695479574
:1024100037952795211580E1380798F0EC89FD89DB
:10242000108260E874E88EE190E0A70196010E94B6
:10243000891721503109410951095695479537951A
:102440002795E889F9893083EA89FB89208319A2D5
:10245000EE89FF89408181E090E09C010C8C02C0F4
:10246000220F331F0A94E2F7422B4083EE89FF8943
:1024700040819C010D8C02C0220F331F0A94E2F7A9
:10248000422B4083EE89FF8940819C010E8C02C063
:10249000220F331F0A94E2F7422B4083EE89FF8913
:1024A00020810F8C02C0880F991F0A94E2F7809553
:1024B00082238083DF91CF91FF90EF90DF90CF90C8
:1024C000089510926F0610926E0688EE93E0A0E0D9
:1024D000B0E08093700690937106A0937206B0935B
:1024E000730686E293E090936D0680936C0682ED0E
:1024F00096E090937906809378068EE896E0909324
:102500007B0680937A0685EC90E090937D0680931D
:102510007C0684EC90E090937F0680937E0680ECAE
:1025200090E0909381068093800681EC90E09093F8
:1025300083068093820682EC90E0909385068093D8
:10254000840686EC90E0909387068093860684E06C
:102550008093880683E08093890687E080938A06CB
:1025600085E080938B0681E080938C060895CF925E
:10257000DF92EF92FF920F931F93CF93DF938C0123
:10258000EB01688179818A819B8120E03AEC4AE9FC
:102590005BE30E948917F801C080D180E280F3805C
:1025A000C20ED31EE41EF51EC082D182E282F382E7
:1025B000688379838A839B83DF91CF911F910F91E9
:1025C000FF90EF90DF90CF9008950F931F93CF93DC
:1025D000DF93EC01EA85FB8580819C81892B8083D8
:1025E000EE81FF8190818C8180958923808384E0B6
:1025F00090E00E946D0EEE81FF8180819C81892B8D
:1026000080838AE090E00E946D0EEE81FF819081D0
:102610008C81809589238083EA85FB8590818C81DC
:10262000809589238083E885F98580819D81892330
:1026300011F080E032C00E944A0E4C855D858A010F
:1026400020E030E00855194E2F4F3F4F060F171F5F
:10265000281F391F0E871F87288B398BE885F9853E
:1026600080819D81892361F40E944A0E0E851F8519
:1026700028893989061717072807390778F7D9CF26
:102680000E944A0E2C853D85620F731F811D911D8E
:102690006E877F87888B998B81E0DF91CF911F9127
:1026A0000F9108956F5F7F4F49E3469F9001479FC9
:1026B000300D11242E384FE6340710F02DE83FE698
:1026C000FC013587248708950F931F93CF93DF93E1
:1026D000DC01062F10E0F801E859FF4FE491149651
:1026E000EC931497842F90E0FC01E859FF4FE4919C
:1026F0001596EC93159704581F4FF801C491D0E03C
:10270000CC0FDD1FC656DF4FFE0145915491179641
:102710005C934E931697FC01E458FF4F849190E030
:10272000880F991F80579F4FFC014591549119962E
:102730005C934E931897F8010491E02FF0E0EE0FB0
:10274000FF1FEC55FF4F859194911B969C938E93A0
:102750001A97B901CD01DF91CF911F910F910C9480
:102760005213E0E7F0E080818D7F80830895CF925F
:10277000DF92EF92FF920F931F93CF93DF93EC01C1
:102780000E944A0E0E851F8528893989061717076A
:102790002807390718F40E94B11325C0E885F98588
:1027A00080819D818923F9F40E94B1130E944A0E11
:1027B0004C855D858A0120E030E0CE84DF84E888A6
:1027C000F9880C191D092E093F090D50110921091D
:1027D0003109060F171F281F391F088319832A8301
:1027E0003B8381E001C080E0DF91CF911F910F9189
:1027F000FF90EF90DF90CF9008950E94B113E6EB29
:10280000F0E080818F7D808382E08093B00084E05F
:102810008093B1001092B2000895CF93DF93EC0142
:1028200070931707609316070E94FD13CE019695CB
:1028300087959695879501978F3F910519F010F030
:102840008FEF90E08093B30080917000826080935E
:102850007000DF91CF9108950F931F93CF93DF9373
:10286000EC018B014115510519F0BA010E94521378
:10287000CE010E94E512882349F0B80188E190E07A
:10288000DF91CF911F910F910C940D14DF91CF9197
:102890001F910F9108951F920F920FB60F9211245E
:1028A0002F933F934F935F936F937F938F939F9358
:1028B000AF93BF93EF93FF93E0911607F091170743
:1028C0000995FF91EF91BF91AF919F918F917F916A
:1028D0006F915F914F913F912F910F900FBE0F908D
:1028E0001F9018950895FC01128213821082318185
:1028F000482F282F241B231730F4FC01E05BFF4FE7
:1029000020830196F6CF0895662321F0643118F0F4
:1029100063E101C061E0FC0161830C947314FC016C
:10292000938181E0890F8383DF0124E0929FA00DD2
:10293000B11D112414964D935D936D937C9317975D
:102940009181891708F013828281891710F48F5FB3
:102950008283108208953F924F925F926F927F928E
:102960008F929F92AF92BF92CF92DF92EF92FF929F
:102970000F931F93CF93DF93EC01EA80F12C570163
:1029800021E0A21AB108612C862D90E08A159B05E2
:10299000A4F081E08883DF91CF911F910F91FF9088
:1029A000EF90DF90CF90BF90AF909F908F907F90EF
:1029B0006F905F904F903F900895772473945524C3
:1029C00053946701C81AD90A872D90E08C159D058C
:1029D00084F58E01080F191F015B1F4FF80140801D
:1029E0008C0F9D1F4C01F0E58F0E911CF40130807F
:1029F000FE0124E0429EE00DF11D1124DE0184E081
:102A0000389EA00DB11D112414962D913D914D912C
:102A10005C91179764817581868197810E94EA167F
:102A200018162CF4F8013082F4014082512C739472
:102A3000CBCF5110AECF6394A7CFCF93DF93EC01F0
:102A40008A81882309F443C08881811103C0CE01A3
:102A50000E94AB149A81892F869590FF10C0FE01C9
:102A6000E80FF11DE05BFF4F808124E0829FC00DE5
:102A7000D11D11246C817D818E819F812CC09E018E
:102A8000280F311DC901F901E05BFF4F2081FE01D4
:102A900034E0239FE00DF11D1124DC01A15BBF4F49
:102AA0008C9194E0899FC00DD11D11242C813D8112
:102AB0004E815F8164817581868197810E94A31513
:102AC00020E030E040E05FE30E94EE1604C060E0EA
:102AD00070E080EC9FE7DF91CF910895CF92DF9275
:102AE000EF92FF920F931F93CF93DF936C017A01C4
:102AF000EB01E60EF71E00E010E0CE15DF0561F0F9
:102B00006991D601ED91FC910190F081E02DC60113
:102B10000995080F191FF1CFC801DF91CF911F91BF
:102B20000F91FF90EF90DF90CF900895F8940C9460
:102B3000CB17FB01DC0102C001900D9241505040C7
:102B4000D8F708955058BB27AA270ED009C1FAD04C
:102B500030F0FFD020F031F49F3F11F41EF4EFC0AD
:102B60000EF4E095E7FBE5C0E92F0BD180F3BA172F
:102B7000620773078407950718F071F49EF523C167
:102B80000EF4E0950B2EBA2FA02D0B01B901900188
:102B90000C01CA01A0011124FF27591B99F0593FCC
:102BA00050F4503E68F11A16F040A22F232F342F14
:102BB0004427585FF3CF469537952795A795F04062
:102BC0005395C9F77EF41F16BA0B620B730B840B77
:102BD000BAF09150A1F0FF0FBB1F661F771F881F2F
:102BE000C2F70EC0BA0F621F731F841F48F4879587
:102BF00077956795B795F7959E3F08F0B3CF939576
:102C0000880F08F09927EE0F97958795089504D0BF
:102C10006894B111D9C00895BCD088F09F5790F046
:102C2000B92F9927B751A0F0D1F0660F771F881FF1
:102C3000991F1AF0BA95C9F712C0B13081F0C3D00C
:102C4000B1E00895C0C0672F782F8827B85F39F0AA
:102C5000B93FCCF3869577956795B395D9F73EF450
:102C600090958095709561957F4F8F4F9F4F0895F8
:102C7000E89409C097FB3EF4909580957095619516
:102C80007F4F8F4F9F4F9923A9F0F92F96E9BB27CC
:102C90009395F695879577956795B795F111F8CF48
:102CA000FAF4BB0F11F460FF1BC06F5F7F4F8F4FB3
:102CB0009F4F16C0882311F096E911C0772321F0A9
:102CC0009EE8872F762F05C0662371F096E8862F41
:102CD00070E060E02AF09A95660F771F881FDAF798
:102CE000880F9695879597F90895990F0008550FC5
:102CF000AA0BE0E8FEEF16161706E807F907C0F082
:102D000012161306E407F50798F0621B730B840B89
:102D1000950B39F40A2661F0232B242B252B21F463
:102D200008950A2609F4A140A6958FEF811D811D03
:102D3000089597F99F6780E870E060E008959FEF3D
:102D400080EC089500240A94161617061806090642
:102D5000089500240A941216130614060506089511
:102D6000092E0394000C11F4882352F0BB0F40F499
:102D7000BF2B11F460FF04C06F5F7F4F8F4F9F4FD9
:102D8000089557FD9058440F551F59F05F3F71F05B
:102D90004795880F97FB991F61F09F3F79F08795C2
:102DA0000895121613061406551FF2CF4695F1DF4B
:102DB00008C0161617061806991FF1CF86957105DB
:102DC000610508940895E894BB2766277727CB010F
:102DD00097F908958ADF08F48FEF08950BD0C0CFDC
:102DE000B1DF28F0B6DF18F0952309F0A2CFA7CF06
:102DF0001124EACFC6DFA0F3959FD1F3950F50E0E1
:102E0000551F629FF001729FBB27F00DB11D639F9C
:102E1000AA27F00DB11DAA1F649F6627B00DA11D42
:102E2000661F829F2227B00DA11D621F739FB00DE8
:102E3000A11D621F839FA00D611D221F749F332758
:102E4000A00D611D231F849F600D211D822F762FF1
:102E50006A2F11249F5750408AF0E1F088234AF0EE
:102E6000EE0FFF1FBB1F661F771F881F915050403A
:102E7000A9F79E3F510570F05CCFA6CF5F3FECF302
:102E8000983EDCF3869577956795B795F795E79526
:102E90009F5FC1F7FE2B880F911D9695879597F937
:102EA0000895DB018F939F930E94AB17BF91AF9161
:102EB000A29F800D911DA39F900DB29F900D112494
:102EC0000895AA1BBB1B51E107C0AA1FBB1FA61771
:102ED000B70710F0A61BB70B881F991F5A95A9F7C3
:102EE00080959095BC01CD01089597FB072E16F4AF
:102EF000009407D077FD09D00E94611707FC05D028
:102F00003EF4909581959F4F0895709561957F4F00
:102F10000895A1E21A2EAA1BBB1BFD010DC0AA1F1A
:102F2000BB1FEE1FFF1FA217B307E407F50720F032
:102F3000A21BB30BE40BF50B661F771F881F991FAD
:102F40001A9469F760957095809590959B01AC01F6
:102F5000BD01CF0108950E94BC17A59F900DB49F9D
:102F6000900DA49F800D911D11240895EE0FFF1F59
:102F70000590F491E02D0994A29FB001B39FC00188
:102F8000A39F700D811D1124911DB29F700D811D95
:102F90001124911D089510E0C2EBD0E004C0FE01A1
:102FA0000E94B8172296C43BD107C9F7F894FFCF07
:102FB0000100001C0780007374645F6D7367732FDA
:102FC00054696D6500636437313636633734633571
:102FD000353263333131666263633266653561373A
:102FE000626332383900726F7373657269616C5F46
:102FF0006D7367732F546F706963496E666F00302D
:10300000616435316638386663343438393266384D
:103010006331303638343037373634363030350077
:10302000726F7373657269616C5F6D7367732F4C38
:103030006F67003131616264373331633235393360
:103040003332363163643631383362643132643658
:103050003239350039663065393862646136353960
:1030600038313938366464663533616661376134C6
:1030700030653439007374645F6D7367732F426F0A
:103080006F6C0038623934633162353364623631D3
:1030900066623661656434303630323861643633A6
:1030A000333261007374645F6D7367732F486561B9
:1030B00064657200323137366465636165636263EB
:1030C0006537386162633362393665663034396634
:1030D000616265640073656E736F725F6D736773B1
:1030E0002F52616E67650063303035633334323799
:1030F00033646334323663363761303230613837A7
:1031000062633234313438004D6573736167652012
:1031100066726F6D206465766963652064726F7096
:103120007065643A206D657373616765206C6172C8
:10313000676572207468616E206275666665722EBE
:10314000002F73656E736F722F6869740072616E01
:1031500067655F6461746100726F73736572696142
:103160006C5F6D7367732F52657175657374506111
:1031700072616D00000000008400A600EC00EF000A
:10318000000000002A03F200CA01CD010000000087
:10319000B203D0011402170200000000DE03120582
:1031A0001A021D0200000000200227022E02310236
:1031B0000000000086043402C102C40200000000C6
:1031C000DE04C7021F0322030000000052064B0B5F
:1031D00025030000000024116E15D010F910E01036
:0231E0001911C3
:00000001FF
